{
  "_format": "hh-sol-artifact-1",
  "contractName": "NFT",
  "sourceName": "contracts/NFT.sol",
  "abi": [
    {
      "inputs": [],
      "stateMutability": "nonpayable",
      "type": "constructor"
    },
    {
      "anonymous": false,
      "inputs": [
        {
          "indexed": true,
          "internalType": "address",
          "name": "owner",
          "type": "address"
        },
        {
          "indexed": true,
          "internalType": "address",
          "name": "approved",
          "type": "address"
        },
        {
          "indexed": true,
          "internalType": "uint256",
          "name": "tokenId",
          "type": "uint256"
        }
      ],
      "name": "Approval",
      "type": "event"
    },
    {
      "anonymous": false,
      "inputs": [
        {
          "indexed": true,
          "internalType": "address",
          "name": "owner",
          "type": "address"
        },
        {
          "indexed": true,
          "internalType": "address",
          "name": "operator",
          "type": "address"
        },
        {
          "indexed": false,
          "internalType": "bool",
          "name": "approved",
          "type": "bool"
        }
      ],
      "name": "ApprovalForAll",
      "type": "event"
    },
    {
      "anonymous": false,
      "inputs": [
        {
          "indexed": false,
          "internalType": "uint8",
          "name": "version",
          "type": "uint8"
        }
      ],
      "name": "Initialized",
      "type": "event"
    },
    {
      "anonymous": false,
      "inputs": [
        {
          "indexed": true,
          "internalType": "address",
          "name": "nftContractAddress",
          "type": "address"
        },
        {
          "indexed": true,
          "internalType": "uint256",
          "name": "tokenId",
          "type": "uint256"
        },
        {
          "indexed": true,
          "internalType": "address",
          "name": "mintedTo",
          "type": "address"
        },
        {
          "indexed": false,
          "internalType": "string",
          "name": "tokenUri",
          "type": "string"
        }
      ],
      "name": "NftMinted",
      "type": "event"
    },
    {
      "anonymous": false,
      "inputs": [
        {
          "indexed": true,
          "internalType": "address",
          "name": "from",
          "type": "address"
        },
        {
          "indexed": true,
          "internalType": "address",
          "name": "to",
          "type": "address"
        },
        {
          "indexed": true,
          "internalType": "uint256",
          "name": "tokenId",
          "type": "uint256"
        }
      ],
      "name": "Transfer",
      "type": "event"
    },
    {
      "inputs": [
        {
          "internalType": "address",
          "name": "to",
          "type": "address"
        },
        {
          "internalType": "uint256",
          "name": "tokenId",
          "type": "uint256"
        }
      ],
      "name": "approve",
      "outputs": [],
      "stateMutability": "nonpayable",
      "type": "function"
    },
    {
      "inputs": [],
      "name": "authorAddress",
      "outputs": [
        {
          "internalType": "address",
          "name": "",
          "type": "address"
        }
      ],
      "stateMutability": "view",
      "type": "function"
    },
    {
      "inputs": [
        {
          "internalType": "address",
          "name": "owner",
          "type": "address"
        }
      ],
      "name": "balanceOf",
      "outputs": [
        {
          "internalType": "uint256",
          "name": "",
          "type": "uint256"
        }
      ],
      "stateMutability": "view",
      "type": "function"
    },
    {
      "inputs": [
        {
          "internalType": "uint256",
          "name": "tokenId",
          "type": "uint256"
        }
      ],
      "name": "getApproved",
      "outputs": [
        {
          "internalType": "address",
          "name": "",
          "type": "address"
        }
      ],
      "stateMutability": "view",
      "type": "function"
    },
    {
      "inputs": [
        {
          "internalType": "string",
          "name": "_name",
          "type": "string"
        },
        {
          "internalType": "string",
          "name": "_symbol",
          "type": "string"
        }
      ],
      "name": "initialize",
      "outputs": [],
      "stateMutability": "payable",
      "type": "function"
    },
    {
      "inputs": [
        {
          "internalType": "address",
          "name": "_owner",
          "type": "address"
        },
        {
          "internalType": "address",
          "name": "_operator",
          "type": "address"
        }
      ],
      "name": "isApprovedForAll",
      "outputs": [
        {
          "internalType": "bool",
          "name": "isOperator",
          "type": "bool"
        }
      ],
      "stateMutability": "view",
      "type": "function"
    },
    {
      "inputs": [],
      "name": "marketplace",
      "outputs": [
        {
          "internalType": "address",
          "name": "",
          "type": "address"
        }
      ],
      "stateMutability": "view",
      "type": "function"
    },
    {
      "inputs": [
        {
          "internalType": "string",
          "name": "_metadataUri",
          "type": "string"
        }
      ],
      "name": "mintNft",
      "outputs": [],
      "stateMutability": "nonpayable",
      "type": "function"
    },
    {
      "inputs": [],
      "name": "name",
      "outputs": [
        {
          "internalType": "string",
          "name": "",
          "type": "string"
        }
      ],
      "stateMutability": "view",
      "type": "function"
    },
    {
      "inputs": [
        {
          "internalType": "uint256",
          "name": "tokenId",
          "type": "uint256"
        }
      ],
      "name": "ownerOf",
      "outputs": [
        {
          "internalType": "address",
          "name": "",
          "type": "address"
        }
      ],
      "stateMutability": "view",
      "type": "function"
    },
    {
      "inputs": [
        {
          "internalType": "address",
          "name": "from",
          "type": "address"
        },
        {
          "internalType": "address",
          "name": "to",
          "type": "address"
        },
        {
          "internalType": "uint256",
          "name": "tokenId",
          "type": "uint256"
        }
      ],
      "name": "safeTransferFrom",
      "outputs": [],
      "stateMutability": "nonpayable",
      "type": "function"
    },
    {
      "inputs": [
        {
          "internalType": "address",
          "name": "from",
          "type": "address"
        },
        {
          "internalType": "address",
          "name": "to",
          "type": "address"
        },
        {
          "internalType": "uint256",
          "name": "tokenId",
          "type": "uint256"
        },
        {
          "internalType": "bytes",
          "name": "_data",
          "type": "bytes"
        }
      ],
      "name": "safeTransferFrom",
      "outputs": [],
      "stateMutability": "nonpayable",
      "type": "function"
    },
    {
      "inputs": [
        {
          "internalType": "address",
          "name": "operator",
          "type": "address"
        },
        {
          "internalType": "bool",
          "name": "approved",
          "type": "bool"
        }
      ],
      "name": "setApprovalForAll",
      "outputs": [],
      "stateMutability": "nonpayable",
      "type": "function"
    },
    {
      "inputs": [
        {
          "internalType": "bytes4",
          "name": "interfaceId",
          "type": "bytes4"
        }
      ],
      "name": "supportsInterface",
      "outputs": [
        {
          "internalType": "bool",
          "name": "",
          "type": "bool"
        }
      ],
      "stateMutability": "view",
      "type": "function"
    },
    {
      "inputs": [],
      "name": "symbol",
      "outputs": [
        {
          "internalType": "string",
          "name": "",
          "type": "string"
        }
      ],
      "stateMutability": "view",
      "type": "function"
    },
    {
      "inputs": [
        {
          "internalType": "uint256",
          "name": "index",
          "type": "uint256"
        }
      ],
      "name": "tokenByIndex",
      "outputs": [
        {
          "internalType": "uint256",
          "name": "",
          "type": "uint256"
        }
      ],
      "stateMutability": "view",
      "type": "function"
    },
    {
      "inputs": [
        {
          "internalType": "address",
          "name": "owner",
          "type": "address"
        },
        {
          "internalType": "uint256",
          "name": "index",
          "type": "uint256"
        }
      ],
      "name": "tokenOfOwnerByIndex",
      "outputs": [
        {
          "internalType": "uint256",
          "name": "",
          "type": "uint256"
        }
      ],
      "stateMutability": "view",
      "type": "function"
    },
    {
      "inputs": [
        {
          "internalType": "uint256",
          "name": "tokenId",
          "type": "uint256"
        }
      ],
      "name": "tokenURI",
      "outputs": [
        {
          "internalType": "string",
          "name": "",
          "type": "string"
        }
      ],
      "stateMutability": "view",
      "type": "function"
    },
    {
      "inputs": [],
      "name": "totalSupply",
      "outputs": [
        {
          "internalType": "uint256",
          "name": "",
          "type": "uint256"
        }
      ],
      "stateMutability": "view",
      "type": "function"
    },
    {
      "inputs": [
        {
          "internalType": "address",
          "name": "from",
          "type": "address"
        },
        {
          "internalType": "address",
          "name": "to",
          "type": "address"
        },
        {
          "internalType": "uint256",
          "name": "tokenId",
          "type": "uint256"
        }
      ],
      "name": "transferFrom",
      "outputs": [],
      "stateMutability": "nonpayable",
      "type": "function"
    }
  ],
  "bytecode": "0x60806040523480156200001157600080fd5b506000620000266001620000ae60201b60201c565b905080156200004b576001600060016101000a81548160ff0219169083151502179055505b8015620000a75760008060016101000a81548160ff0219169083151502179055507f7f26b83ff96e1f2b6a682f133852f6798a09c465da95921460cefb384740249860016040516200009e919062000231565b60405180910390a15b50620002f7565b60008060019054906101000a900460ff1615620001385760018260ff16148015620000ec5750620000ea30620001b460201b62000f8a1760201c565b155b6200012e576040517f08c379a00000000000000000000000000000000000000000000000000000000081526004016200012590620002d5565b60405180910390fd5b60009050620001af565b8160ff1660008054906101000a900460ff1660ff161062000190576040517f08c379a00000000000000000000000000000000000000000000000000000000081526004016200018790620002d5565b60405180910390fd5b816000806101000a81548160ff021916908360ff160217905550600190505b919050565b6000808273ffffffffffffffffffffffffffffffffffffffff163b119050919050565b6000819050919050565b600060ff82169050919050565b6000819050919050565b600062000219620002136200020d84620001d7565b620001ee565b620001e1565b9050919050565b6200022b81620001f8565b82525050565b600060208201905062000248600083018462000220565b92915050565b600082825260208201905092915050565b7f496e697469616c697a61626c653a20636f6e747261637420697320616c72656160008201527f647920696e697469616c697a6564000000000000000000000000000000000000602082015250565b6000620002bd602e836200024e565b9150620002ca826200025f565b604082019050919050565b60006020820190508181036000830152620002f081620002ae565b9050919050565b613dec80620003076000396000f3fe60806040526004361061011f5760003560e01c80634f6ccce7116100a0578063abc8c7af11610064578063abc8c7af146103fe578063b88d4fde14610429578063c87b56dd14610452578063da86f4a91461048f578063e985e9c5146104b85761011f565b80634f6ccce7146102f35780636352211e1461033057806370a082311461036d57806395d89b41146103aa578063a22cb465146103d55761011f565b806318160ddd116100e757806318160ddd1461021d57806323b872dd146102485780632f745c591461027157806342842e0e146102ae5780634cd88b76146102d75761011f565b806301ffc9a71461012457806302a867811461016157806306fdde031461018c578063081812fc146101b7578063095ea7b3146101f4575b600080fd5b34801561013057600080fd5b5061014b60048036038101906101469190612758565b6104f5565b60405161015891906127a0565b60405180910390f35b34801561016d57600080fd5b50610176610507565b60405161018391906127fc565b60405180910390f35b34801561019857600080fd5b506101a161052d565b6040516101ae91906128b0565b60405180910390f35b3480156101c357600080fd5b506101de60048036038101906101d99190612908565b6105bf565b6040516101eb91906127fc565b60405180910390f35b34801561020057600080fd5b5061021b60048036038101906102169190612961565b610644565b005b34801561022957600080fd5b5061023261075b565b60405161023f91906129b0565b60405180910390f35b34801561025457600080fd5b5061026f600480360381019061026a91906129cb565b610768565b005b34801561027d57600080fd5b5061029860048036038101906102939190612961565b6107c8565b6040516102a591906129b0565b60405180910390f35b3480156102ba57600080fd5b506102d560048036038101906102d091906129cb565b61086d565b005b6102f160048036038101906102ec9190612a83565b61088d565b005b3480156102ff57600080fd5b5061031a60048036038101906103159190612908565b610a4b565b60405161032791906129b0565b60405180910390f35b34801561033c57600080fd5b5061035760048036038101906103529190612908565b610abc565b60405161036491906127fc565b60405180910390f35b34801561037957600080fd5b50610394600480360381019061038f9190612b04565b610b6d565b6040516103a191906129b0565b60405180910390f35b3480156103b657600080fd5b506103bf610c24565b6040516103cc91906128b0565b60405180910390f35b3480156103e157600080fd5b506103fc60048036038101906103f79190612b5d565b610cb6565b005b34801561040a57600080fd5b50610413610ccc565b60405161042091906127fc565b60405180910390f35b34801561043557600080fd5b50610450600480360381019061044b9190612ccd565b610cf2565b005b34801561045e57600080fd5b5061047960048036038101906104749190612908565b610d54565b60405161048691906128b0565b60405180910390f35b34801561049b57600080fd5b506104b660048036038101906104b19190612d50565b610d66565b005b3480156104c457600080fd5b506104df60048036038101906104da9190612d9d565b610f17565b6040516104ec91906127a0565b60405180910390f35b600061050082610fad565b9050919050565b60fb60009054906101000a900473ffffffffffffffffffffffffffffffffffffffff1681565b60606065805461053c90612e0c565b80601f016020809104026020016040519081016040528092919081815260200182805461056890612e0c565b80156105b55780601f1061058a576101008083540402835291602001916105b5565b820191906000526020600020905b81548152906001019060200180831161059857829003601f168201915b5050505050905090565b60006105ca82611027565b610609576040517f08c379a000000000000000000000000000000000000000000000000000000000815260040161060090612eaf565b60405180910390fd5b6069600083815260200190815260200160002060009054906101000a900473ffffffffffffffffffffffffffffffffffffffff169050919050565b600061064f82610abc565b90508073ffffffffffffffffffffffffffffffffffffffff168373ffffffffffffffffffffffffffffffffffffffff16036106bf576040517f08c379a00000000000000000000000000000000000000000000000000000000081526004016106b690612f41565b60405180910390fd5b8073ffffffffffffffffffffffffffffffffffffffff166106de611093565b73ffffffffffffffffffffffffffffffffffffffff16148061070d575061070c81610707611093565b610f17565b5b61074c576040517f08c379a000000000000000000000000000000000000000000000000000000000815260040161074390612fd3565b60405180910390fd5b610756838361109b565b505050565b6000609980549050905090565b610779610773611093565b82611154565b6107b8576040517f08c379a00000000000000000000000000000000000000000000000000000000081526004016107af90613065565b60405180910390fd5b6107c3838383611232565b505050565b60006107d383610b6d565b8210610814576040517f08c379a000000000000000000000000000000000000000000000000000000000815260040161080b906130f7565b60405180910390fd5b609760008473ffffffffffffffffffffffffffffffffffffffff1673ffffffffffffffffffffffffffffffffffffffff168152602001908152602001600020600083815260200190815260200160002054905092915050565b61088883838360405180602001604052806000815250610cf2565b505050565b60006108996001611498565b905080156108bd576001600060016101000a81548160ff0219169083151502179055505b61094f85858080601f016020809104026020016040519081016040528093929190818152602001838380828437600081840152601f19601f8201169050808301925050505050505084848080601f016020809104026020016040519081016040528093929190818152602001838380828437600081840152601f19601f82011690508083019250505050505050611588565b6109576115e5565b61095f611636565b3260fb60006101000a81548173ffffffffffffffffffffffffffffffffffffffff021916908373ffffffffffffffffffffffffffffffffffffffff1602179055503360fc60006101000a81548173ffffffffffffffffffffffffffffffffffffffff021916908373ffffffffffffffffffffffffffffffffffffffff1602179055506109eb60fd611687565b8015610a445760008060016101000a81548160ff0219169083151502179055507f7f26b83ff96e1f2b6a682f133852f6798a09c465da95921460cefb38474024986001604051610a3b9190613169565b60405180910390a15b5050505050565b6000610a5561075b565b8210610a96576040517f08c379a0000000000000000000000000000000000000000000000000000000008152600401610a8d906131f6565b60405180910390fd5b60998281548110610aaa57610aa9613216565b5b90600052602060002001549050919050565b6000806067600084815260200190815260200160002060009054906101000a900473ffffffffffffffffffffffffffffffffffffffff169050600073ffffffffffffffffffffffffffffffffffffffff168173ffffffffffffffffffffffffffffffffffffffff1603610b64576040517f08c379a0000000000000000000000000000000000000000000000000000000008152600401610b5b906132b7565b60405180910390fd5b80915050919050565b60008073ffffffffffffffffffffffffffffffffffffffff168273ffffffffffffffffffffffffffffffffffffffff1603610bdd576040517f08c379a0000000000000000000000000000000000000000000000000000000008152600401610bd490613349565b60405180910390fd5b606860008373ffffffffffffffffffffffffffffffffffffffff1673ffffffffffffffffffffffffffffffffffffffff168152602001908152602001600020549050919050565b606060668054610c3390612e0c565b80601f0160208091040260200160405190810160405280929190818152602001828054610c5f90612e0c565b8015610cac5780601f10610c8157610100808354040283529160200191610cac565b820191906000526020600020905b815481529060010190602001808311610c8f57829003601f168201915b5050505050905090565b610cc8610cc1611093565b838361169d565b5050565b60fc60009054906101000a900473ffffffffffffffffffffffffffffffffffffffff1681565b610d03610cfd611093565b83611154565b610d42576040517f08c379a0000000000000000000000000000000000000000000000000000000008152600401610d3990613065565b60405180910390fd5b610d4e84848484611809565b50505050565b6060610d5f82611865565b9050919050565b3373ffffffffffffffffffffffffffffffffffffffff1660fb60009054906101000a900473ffffffffffffffffffffffffffffffffffffffff1673ffffffffffffffffffffffffffffffffffffffff1614610df6576040517f08c379a0000000000000000000000000000000000000000000000000000000008152600401610ded906133db565b60405180910390fd5b6000610e0260fd6119b6565b9050610e3060fb60009054906101000a900473ffffffffffffffffffffffffffffffffffffffff16826119c4565b610e7e8184848080601f016020809104026020016040519081016040528093929190818152602001838380828437600081840152601f19601f82011690508083019250505050505050611b9d565b610e8860fd611687565b60fb60009054906101000a900473ffffffffffffffffffffffffffffffffffffffff1673ffffffffffffffffffffffffffffffffffffffff16813073ffffffffffffffffffffffffffffffffffffffff167ff8b1b480f3e90cec0b9871e75e1c6401bf4db0127701d88d80f0a9d0b39accf78686604051610f0a929190613428565b60405180910390a4505050565b600060fc60009054906101000a900473ffffffffffffffffffffffffffffffffffffffff1673ffffffffffffffffffffffffffffffffffffffff168273ffffffffffffffffffffffffffffffffffffffff1603610f775760019050610f84565b610f818383611c11565b90505b92915050565b6000808273ffffffffffffffffffffffffffffffffffffffff163b119050919050565b60007f780e9d63000000000000000000000000000000000000000000000000000000007bffffffffffffffffffffffffffffffffffffffffffffffffffffffff1916827bffffffffffffffffffffffffffffffffffffffffffffffffffffffff19161480611020575061101f82611ca5565b5b9050919050565b60008073ffffffffffffffffffffffffffffffffffffffff166067600084815260200190815260200160002060009054906101000a900473ffffffffffffffffffffffffffffffffffffffff1673ffffffffffffffffffffffffffffffffffffffff1614159050919050565b600033905090565b816069600083815260200190815260200160002060006101000a81548173ffffffffffffffffffffffffffffffffffffffff021916908373ffffffffffffffffffffffffffffffffffffffff160217905550808273ffffffffffffffffffffffffffffffffffffffff1661110e83610abc565b73ffffffffffffffffffffffffffffffffffffffff167f8c5be1e5ebec7d5bd14f71427d1e84f3dd0314c0f7b2291e5b200ac8c7c3b92560405160405180910390a45050565b600061115f82611027565b61119e576040517f08c379a0000000000000000000000000000000000000000000000000000000008152600401611195906134be565b60405180910390fd5b60006111a983610abc565b90508073ffffffffffffffffffffffffffffffffffffffff168473ffffffffffffffffffffffffffffffffffffffff1614806111eb57506111ea8185610f17565b5b8061122957508373ffffffffffffffffffffffffffffffffffffffff16611211846105bf565b73ffffffffffffffffffffffffffffffffffffffff16145b91505092915050565b8273ffffffffffffffffffffffffffffffffffffffff1661125282610abc565b73ffffffffffffffffffffffffffffffffffffffff16146112a8576040517f08c379a000000000000000000000000000000000000000000000000000000000815260040161129f90613550565b60405180910390fd5b600073ffffffffffffffffffffffffffffffffffffffff168273ffffffffffffffffffffffffffffffffffffffff1603611317576040517f08c379a000000000000000000000000000000000000000000000000000000000815260040161130e906135e2565b60405180910390fd5b611322838383611d87565b61132d60008261109b565b6001606860008573ffffffffffffffffffffffffffffffffffffffff1673ffffffffffffffffffffffffffffffffffffffff168152602001908152602001600020600082825461137d9190613631565b925050819055506001606860008473ffffffffffffffffffffffffffffffffffffffff1673ffffffffffffffffffffffffffffffffffffffff16815260200190815260200160002060008282546113d49190613665565b92505081905550816067600083815260200190815260200160002060006101000a81548173ffffffffffffffffffffffffffffffffffffffff021916908373ffffffffffffffffffffffffffffffffffffffff160217905550808273ffffffffffffffffffffffffffffffffffffffff168473ffffffffffffffffffffffffffffffffffffffff167fddf252ad1be2c89b69c2b068fc378daa952ba7f163c4a11628f55a4df523b3ef60405160405180910390a4611493838383611d97565b505050565b60008060019054906101000a900460ff161561150f5760018260ff161480156114c757506114c530610f8a565b155b611506576040517f08c379a00000000000000000000000000000000000000000000000000000000081526004016114fd9061372d565b60405180910390fd5b60009050611583565b8160ff1660008054906101000a900460ff1660ff1610611564576040517f08c379a000000000000000000000000000000000000000000000000000000000815260040161155b9061372d565b60405180910390fd5b816000806101000a81548160ff021916908360ff160217905550600190505b919050565b600060019054906101000a900460ff166115d7576040517f08c379a00000000000000000000000000000000000000000000000000000000081526004016115ce906137bf565b60405180910390fd5b6115e18282611d9c565b5050565b600060019054906101000a900460ff16611634576040517f08c379a000000000000000000000000000000000000000000000000000000000815260040161162b906137bf565b60405180910390fd5b565b600060019054906101000a900460ff16611685576040517f08c379a000000000000000000000000000000000000000000000000000000000815260040161167c906137bf565b60405180910390fd5b565b6001816000016000828254019250508190555050565b8173ffffffffffffffffffffffffffffffffffffffff168373ffffffffffffffffffffffffffffffffffffffff160361170b576040517f08c379a00000000000000000000000000000000000000000000000000000000081526004016117029061382b565b60405180910390fd5b80606a60008573ffffffffffffffffffffffffffffffffffffffff1673ffffffffffffffffffffffffffffffffffffffff16815260200190815260200160002060008473ffffffffffffffffffffffffffffffffffffffff1673ffffffffffffffffffffffffffffffffffffffff16815260200190815260200160002060006101000a81548160ff0219169083151502179055508173ffffffffffffffffffffffffffffffffffffffff168373ffffffffffffffffffffffffffffffffffffffff167f17307eab39ab6107e8899845ad3d59bd9653f200f220920489ca2b5937696c31836040516117fc91906127a0565b60405180910390a3505050565b611814848484611232565b61182084848484611e1d565b61185f576040517f08c379a0000000000000000000000000000000000000000000000000000000008152600401611856906138bd565b60405180910390fd5b50505050565b606061187082611027565b6118af576040517f08c379a00000000000000000000000000000000000000000000000000000000081526004016118a69061394f565b60405180910390fd5b600060c9600084815260200190815260200160002080546118cf90612e0c565b80601f01602080910402602001604051908101604052809291908181526020018280546118fb90612e0c565b80156119485780601f1061191d57610100808354040283529160200191611948565b820191906000526020600020905b81548152906001019060200180831161192b57829003601f168201915b505050505090506000611959611fa4565b9050600081510361196e5781925050506119b1565b6000825111156119a357808260405160200161198b9291906139ab565b604051602081830303815290604052925050506119b1565b6119ac84611fbb565b925050505b919050565b600081600001549050919050565b600073ffffffffffffffffffffffffffffffffffffffff168273ffffffffffffffffffffffffffffffffffffffff1603611a33576040517f08c379a0000000000000000000000000000000000000000000000000000000008152600401611a2a90613a1b565b60405180910390fd5b611a3c81611027565b15611a7c576040517f08c379a0000000000000000000000000000000000000000000000000000000008152600401611a7390613a87565b60405180910390fd5b611a8860008383611d87565b6001606860008473ffffffffffffffffffffffffffffffffffffffff1673ffffffffffffffffffffffffffffffffffffffff1681526020019081526020016000206000828254611ad89190613665565b92505081905550816067600083815260200190815260200160002060006101000a81548173ffffffffffffffffffffffffffffffffffffffff021916908373ffffffffffffffffffffffffffffffffffffffff160217905550808273ffffffffffffffffffffffffffffffffffffffff16600073ffffffffffffffffffffffffffffffffffffffff167fddf252ad1be2c89b69c2b068fc378daa952ba7f163c4a11628f55a4df523b3ef60405160405180910390a4611b9960008383611d97565b5050565b611ba682611027565b611be5576040517f08c379a0000000000000000000000000000000000000000000000000000000008152600401611bdc90613b19565b60405180910390fd5b8060c960008481526020019081526020016000209080519060200190611c0c929190612649565b505050565b6000606a60008473ffffffffffffffffffffffffffffffffffffffff1673ffffffffffffffffffffffffffffffffffffffff16815260200190815260200160002060008373ffffffffffffffffffffffffffffffffffffffff1673ffffffffffffffffffffffffffffffffffffffff16815260200190815260200160002060009054906101000a900460ff16905092915050565b60007f80ac58cd000000000000000000000000000000000000000000000000000000007bffffffffffffffffffffffffffffffffffffffffffffffffffffffff1916827bffffffffffffffffffffffffffffffffffffffffffffffffffffffff19161480611d7057507f5b5e139f000000000000000000000000000000000000000000000000000000007bffffffffffffffffffffffffffffffffffffffffffffffffffffffff1916827bffffffffffffffffffffffffffffffffffffffffffffffffffffffff1916145b80611d805750611d7f82612062565b5b9050919050565b611d928383836120cc565b505050565b505050565b600060019054906101000a900460ff16611deb576040517f08c379a0000000000000000000000000000000000000000000000000000000008152600401611de2906137bf565b60405180910390fd5b8160659080519060200190611e01929190612649565b508060669080519060200190611e18929190612649565b505050565b6000611e3e8473ffffffffffffffffffffffffffffffffffffffff16610f8a565b15611f97578373ffffffffffffffffffffffffffffffffffffffff1663150b7a02611e67611093565b8786866040518563ffffffff1660e01b8152600401611e899493929190613b8e565b6020604051808303816000875af1925050508015611ec557506040513d601f19601f82011682018060405250810190611ec29190613bef565b60015b611f47573d8060008114611ef5576040519150601f19603f3d011682016040523d82523d6000602084013e611efa565b606091505b506000815103611f3f576040517f08c379a0000000000000000000000000000000000000000000000000000000008152600401611f36906138bd565b60405180910390fd5b805181602001fd5b63150b7a0260e01b7bffffffffffffffffffffffffffffffffffffffffffffffffffffffff1916817bffffffffffffffffffffffffffffffffffffffffffffffffffffffff191614915050611f9c565b600190505b949350505050565b606060405180602001604052806000815250905090565b6060611fc682611027565b612005576040517f08c379a0000000000000000000000000000000000000000000000000000000008152600401611ffc90613c8e565b60405180910390fd5b600061200f611fa4565b9050600081511161202f576040518060200160405280600081525061205a565b80612039846121de565b60405160200161204a9291906139ab565b6040516020818303038152906040525b915050919050565b60007f01ffc9a7000000000000000000000000000000000000000000000000000000007bffffffffffffffffffffffffffffffffffffffffffffffffffffffff1916827bffffffffffffffffffffffffffffffffffffffffffffffffffffffff1916149050919050565b6120d783838361233e565b600073ffffffffffffffffffffffffffffffffffffffff168373ffffffffffffffffffffffffffffffffffffffff16036121195761211481612343565b612158565b8173ffffffffffffffffffffffffffffffffffffffff168373ffffffffffffffffffffffffffffffffffffffff161461215757612156838261238c565b5b5b600073ffffffffffffffffffffffffffffffffffffffff168273ffffffffffffffffffffffffffffffffffffffff160361219a57612195816124f9565b6121d9565b8273ffffffffffffffffffffffffffffffffffffffff168273ffffffffffffffffffffffffffffffffffffffff16146121d8576121d782826125ca565b5b5b505050565b606060008203612225576040518060400160405280600181526020017f30000000000000000000000000000000000000000000000000000000000000008152509050612339565b600082905060005b6000821461225757808061224090613cae565b915050600a826122509190613d25565b915061222d565b60008167ffffffffffffffff81111561227357612272612ba2565b5b6040519080825280601f01601f1916602001820160405280156122a55781602001600182028036833780820191505090505b5090505b60008514612332576001826122be9190613631565b9150600a856122cd9190613d56565b60306122d99190613665565b60f81b8183815181106122ef576122ee613216565b5b60200101907effffffffffffffffffffffffffffffffffffffffffffffffffffffffffffff1916908160001a905350600a8561232b9190613d25565b94506122a9565b8093505050505b919050565b505050565b609980549050609a600083815260200190815260200160002081905550609981908060018154018082558091505060019003906000526020600020016000909190919091505550565b6000600161239984610b6d565b6123a39190613631565b9050600060986000848152602001908152602001600020549050818114612488576000609760008673ffffffffffffffffffffffffffffffffffffffff1673ffffffffffffffffffffffffffffffffffffffff168152602001908152602001600020600084815260200190815260200160002054905080609760008773ffffffffffffffffffffffffffffffffffffffff1673ffffffffffffffffffffffffffffffffffffffff168152602001908152602001600020600084815260200190815260200160002081905550816098600083815260200190815260200160002081905550505b6098600084815260200190815260200160002060009055609760008573ffffffffffffffffffffffffffffffffffffffff1673ffffffffffffffffffffffffffffffffffffffff16815260200190815260200160002060008381526020019081526020016000206000905550505050565b6000600160998054905061250d9190613631565b90506000609a600084815260200190815260200160002054905060006099838154811061253d5761253c613216565b5b90600052602060002001549050806099838154811061255f5761255e613216565b5b906000526020600020018190555081609a600083815260200190815260200160002081905550609a60008581526020019081526020016000206000905560998054806125ae576125ad613d87565b5b6001900381819060005260206000200160009055905550505050565b60006125d583610b6d565b905081609760008573ffffffffffffffffffffffffffffffffffffffff1673ffffffffffffffffffffffffffffffffffffffff168152602001908152602001600020600083815260200190815260200160002081905550806098600084815260200190815260200160002081905550505050565b82805461265590612e0c565b90600052602060002090601f01602090048101928261267757600085556126be565b82601f1061269057805160ff19168380011785556126be565b828001600101855582156126be579182015b828111156126bd5782518255916020019190600101906126a2565b5b5090506126cb91906126cf565b5090565b5b808211156126e85760008160009055506001016126d0565b5090565b6000604051905090565b600080fd5b600080fd5b60007fffffffff0000000000000000000000000000000000000000000000000000000082169050919050565b61273581612700565b811461274057600080fd5b50565b6000813590506127528161272c565b92915050565b60006020828403121561276e5761276d6126f6565b5b600061277c84828501612743565b91505092915050565b60008115159050919050565b61279a81612785565b82525050565b60006020820190506127b56000830184612791565b92915050565b600073ffffffffffffffffffffffffffffffffffffffff82169050919050565b60006127e6826127bb565b9050919050565b6127f6816127db565b82525050565b600060208201905061281160008301846127ed565b92915050565b600081519050919050565b600082825260208201905092915050565b60005b83811015612851578082015181840152602081019050612836565b83811115612860576000848401525b50505050565b6000601f19601f8301169050919050565b600061288282612817565b61288c8185612822565b935061289c818560208601612833565b6128a581612866565b840191505092915050565b600060208201905081810360008301526128ca8184612877565b905092915050565b6000819050919050565b6128e5816128d2565b81146128f057600080fd5b50565b600081359050612902816128dc565b92915050565b60006020828403121561291e5761291d6126f6565b5b600061292c848285016128f3565b91505092915050565b61293e816127db565b811461294957600080fd5b50565b60008135905061295b81612935565b92915050565b60008060408385031215612978576129776126f6565b5b60006129868582860161294c565b9250506020612997858286016128f3565b9150509250929050565b6129aa816128d2565b82525050565b60006020820190506129c560008301846129a1565b92915050565b6000806000606084860312156129e4576129e36126f6565b5b60006129f28682870161294c565b9350506020612a038682870161294c565b9250506040612a14868287016128f3565b9150509250925092565b600080fd5b600080fd5b600080fd5b60008083601f840112612a4357612a42612a1e565b5b8235905067ffffffffffffffff811115612a6057612a5f612a23565b5b602083019150836001820283011115612a7c57612a7b612a28565b5b9250929050565b60008060008060408587031215612a9d57612a9c6126f6565b5b600085013567ffffffffffffffff811115612abb57612aba6126fb565b5b612ac787828801612a2d565b9450945050602085013567ffffffffffffffff811115612aea57612ae96126fb565b5b612af687828801612a2d565b925092505092959194509250565b600060208284031215612b1a57612b196126f6565b5b6000612b288482850161294c565b91505092915050565b612b3a81612785565b8114612b4557600080fd5b50565b600081359050612b5781612b31565b92915050565b60008060408385031215612b7457612b736126f6565b5b6000612b828582860161294c565b9250506020612b9385828601612b48565b9150509250929050565b600080fd5b7f4e487b7100000000000000000000000000000000000000000000000000000000600052604160045260246000fd5b612bda82612866565b810181811067ffffffffffffffff82111715612bf957612bf8612ba2565b5b80604052505050565b6000612c0c6126ec565b9050612c188282612bd1565b919050565b600067ffffffffffffffff821115612c3857612c37612ba2565b5b612c4182612866565b9050602081019050919050565b82818337600083830152505050565b6000612c70612c6b84612c1d565b612c02565b905082815260208101848484011115612c8c57612c8b612b9d565b5b612c97848285612c4e565b509392505050565b600082601f830112612cb457612cb3612a1e565b5b8135612cc4848260208601612c5d565b91505092915050565b60008060008060808587031215612ce757612ce66126f6565b5b6000612cf58782880161294c565b9450506020612d068782880161294c565b9350506040612d17878288016128f3565b925050606085013567ffffffffffffffff811115612d3857612d376126fb565b5b612d4487828801612c9f565b91505092959194509250565b60008060208385031215612d6757612d666126f6565b5b600083013567ffffffffffffffff811115612d8557612d846126fb565b5b612d9185828601612a2d565b92509250509250929050565b60008060408385031215612db457612db36126f6565b5b6000612dc28582860161294c565b9250506020612dd38582860161294c565b9150509250929050565b7f4e487b7100000000000000000000000000000000000000000000000000000000600052602260045260246000fd5b60006002820490506001821680612e2457607f821691505b602082108103612e3757612e36612ddd565b5b50919050565b7f4552433732313a20617070726f76656420717565727920666f72206e6f6e657860008201527f697374656e7420746f6b656e0000000000000000000000000000000000000000602082015250565b6000612e99602c83612822565b9150612ea482612e3d565b604082019050919050565b60006020820190508181036000830152612ec881612e8c565b9050919050565b7f4552433732313a20617070726f76616c20746f2063757272656e74206f776e6560008201527f7200000000000000000000000000000000000000000000000000000000000000602082015250565b6000612f2b602183612822565b9150612f3682612ecf565b604082019050919050565b60006020820190508181036000830152612f5a81612f1e565b9050919050565b7f4552433732313a20617070726f76652063616c6c6572206973206e6f74206f7760008201527f6e6572206e6f7220617070726f76656420666f7220616c6c0000000000000000602082015250565b6000612fbd603883612822565b9150612fc882612f61565b604082019050919050565b60006020820190508181036000830152612fec81612fb0565b9050919050565b7f4552433732313a207472616e736665722063616c6c6572206973206e6f74206f60008201527f776e6572206e6f7220617070726f766564000000000000000000000000000000602082015250565b600061304f603183612822565b915061305a82612ff3565b604082019050919050565b6000602082019050818103600083015261307e81613042565b9050919050565b7f455243373231456e756d657261626c653a206f776e657220696e646578206f7560008201527f74206f6620626f756e6473000000000000000000000000000000000000000000602082015250565b60006130e1602b83612822565b91506130ec82613085565b604082019050919050565b60006020820190508181036000830152613110816130d4565b9050919050565b6000819050919050565b600060ff82169050919050565b6000819050919050565b600061315361314e61314984613117565b61312e565b613121565b9050919050565b61316381613138565b82525050565b600060208201905061317e600083018461315a565b92915050565b7f455243373231456e756d657261626c653a20676c6f62616c20696e646578206f60008201527f7574206f6620626f756e64730000000000000000000000000000000000000000602082015250565b60006131e0602c83612822565b91506131eb82613184565b604082019050919050565b6000602082019050818103600083015261320f816131d3565b9050919050565b7f4e487b7100000000000000000000000000000000000000000000000000000000600052603260045260246000fd5b7f4552433732313a206f776e657220717565727920666f72206e6f6e657869737460008201527f656e7420746f6b656e0000000000000000000000000000000000000000000000602082015250565b60006132a1602983612822565b91506132ac82613245565b604082019050919050565b600060208201905081810360008301526132d081613294565b9050919050565b7f4552433732313a2062616c616e636520717565727920666f7220746865207a6560008201527f726f206164647265737300000000000000000000000000000000000000000000602082015250565b6000613333602a83612822565b915061333e826132d7565b604082019050919050565b6000602082019050818103600083015261336281613326565b9050919050565b7f5349474e4552204953204e4f54204e465420434f4c4c454354494f4e2041555460008201527f484f520000000000000000000000000000000000000000000000000000000000602082015250565b60006133c5602383612822565b91506133d082613369565b604082019050919050565b600060208201905081810360008301526133f4816133b8565b9050919050565b60006134078385612822565b9350613414838584612c4e565b61341d83612866565b840190509392505050565b600060208201905081810360008301526134438184866133fb565b90509392505050565b7f4552433732313a206f70657261746f7220717565727920666f72206e6f6e657860008201527f697374656e7420746f6b656e0000000000000000000000000000000000000000602082015250565b60006134a8602c83612822565b91506134b38261344c565b604082019050919050565b600060208201905081810360008301526134d78161349b565b9050919050565b7f4552433732313a207472616e736665722066726f6d20696e636f72726563742060008201527f6f776e6572000000000000000000000000000000000000000000000000000000602082015250565b600061353a602583612822565b9150613545826134de565b604082019050919050565b600060208201905081810360008301526135698161352d565b9050919050565b7f4552433732313a207472616e7366657220746f20746865207a65726f2061646460008201527f7265737300000000000000000000000000000000000000000000000000000000602082015250565b60006135cc602483612822565b91506135d782613570565b604082019050919050565b600060208201905081810360008301526135fb816135bf565b9050919050565b7f4e487b7100000000000000000000000000000000000000000000000000000000600052601160045260246000fd5b600061363c826128d2565b9150613647836128d2565b92508282101561365a57613659613602565b5b828203905092915050565b6000613670826128d2565b915061367b836128d2565b9250827fffffffffffffffffffffffffffffffffffffffffffffffffffffffffffffffff038211156136b0576136af613602565b5b828201905092915050565b7f496e697469616c697a61626c653a20636f6e747261637420697320616c72656160008201527f647920696e697469616c697a6564000000000000000000000000000000000000602082015250565b6000613717602e83612822565b9150613722826136bb565b604082019050919050565b600060208201905081810360008301526137468161370a565b9050919050565b7f496e697469616c697a61626c653a20636f6e7472616374206973206e6f74206960008201527f6e697469616c697a696e67000000000000000000000000000000000000000000602082015250565b60006137a9602b83612822565b91506137b48261374d565b604082019050919050565b600060208201905081810360008301526137d88161379c565b9050919050565b7f4552433732313a20617070726f766520746f2063616c6c657200000000000000600082015250565b6000613815601983612822565b9150613820826137df565b602082019050919050565b6000602082019050818103600083015261384481613808565b9050919050565b7f4552433732313a207472616e7366657220746f206e6f6e20455243373231526560008201527f63656976657220696d706c656d656e7465720000000000000000000000000000602082015250565b60006138a7603283612822565b91506138b28261384b565b604082019050919050565b600060208201905081810360008301526138d68161389a565b9050919050565b7f45524337323155524953746f726167653a2055524920717565727920666f722060008201527f6e6f6e6578697374656e7420746f6b656e000000000000000000000000000000602082015250565b6000613939603183612822565b9150613944826138dd565b604082019050919050565b600060208201905081810360008301526139688161392c565b9050919050565b600081905092915050565b600061398582612817565b61398f818561396f565b935061399f818560208601612833565b80840191505092915050565b60006139b7828561397a565b91506139c3828461397a565b91508190509392505050565b7f4552433732313a206d696e7420746f20746865207a65726f2061646472657373600082015250565b6000613a05602083612822565b9150613a10826139cf565b602082019050919050565b60006020820190508181036000830152613a34816139f8565b9050919050565b7f4552433732313a20746f6b656e20616c7265616479206d696e74656400000000600082015250565b6000613a71601c83612822565b9150613a7c82613a3b565b602082019050919050565b60006020820190508181036000830152613aa081613a64565b9050919050565b7f45524337323155524953746f726167653a2055524920736574206f66206e6f6e60008201527f6578697374656e7420746f6b656e000000000000000000000000000000000000602082015250565b6000613b03602e83612822565b9150613b0e82613aa7565b604082019050919050565b60006020820190508181036000830152613b3281613af6565b9050919050565b600081519050919050565b600082825260208201905092915050565b6000613b6082613b39565b613b6a8185613b44565b9350613b7a818560208601612833565b613b8381612866565b840191505092915050565b6000608082019050613ba360008301876127ed565b613bb060208301866127ed565b613bbd60408301856129a1565b8181036060830152613bcf8184613b55565b905095945050505050565b600081519050613be98161272c565b92915050565b600060208284031215613c0557613c046126f6565b5b6000613c1384828501613bda565b91505092915050565b7f4552433732314d657461646174613a2055524920717565727920666f72206e6f60008201527f6e6578697374656e7420746f6b656e0000000000000000000000000000000000602082015250565b6000613c78602f83612822565b9150613c8382613c1c565b604082019050919050565b60006020820190508181036000830152613ca781613c6b565b9050919050565b6000613cb9826128d2565b91507fffffffffffffffffffffffffffffffffffffffffffffffffffffffffffffffff8203613ceb57613cea613602565b5b600182019050919050565b7f4e487b7100000000000000000000000000000000000000000000000000000000600052601260045260246000fd5b6000613d30826128d2565b9150613d3b836128d2565b925082613d4b57613d4a613cf6565b5b828204905092915050565b6000613d61826128d2565b9150613d6c836128d2565b925082613d7c57613d7b613cf6565b5b828206905092915050565b7f4e487b7100000000000000000000000000000000000000000000000000000000600052603160045260246000fdfea2646970667358221220439e26a2c026d3cc79f1133d85819de380ec4cc54fbec1030ed3aa78dd945b1c64736f6c634300080d0033",
  "linkReferences": {},
  "deployedLinkReferences": {}
}