{
  "_format": "hh-sol-artifact-1",
  "contractName": "NFT",
  "sourceName": "contracts/NFT.sol",
  "abi": [
    {
      "inputs": [],
      "stateMutability": "nonpayable",
      "type": "constructor"
    },
    {
      "anonymous": false,
      "inputs": [
        {
          "indexed": true,
          "internalType": "address",
          "name": "owner",
          "type": "address"
        },
        {
          "indexed": true,
          "internalType": "address",
          "name": "approved",
          "type": "address"
        },
        {
          "indexed": true,
          "internalType": "uint256",
          "name": "tokenId",
          "type": "uint256"
        }
      ],
      "name": "Approval",
      "type": "event"
    },
    {
      "anonymous": false,
      "inputs": [
        {
          "indexed": true,
          "internalType": "address",
          "name": "owner",
          "type": "address"
        },
        {
          "indexed": true,
          "internalType": "address",
          "name": "operator",
          "type": "address"
        },
        {
          "indexed": false,
          "internalType": "bool",
          "name": "approved",
          "type": "bool"
        }
      ],
      "name": "ApprovalForAll",
      "type": "event"
    },
    {
      "anonymous": false,
      "inputs": [
        {
          "indexed": false,
          "internalType": "uint8",
          "name": "version",
          "type": "uint8"
        }
      ],
      "name": "Initialized",
      "type": "event"
    },
    {
      "anonymous": false,
      "inputs": [
        {
          "indexed": true,
          "internalType": "address",
          "name": "nftContractAddress",
          "type": "address"
        },
        {
          "indexed": true,
          "internalType": "uint256",
          "name": "tokenId",
          "type": "uint256"
        },
        {
          "indexed": true,
          "internalType": "address",
          "name": "mintedTo",
          "type": "address"
        },
        {
          "indexed": false,
          "internalType": "string",
          "name": "tokenUri",
          "type": "string"
        }
      ],
      "name": "NFTMinted",
      "type": "event"
    },
    {
      "anonymous": false,
      "inputs": [
        {
          "indexed": true,
          "internalType": "address",
          "name": "from",
          "type": "address"
        },
        {
          "indexed": true,
          "internalType": "address",
          "name": "to",
          "type": "address"
        },
        {
          "indexed": true,
          "internalType": "uint256",
          "name": "tokenId",
          "type": "uint256"
        }
      ],
      "name": "Transfer",
      "type": "event"
    },
    {
      "inputs": [
        {
          "internalType": "address",
          "name": "to",
          "type": "address"
        },
        {
          "internalType": "uint256",
          "name": "tokenId",
          "type": "uint256"
        }
      ],
      "name": "approve",
      "outputs": [],
      "stateMutability": "nonpayable",
      "type": "function"
    },
    {
      "inputs": [],
      "name": "authorAddress",
      "outputs": [
        {
          "internalType": "address",
          "name": "",
          "type": "address"
        }
      ],
      "stateMutability": "view",
      "type": "function"
    },
    {
      "inputs": [
        {
          "internalType": "address",
          "name": "owner",
          "type": "address"
        }
      ],
      "name": "balanceOf",
      "outputs": [
        {
          "internalType": "uint256",
          "name": "",
          "type": "uint256"
        }
      ],
      "stateMutability": "view",
      "type": "function"
    },
    {
      "inputs": [],
      "name": "description",
      "outputs": [
        {
          "internalType": "string",
          "name": "",
          "type": "string"
        }
      ],
      "stateMutability": "view",
      "type": "function"
    },
    {
      "inputs": [
        {
          "internalType": "uint256",
          "name": "tokenId",
          "type": "uint256"
        }
      ],
      "name": "getApproved",
      "outputs": [
        {
          "internalType": "address",
          "name": "",
          "type": "address"
        }
      ],
      "stateMutability": "view",
      "type": "function"
    },
    {
      "inputs": [
        {
          "internalType": "string",
          "name": "_name",
          "type": "string"
        },
        {
          "internalType": "string",
          "name": "_symbol",
          "type": "string"
        },
        {
          "internalType": "string",
          "name": "_description",
          "type": "string"
        }
      ],
      "name": "initialize",
      "outputs": [],
      "stateMutability": "payable",
      "type": "function"
    },
    {
      "inputs": [
        {
          "internalType": "address",
          "name": "owner",
          "type": "address"
        },
        {
          "internalType": "address",
          "name": "operator",
          "type": "address"
        }
      ],
      "name": "isApprovedForAll",
      "outputs": [
        {
          "internalType": "bool",
          "name": "",
          "type": "bool"
        }
      ],
      "stateMutability": "view",
      "type": "function"
    },
    {
      "inputs": [
        {
          "internalType": "string",
          "name": "_metadataUri",
          "type": "string"
        }
      ],
      "name": "mintNft",
      "outputs": [],
      "stateMutability": "nonpayable",
      "type": "function"
    },
    {
      "inputs": [],
      "name": "name",
      "outputs": [
        {
          "internalType": "string",
          "name": "",
          "type": "string"
        }
      ],
      "stateMutability": "view",
      "type": "function"
    },
    {
      "inputs": [
        {
          "internalType": "uint256",
          "name": "tokenId",
          "type": "uint256"
        }
      ],
      "name": "ownerOf",
      "outputs": [
        {
          "internalType": "address",
          "name": "",
          "type": "address"
        }
      ],
      "stateMutability": "view",
      "type": "function"
    },
    {
      "inputs": [
        {
          "internalType": "address",
          "name": "from",
          "type": "address"
        },
        {
          "internalType": "address",
          "name": "to",
          "type": "address"
        },
        {
          "internalType": "uint256",
          "name": "tokenId",
          "type": "uint256"
        }
      ],
      "name": "safeTransferFrom",
      "outputs": [],
      "stateMutability": "nonpayable",
      "type": "function"
    },
    {
      "inputs": [
        {
          "internalType": "address",
          "name": "from",
          "type": "address"
        },
        {
          "internalType": "address",
          "name": "to",
          "type": "address"
        },
        {
          "internalType": "uint256",
          "name": "tokenId",
          "type": "uint256"
        },
        {
          "internalType": "bytes",
          "name": "_data",
          "type": "bytes"
        }
      ],
      "name": "safeTransferFrom",
      "outputs": [],
      "stateMutability": "nonpayable",
      "type": "function"
    },
    {
      "inputs": [
        {
          "internalType": "address",
          "name": "operator",
          "type": "address"
        },
        {
          "internalType": "bool",
          "name": "approved",
          "type": "bool"
        }
      ],
      "name": "setApprovalForAll",
      "outputs": [],
      "stateMutability": "nonpayable",
      "type": "function"
    },
    {
      "inputs": [
        {
          "internalType": "bytes4",
          "name": "interfaceId",
          "type": "bytes4"
        }
      ],
      "name": "supportsInterface",
      "outputs": [
        {
          "internalType": "bool",
          "name": "",
          "type": "bool"
        }
      ],
      "stateMutability": "view",
      "type": "function"
    },
    {
      "inputs": [],
      "name": "symbol",
      "outputs": [
        {
          "internalType": "string",
          "name": "",
          "type": "string"
        }
      ],
      "stateMutability": "view",
      "type": "function"
    },
    {
      "inputs": [
        {
          "internalType": "uint256",
          "name": "index",
          "type": "uint256"
        }
      ],
      "name": "tokenByIndex",
      "outputs": [
        {
          "internalType": "uint256",
          "name": "",
          "type": "uint256"
        }
      ],
      "stateMutability": "view",
      "type": "function"
    },
    {
      "inputs": [
        {
          "internalType": "address",
          "name": "owner",
          "type": "address"
        },
        {
          "internalType": "uint256",
          "name": "index",
          "type": "uint256"
        }
      ],
      "name": "tokenOfOwnerByIndex",
      "outputs": [
        {
          "internalType": "uint256",
          "name": "",
          "type": "uint256"
        }
      ],
      "stateMutability": "view",
      "type": "function"
    },
    {
      "inputs": [
        {
          "internalType": "uint256",
          "name": "tokenId",
          "type": "uint256"
        }
      ],
      "name": "tokenURI",
      "outputs": [
        {
          "internalType": "string",
          "name": "",
          "type": "string"
        }
      ],
      "stateMutability": "view",
      "type": "function"
    },
    {
      "inputs": [],
      "name": "totalSupply",
      "outputs": [
        {
          "internalType": "uint256",
          "name": "",
          "type": "uint256"
        }
      ],
      "stateMutability": "view",
      "type": "function"
    },
    {
      "inputs": [
        {
          "internalType": "address",
          "name": "from",
          "type": "address"
        },
        {
          "internalType": "address",
          "name": "to",
          "type": "address"
        },
        {
          "internalType": "uint256",
          "name": "tokenId",
          "type": "uint256"
        }
      ],
      "name": "transferFrom",
      "outputs": [],
      "stateMutability": "nonpayable",
      "type": "function"
    }
  ],
  "bytecode": "0x60806040523480156200001157600080fd5b506000620000266001620000ae60201b60201c565b905080156200004b576001600060016101000a81548160ff0219169083151502179055505b8015620000a75760008060016101000a81548160ff0219169083151502179055507f7f26b83ff96e1f2b6a682f133852f6798a09c465da95921460cefb384740249860016040516200009e919062000231565b60405180910390a15b50620002f7565b60008060019054906101000a900460ff1615620001385760018260ff16148015620000ec5750620000ea30620001b460201b62000fe61760201c565b155b6200012e576040517f08c379a00000000000000000000000000000000000000000000000000000000081526004016200012590620002d5565b60405180910390fd5b60009050620001af565b8160ff1660008054906101000a900460ff1660ff161062000190576040517f08c379a00000000000000000000000000000000000000000000000000000000081526004016200018790620002d5565b60405180910390fd5b816000806101000a81548160ff021916908360ff160217905550600190505b919050565b6000808273ffffffffffffffffffffffffffffffffffffffff163b119050919050565b6000819050919050565b600060ff82169050919050565b6000819050919050565b600062000219620002136200020d84620001d7565b620001ee565b620001e1565b9050919050565b6200022b81620001f8565b82525050565b600060208201905062000248600083018462000220565b92915050565b600082825260208201905092915050565b7f496e697469616c697a61626c653a20636f6e747261637420697320616c72656160008201527f647920696e697469616c697a6564000000000000000000000000000000000000602082015250565b6000620002bd602e836200024e565b9150620002ca826200025f565b604082019050919050565b60006020820190508181036000830152620002f081620002ae565b9050919050565b613e6d80620003076000396000f3fe60806040526004361061011f5760003560e01c80636352211e116100a0578063a6487c5311610064578063a6487c531461040d578063b88d4fde14610429578063c87b56dd14610452578063da86f4a91461048f578063e985e9c5146104b85761011f565b80636352211e1461031457806370a08231146103515780637284e4161461038e57806395d89b41146103b9578063a22cb465146103e45761011f565b806318160ddd116100e757806318160ddd1461021d57806323b872dd146102485780632f745c591461027157806342842e0e146102ae5780634f6ccce7146102d75761011f565b806301ffc9a71461012457806302a867811461016157806306fdde031461018c578063081812fc146101b7578063095ea7b3146101f4575b600080fd5b34801561013057600080fd5b5061014b600480360381019061014691906127a6565b6104f5565b60405161015891906127ee565b60405180910390f35b34801561016d57600080fd5b50610176610507565b604051610183919061284a565b60405180910390f35b34801561019857600080fd5b506101a161052d565b6040516101ae91906128fe565b60405180910390f35b3480156101c357600080fd5b506101de60048036038101906101d99190612956565b6105bf565b6040516101eb919061284a565b60405180910390f35b34801561020057600080fd5b5061021b600480360381019061021691906129af565b610644565b005b34801561022957600080fd5b5061023261075b565b60405161023f91906129fe565b60405180910390f35b34801561025457600080fd5b5061026f600480360381019061026a9190612a19565b610768565b005b34801561027d57600080fd5b50610298600480360381019061029391906129af565b6107c8565b6040516102a591906129fe565b60405180910390f35b3480156102ba57600080fd5b506102d560048036038101906102d09190612a19565b61086d565b005b3480156102e357600080fd5b506102fe60048036038101906102f99190612956565b61088d565b60405161030b91906129fe565b60405180910390f35b34801561032057600080fd5b5061033b60048036038101906103369190612956565b6108fe565b604051610348919061284a565b60405180910390f35b34801561035d57600080fd5b5061037860048036038101906103739190612a6c565b6109af565b60405161038591906129fe565b60405180910390f35b34801561039a57600080fd5b506103a3610a66565b6040516103b091906128fe565b60405180910390f35b3480156103c557600080fd5b506103ce610af4565b6040516103db91906128fe565b60405180910390f35b3480156103f057600080fd5b5061040b60048036038101906104069190612ac5565b610b86565b005b61042760048036038101906104229190612b6a565b610b9c565b005b34801561043557600080fd5b50610450600480360381019061044b9190612d4e565b610d2d565b005b34801561045e57600080fd5b5061047960048036038101906104749190612956565b610d8f565b60405161048691906128fe565b60405180910390f35b34801561049b57600080fd5b506104b660048036038101906104b19190612dd1565b610da1565b005b3480156104c457600080fd5b506104df60048036038101906104da9190612e1e565b610f52565b6040516104ec91906127ee565b60405180910390f35b600061050082611009565b9050919050565b60fb60009054906101000a900473ffffffffffffffffffffffffffffffffffffffff1681565b60606065805461053c90612e8d565b80601f016020809104026020016040519081016040528092919081815260200182805461056890612e8d565b80156105b55780601f1061058a576101008083540402835291602001916105b5565b820191906000526020600020905b81548152906001019060200180831161059857829003601f168201915b5050505050905090565b60006105ca82611083565b610609576040517f08c379a000000000000000000000000000000000000000000000000000000000815260040161060090612f30565b60405180910390fd5b6069600083815260200190815260200160002060009054906101000a900473ffffffffffffffffffffffffffffffffffffffff169050919050565b600061064f826108fe565b90508073ffffffffffffffffffffffffffffffffffffffff168373ffffffffffffffffffffffffffffffffffffffff16036106bf576040517f08c379a00000000000000000000000000000000000000000000000000000000081526004016106b690612fc2565b60405180910390fd5b8073ffffffffffffffffffffffffffffffffffffffff166106de6110ef565b73ffffffffffffffffffffffffffffffffffffffff16148061070d575061070c816107076110ef565b610f52565b5b61074c576040517f08c379a000000000000000000000000000000000000000000000000000000000815260040161074390613054565b60405180910390fd5b61075683836110f7565b505050565b6000609980549050905090565b6107796107736110ef565b826111b0565b6107b8576040517f08c379a00000000000000000000000000000000000000000000000000000000081526004016107af906130e6565b60405180910390fd5b6107c383838361128e565b505050565b60006107d3836109af565b8210610814576040517f08c379a000000000000000000000000000000000000000000000000000000000815260040161080b90613178565b60405180910390fd5b609760008473ffffffffffffffffffffffffffffffffffffffff1673ffffffffffffffffffffffffffffffffffffffff168152602001908152602001600020600083815260200190815260200160002054905092915050565b61088883838360405180602001604052806000815250610d2d565b505050565b600061089761075b565b82106108d8576040517f08c379a00000000000000000000000000000000000000000000000000000000081526004016108cf9061320a565b60405180910390fd5b609982815481106108ec576108eb61322a565b5b90600052602060002001549050919050565b6000806067600084815260200190815260200160002060009054906101000a900473ffffffffffffffffffffffffffffffffffffffff169050600073ffffffffffffffffffffffffffffffffffffffff168173ffffffffffffffffffffffffffffffffffffffff16036109a6576040517f08c379a000000000000000000000000000000000000000000000000000000000815260040161099d906132cb565b60405180910390fd5b80915050919050565b60008073ffffffffffffffffffffffffffffffffffffffff168273ffffffffffffffffffffffffffffffffffffffff1603610a1f576040517f08c379a0000000000000000000000000000000000000000000000000000000008152600401610a169061335d565b60405180910390fd5b606860008373ffffffffffffffffffffffffffffffffffffffff1673ffffffffffffffffffffffffffffffffffffffff168152602001908152602001600020549050919050565b60fc8054610a7390612e8d565b80601f0160208091040260200160405190810160405280929190818152602001828054610a9f90612e8d565b8015610aec5780601f10610ac157610100808354040283529160200191610aec565b820191906000526020600020905b815481529060010190602001808311610acf57829003601f168201915b505050505081565b606060668054610b0390612e8d565b80601f0160208091040260200160405190810160405280929190818152602001828054610b2f90612e8d565b8015610b7c5780601f10610b5157610100808354040283529160200191610b7c565b820191906000526020600020905b815481529060010190602001808311610b5f57829003601f168201915b5050505050905090565b610b98610b916110ef565b83836114f4565b5050565b6000610ba86001611660565b90508015610bcc576001600060016101000a81548160ff0219169083151502179055505b610c5e87878080601f016020809104026020016040519081016040528093929190818152602001838380828437600081840152601f19601f8201169050808301925050505050505086868080601f016020809104026020016040519081016040528093929190818152602001838380828437600081840152601f19601f82011690508083019250505050505050611750565b610c666117ad565b610c6e6117fe565b3260fb60006101000a81548173ffffffffffffffffffffffffffffffffffffffff021916908373ffffffffffffffffffffffffffffffffffffffff160217905550828260fc9190610cc0929190612611565b50610ccb60fd61184f565b8015610d245760008060016101000a81548160ff0219169083151502179055507f7f26b83ff96e1f2b6a682f133852f6798a09c465da95921460cefb38474024986001604051610d1b91906133cf565b60405180910390a15b50505050505050565b610d3e610d386110ef565b836111b0565b610d7d576040517f08c379a0000000000000000000000000000000000000000000000000000000008152600401610d74906130e6565b60405180910390fd5b610d8984848484611865565b50505050565b6060610d9a826118c1565b9050919050565b3373ffffffffffffffffffffffffffffffffffffffff1660fb60009054906101000a900473ffffffffffffffffffffffffffffffffffffffff1673ffffffffffffffffffffffffffffffffffffffff1614610e31576040517f08c379a0000000000000000000000000000000000000000000000000000000008152600401610e289061345c565b60405180910390fd5b6000610e3d60fd611a12565b9050610e6b60fb60009054906101000a900473ffffffffffffffffffffffffffffffffffffffff1682611a20565b610eb98184848080601f016020809104026020016040519081016040528093929190818152602001838380828437600081840152601f19601f82011690508083019250505050505050611bf9565b610ec360fd61184f565b60fb60009054906101000a900473ffffffffffffffffffffffffffffffffffffffff1673ffffffffffffffffffffffffffffffffffffffff16813073ffffffffffffffffffffffffffffffffffffffff167f65377b009806411af39a50d0b0f3385ec2ffa78093a832ec03af2b50637e3fe78686604051610f459291906134a9565b60405180910390a4505050565b6000606a60008473ffffffffffffffffffffffffffffffffffffffff1673ffffffffffffffffffffffffffffffffffffffff16815260200190815260200160002060008373ffffffffffffffffffffffffffffffffffffffff1673ffffffffffffffffffffffffffffffffffffffff16815260200190815260200160002060009054906101000a900460ff16905092915050565b6000808273ffffffffffffffffffffffffffffffffffffffff163b119050919050565b60007f780e9d63000000000000000000000000000000000000000000000000000000007bffffffffffffffffffffffffffffffffffffffffffffffffffffffff1916827bffffffffffffffffffffffffffffffffffffffffffffffffffffffff1916148061107c575061107b82611c6d565b5b9050919050565b60008073ffffffffffffffffffffffffffffffffffffffff166067600084815260200190815260200160002060009054906101000a900473ffffffffffffffffffffffffffffffffffffffff1673ffffffffffffffffffffffffffffffffffffffff1614159050919050565b600033905090565b816069600083815260200190815260200160002060006101000a81548173ffffffffffffffffffffffffffffffffffffffff021916908373ffffffffffffffffffffffffffffffffffffffff160217905550808273ffffffffffffffffffffffffffffffffffffffff1661116a836108fe565b73ffffffffffffffffffffffffffffffffffffffff167f8c5be1e5ebec7d5bd14f71427d1e84f3dd0314c0f7b2291e5b200ac8c7c3b92560405160405180910390a45050565b60006111bb82611083565b6111fa576040517f08c379a00000000000000000000000000000000000000000000000000000000081526004016111f19061353f565b60405180910390fd5b6000611205836108fe565b90508073ffffffffffffffffffffffffffffffffffffffff168473ffffffffffffffffffffffffffffffffffffffff16148061124757506112468185610f52565b5b8061128557508373ffffffffffffffffffffffffffffffffffffffff1661126d846105bf565b73ffffffffffffffffffffffffffffffffffffffff16145b91505092915050565b8273ffffffffffffffffffffffffffffffffffffffff166112ae826108fe565b73ffffffffffffffffffffffffffffffffffffffff1614611304576040517f08c379a00000000000000000000000000000000000000000000000000000000081526004016112fb906135d1565b60405180910390fd5b600073ffffffffffffffffffffffffffffffffffffffff168273ffffffffffffffffffffffffffffffffffffffff1603611373576040517f08c379a000000000000000000000000000000000000000000000000000000000815260040161136a90613663565b60405180910390fd5b61137e838383611d4f565b6113896000826110f7565b6001606860008573ffffffffffffffffffffffffffffffffffffffff1673ffffffffffffffffffffffffffffffffffffffff16815260200190815260200160002060008282546113d991906136b2565b925050819055506001606860008473ffffffffffffffffffffffffffffffffffffffff1673ffffffffffffffffffffffffffffffffffffffff168152602001908152602001600020600082825461143091906136e6565b92505081905550816067600083815260200190815260200160002060006101000a81548173ffffffffffffffffffffffffffffffffffffffff021916908373ffffffffffffffffffffffffffffffffffffffff160217905550808273ffffffffffffffffffffffffffffffffffffffff168473ffffffffffffffffffffffffffffffffffffffff167fddf252ad1be2c89b69c2b068fc378daa952ba7f163c4a11628f55a4df523b3ef60405160405180910390a46114ef838383611d5f565b505050565b8173ffffffffffffffffffffffffffffffffffffffff168373ffffffffffffffffffffffffffffffffffffffff1603611562576040517f08c379a000000000000000000000000000000000000000000000000000000000815260040161155990613788565b60405180910390fd5b80606a60008573ffffffffffffffffffffffffffffffffffffffff1673ffffffffffffffffffffffffffffffffffffffff16815260200190815260200160002060008473ffffffffffffffffffffffffffffffffffffffff1673ffffffffffffffffffffffffffffffffffffffff16815260200190815260200160002060006101000a81548160ff0219169083151502179055508173ffffffffffffffffffffffffffffffffffffffff168373ffffffffffffffffffffffffffffffffffffffff167f17307eab39ab6107e8899845ad3d59bd9653f200f220920489ca2b5937696c318360405161165391906127ee565b60405180910390a3505050565b60008060019054906101000a900460ff16156116d75760018260ff1614801561168f575061168d30610fe6565b155b6116ce576040517f08c379a00000000000000000000000000000000000000000000000000000000081526004016116c59061381a565b60405180910390fd5b6000905061174b565b8160ff1660008054906101000a900460ff1660ff161061172c576040517f08c379a00000000000000000000000000000000000000000000000000000000081526004016117239061381a565b60405180910390fd5b816000806101000a81548160ff021916908360ff160217905550600190505b919050565b600060019054906101000a900460ff1661179f576040517f08c379a0000000000000000000000000000000000000000000000000000000008152600401611796906138ac565b60405180910390fd5b6117a98282611d64565b5050565b600060019054906101000a900460ff166117fc576040517f08c379a00000000000000000000000000000000000000000000000000000000081526004016117f3906138ac565b60405180910390fd5b565b600060019054906101000a900460ff1661184d576040517f08c379a0000000000000000000000000000000000000000000000000000000008152600401611844906138ac565b60405180910390fd5b565b6001816000016000828254019250508190555050565b61187084848461128e565b61187c84848484611de5565b6118bb576040517f08c379a00000000000000000000000000000000000000000000000000000000081526004016118b29061393e565b60405180910390fd5b50505050565b60606118cc82611083565b61190b576040517f08c379a0000000000000000000000000000000000000000000000000000000008152600401611902906139d0565b60405180910390fd5b600060c96000848152602001908152602001600020805461192b90612e8d565b80601f016020809104026020016040519081016040528092919081815260200182805461195790612e8d565b80156119a45780601f10611979576101008083540402835291602001916119a4565b820191906000526020600020905b81548152906001019060200180831161198757829003601f168201915b5050505050905060006119b5611f6c565b905060008151036119ca578192505050611a0d565b6000825111156119ff5780826040516020016119e7929190613a2c565b60405160208183030381529060405292505050611a0d565b611a0884611f83565b925050505b919050565b600081600001549050919050565b600073ffffffffffffffffffffffffffffffffffffffff168273ffffffffffffffffffffffffffffffffffffffff1603611a8f576040517f08c379a0000000000000000000000000000000000000000000000000000000008152600401611a8690613a9c565b60405180910390fd5b611a9881611083565b15611ad8576040517f08c379a0000000000000000000000000000000000000000000000000000000008152600401611acf90613b08565b60405180910390fd5b611ae460008383611d4f565b6001606860008473ffffffffffffffffffffffffffffffffffffffff1673ffffffffffffffffffffffffffffffffffffffff1681526020019081526020016000206000828254611b3491906136e6565b92505081905550816067600083815260200190815260200160002060006101000a81548173ffffffffffffffffffffffffffffffffffffffff021916908373ffffffffffffffffffffffffffffffffffffffff160217905550808273ffffffffffffffffffffffffffffffffffffffff16600073ffffffffffffffffffffffffffffffffffffffff167fddf252ad1be2c89b69c2b068fc378daa952ba7f163c4a11628f55a4df523b3ef60405160405180910390a4611bf560008383611d5f565b5050565b611c0282611083565b611c41576040517f08c379a0000000000000000000000000000000000000000000000000000000008152600401611c3890613b9a565b60405180910390fd5b8060c960008481526020019081526020016000209080519060200190611c68929190612697565b505050565b60007f80ac58cd000000000000000000000000000000000000000000000000000000007bffffffffffffffffffffffffffffffffffffffffffffffffffffffff1916827bffffffffffffffffffffffffffffffffffffffffffffffffffffffff19161480611d3857507f5b5e139f000000000000000000000000000000000000000000000000000000007bffffffffffffffffffffffffffffffffffffffffffffffffffffffff1916827bffffffffffffffffffffffffffffffffffffffffffffffffffffffff1916145b80611d485750611d478261202a565b5b9050919050565b611d5a838383612094565b505050565b505050565b600060019054906101000a900460ff16611db3576040517f08c379a0000000000000000000000000000000000000000000000000000000008152600401611daa906138ac565b60405180910390fd5b8160659080519060200190611dc9929190612697565b508060669080519060200190611de0929190612697565b505050565b6000611e068473ffffffffffffffffffffffffffffffffffffffff16610fe6565b15611f5f578373ffffffffffffffffffffffffffffffffffffffff1663150b7a02611e2f6110ef565b8786866040518563ffffffff1660e01b8152600401611e519493929190613c0f565b6020604051808303816000875af1925050508015611e8d57506040513d601f19601f82011682018060405250810190611e8a9190613c70565b60015b611f0f573d8060008114611ebd576040519150601f19603f3d011682016040523d82523d6000602084013e611ec2565b606091505b506000815103611f07576040517f08c379a0000000000000000000000000000000000000000000000000000000008152600401611efe9061393e565b60405180910390fd5b805181602001fd5b63150b7a0260e01b7bffffffffffffffffffffffffffffffffffffffffffffffffffffffff1916817bffffffffffffffffffffffffffffffffffffffffffffffffffffffff191614915050611f64565b600190505b949350505050565b606060405180602001604052806000815250905090565b6060611f8e82611083565b611fcd576040517f08c379a0000000000000000000000000000000000000000000000000000000008152600401611fc490613d0f565b60405180910390fd5b6000611fd7611f6c565b90506000815111611ff75760405180602001604052806000815250612022565b80612001846121a6565b604051602001612012929190613a2c565b6040516020818303038152906040525b915050919050565b60007f01ffc9a7000000000000000000000000000000000000000000000000000000007bffffffffffffffffffffffffffffffffffffffffffffffffffffffff1916827bffffffffffffffffffffffffffffffffffffffffffffffffffffffff1916149050919050565b61209f838383612306565b600073ffffffffffffffffffffffffffffffffffffffff168373ffffffffffffffffffffffffffffffffffffffff16036120e1576120dc8161230b565b612120565b8173ffffffffffffffffffffffffffffffffffffffff168373ffffffffffffffffffffffffffffffffffffffff161461211f5761211e8382612354565b5b5b600073ffffffffffffffffffffffffffffffffffffffff168273ffffffffffffffffffffffffffffffffffffffff16036121625761215d816124c1565b6121a1565b8273ffffffffffffffffffffffffffffffffffffffff168273ffffffffffffffffffffffffffffffffffffffff16146121a05761219f8282612592565b5b5b505050565b6060600082036121ed576040518060400160405280600181526020017f30000000000000000000000000000000000000000000000000000000000000008152509050612301565b600082905060005b6000821461221f57808061220890613d2f565b915050600a826122189190613da6565b91506121f5565b60008167ffffffffffffffff81111561223b5761223a612c23565b5b6040519080825280601f01601f19166020018201604052801561226d5781602001600182028036833780820191505090505b5090505b600085146122fa5760018261228691906136b2565b9150600a856122959190613dd7565b60306122a191906136e6565b60f81b8183815181106122b7576122b661322a565b5b60200101907effffffffffffffffffffffffffffffffffffffffffffffffffffffffffffff1916908160001a905350600a856122f39190613da6565b9450612271565b8093505050505b919050565b505050565b609980549050609a600083815260200190815260200160002081905550609981908060018154018082558091505060019003906000526020600020016000909190919091505550565b60006001612361846109af565b61236b91906136b2565b9050600060986000848152602001908152602001600020549050818114612450576000609760008673ffffffffffffffffffffffffffffffffffffffff1673ffffffffffffffffffffffffffffffffffffffff168152602001908152602001600020600084815260200190815260200160002054905080609760008773ffffffffffffffffffffffffffffffffffffffff1673ffffffffffffffffffffffffffffffffffffffff168152602001908152602001600020600084815260200190815260200160002081905550816098600083815260200190815260200160002081905550505b6098600084815260200190815260200160002060009055609760008573ffffffffffffffffffffffffffffffffffffffff1673ffffffffffffffffffffffffffffffffffffffff16815260200190815260200160002060008381526020019081526020016000206000905550505050565b600060016099805490506124d591906136b2565b90506000609a60008481526020019081526020016000205490506000609983815481106125055761250461322a565b5b9060005260206000200154905080609983815481106125275761252661322a565b5b906000526020600020018190555081609a600083815260200190815260200160002081905550609a600085815260200190815260200160002060009055609980548061257657612575613e08565b5b6001900381819060005260206000200160009055905550505050565b600061259d836109af565b905081609760008573ffffffffffffffffffffffffffffffffffffffff1673ffffffffffffffffffffffffffffffffffffffff168152602001908152602001600020600083815260200190815260200160002081905550806098600084815260200190815260200160002081905550505050565b82805461261d90612e8d565b90600052602060002090601f01602090048101928261263f5760008555612686565b82601f1061265857803560ff1916838001178555612686565b82800160010185558215612686579182015b8281111561268557823582559160200191906001019061266a565b5b509050612693919061271d565b5090565b8280546126a390612e8d565b90600052602060002090601f0160209004810192826126c5576000855561270c565b82601f106126de57805160ff191683800117855561270c565b8280016001018555821561270c579182015b8281111561270b5782518255916020019190600101906126f0565b5b509050612719919061271d565b5090565b5b8082111561273657600081600090555060010161271e565b5090565b6000604051905090565b600080fd5b600080fd5b60007fffffffff0000000000000000000000000000000000000000000000000000000082169050919050565b6127838161274e565b811461278e57600080fd5b50565b6000813590506127a08161277a565b92915050565b6000602082840312156127bc576127bb612744565b5b60006127ca84828501612791565b91505092915050565b60008115159050919050565b6127e8816127d3565b82525050565b600060208201905061280360008301846127df565b92915050565b600073ffffffffffffffffffffffffffffffffffffffff82169050919050565b600061283482612809565b9050919050565b61284481612829565b82525050565b600060208201905061285f600083018461283b565b92915050565b600081519050919050565b600082825260208201905092915050565b60005b8381101561289f578082015181840152602081019050612884565b838111156128ae576000848401525b50505050565b6000601f19601f8301169050919050565b60006128d082612865565b6128da8185612870565b93506128ea818560208601612881565b6128f3816128b4565b840191505092915050565b6000602082019050818103600083015261291881846128c5565b905092915050565b6000819050919050565b61293381612920565b811461293e57600080fd5b50565b6000813590506129508161292a565b92915050565b60006020828403121561296c5761296b612744565b5b600061297a84828501612941565b91505092915050565b61298c81612829565b811461299757600080fd5b50565b6000813590506129a981612983565b92915050565b600080604083850312156129c6576129c5612744565b5b60006129d48582860161299a565b92505060206129e585828601612941565b9150509250929050565b6129f881612920565b82525050565b6000602082019050612a1360008301846129ef565b92915050565b600080600060608486031215612a3257612a31612744565b5b6000612a408682870161299a565b9350506020612a518682870161299a565b9250506040612a6286828701612941565b9150509250925092565b600060208284031215612a8257612a81612744565b5b6000612a908482850161299a565b91505092915050565b612aa2816127d3565b8114612aad57600080fd5b50565b600081359050612abf81612a99565b92915050565b60008060408385031215612adc57612adb612744565b5b6000612aea8582860161299a565b9250506020612afb85828601612ab0565b9150509250929050565b600080fd5b600080fd5b600080fd5b60008083601f840112612b2a57612b29612b05565b5b8235905067ffffffffffffffff811115612b4757612b46612b0a565b5b602083019150836001820283011115612b6357612b62612b0f565b5b9250929050565b60008060008060008060608789031215612b8757612b86612744565b5b600087013567ffffffffffffffff811115612ba557612ba4612749565b5b612bb189828a01612b14565b9650965050602087013567ffffffffffffffff811115612bd457612bd3612749565b5b612be089828a01612b14565b9450945050604087013567ffffffffffffffff811115612c0357612c02612749565b5b612c0f89828a01612b14565b92509250509295509295509295565b600080fd5b7f4e487b7100000000000000000000000000000000000000000000000000000000600052604160045260246000fd5b612c5b826128b4565b810181811067ffffffffffffffff82111715612c7a57612c79612c23565b5b80604052505050565b6000612c8d61273a565b9050612c998282612c52565b919050565b600067ffffffffffffffff821115612cb957612cb8612c23565b5b612cc2826128b4565b9050602081019050919050565b82818337600083830152505050565b6000612cf1612cec84612c9e565b612c83565b905082815260208101848484011115612d0d57612d0c612c1e565b5b612d18848285612ccf565b509392505050565b600082601f830112612d3557612d34612b05565b5b8135612d45848260208601612cde565b91505092915050565b60008060008060808587031215612d6857612d67612744565b5b6000612d768782880161299a565b9450506020612d878782880161299a565b9350506040612d9887828801612941565b925050606085013567ffffffffffffffff811115612db957612db8612749565b5b612dc587828801612d20565b91505092959194509250565b60008060208385031215612de857612de7612744565b5b600083013567ffffffffffffffff811115612e0657612e05612749565b5b612e1285828601612b14565b92509250509250929050565b60008060408385031215612e3557612e34612744565b5b6000612e438582860161299a565b9250506020612e548582860161299a565b9150509250929050565b7f4e487b7100000000000000000000000000000000000000000000000000000000600052602260045260246000fd5b60006002820490506001821680612ea557607f821691505b602082108103612eb857612eb7612e5e565b5b50919050565b7f4552433732313a20617070726f76656420717565727920666f72206e6f6e657860008201527f697374656e7420746f6b656e0000000000000000000000000000000000000000602082015250565b6000612f1a602c83612870565b9150612f2582612ebe565b604082019050919050565b60006020820190508181036000830152612f4981612f0d565b9050919050565b7f4552433732313a20617070726f76616c20746f2063757272656e74206f776e6560008201527f7200000000000000000000000000000000000000000000000000000000000000602082015250565b6000612fac602183612870565b9150612fb782612f50565b604082019050919050565b60006020820190508181036000830152612fdb81612f9f565b9050919050565b7f4552433732313a20617070726f76652063616c6c6572206973206e6f74206f7760008201527f6e6572206e6f7220617070726f76656420666f7220616c6c0000000000000000602082015250565b600061303e603883612870565b915061304982612fe2565b604082019050919050565b6000602082019050818103600083015261306d81613031565b9050919050565b7f4552433732313a207472616e736665722063616c6c6572206973206e6f74206f60008201527f776e6572206e6f7220617070726f766564000000000000000000000000000000602082015250565b60006130d0603183612870565b91506130db82613074565b604082019050919050565b600060208201905081810360008301526130ff816130c3565b9050919050565b7f455243373231456e756d657261626c653a206f776e657220696e646578206f7560008201527f74206f6620626f756e6473000000000000000000000000000000000000000000602082015250565b6000613162602b83612870565b915061316d82613106565b604082019050919050565b6000602082019050818103600083015261319181613155565b9050919050565b7f455243373231456e756d657261626c653a20676c6f62616c20696e646578206f60008201527f7574206f6620626f756e64730000000000000000000000000000000000000000602082015250565b60006131f4602c83612870565b91506131ff82613198565b604082019050919050565b60006020820190508181036000830152613223816131e7565b9050919050565b7f4e487b7100000000000000000000000000000000000000000000000000000000600052603260045260246000fd5b7f4552433732313a206f776e657220717565727920666f72206e6f6e657869737460008201527f656e7420746f6b656e0000000000000000000000000000000000000000000000602082015250565b60006132b5602983612870565b91506132c082613259565b604082019050919050565b600060208201905081810360008301526132e4816132a8565b9050919050565b7f4552433732313a2062616c616e636520717565727920666f7220746865207a6560008201527f726f206164647265737300000000000000000000000000000000000000000000602082015250565b6000613347602a83612870565b9150613352826132eb565b604082019050919050565b600060208201905081810360008301526133768161333a565b9050919050565b6000819050919050565b600060ff82169050919050565b6000819050919050565b60006133b96133b46133af8461337d565b613394565b613387565b9050919050565b6133c98161339e565b82525050565b60006020820190506133e460008301846133c0565b92915050565b7f5349474e4552204953204e4f54204e465420434f4c4c454354494f4e2041555460008201527f484f520000000000000000000000000000000000000000000000000000000000602082015250565b6000613446602383612870565b9150613451826133ea565b604082019050919050565b6000602082019050818103600083015261347581613439565b9050919050565b60006134888385612870565b9350613495838584612ccf565b61349e836128b4565b840190509392505050565b600060208201905081810360008301526134c481848661347c565b90509392505050565b7f4552433732313a206f70657261746f7220717565727920666f72206e6f6e657860008201527f697374656e7420746f6b656e0000000000000000000000000000000000000000602082015250565b6000613529602c83612870565b9150613534826134cd565b604082019050919050565b600060208201905081810360008301526135588161351c565b9050919050565b7f4552433732313a207472616e736665722066726f6d20696e636f72726563742060008201527f6f776e6572000000000000000000000000000000000000000000000000000000602082015250565b60006135bb602583612870565b91506135c68261355f565b604082019050919050565b600060208201905081810360008301526135ea816135ae565b9050919050565b7f4552433732313a207472616e7366657220746f20746865207a65726f2061646460008201527f7265737300000000000000000000000000000000000000000000000000000000602082015250565b600061364d602483612870565b9150613658826135f1565b604082019050919050565b6000602082019050818103600083015261367c81613640565b9050919050565b7f4e487b7100000000000000000000000000000000000000000000000000000000600052601160045260246000fd5b60006136bd82612920565b91506136c883612920565b9250828210156136db576136da613683565b5b828203905092915050565b60006136f182612920565b91506136fc83612920565b9250827fffffffffffffffffffffffffffffffffffffffffffffffffffffffffffffffff0382111561373157613730613683565b5b828201905092915050565b7f4552433732313a20617070726f766520746f2063616c6c657200000000000000600082015250565b6000613772601983612870565b915061377d8261373c565b602082019050919050565b600060208201905081810360008301526137a181613765565b9050919050565b7f496e697469616c697a61626c653a20636f6e747261637420697320616c72656160008201527f647920696e697469616c697a6564000000000000000000000000000000000000602082015250565b6000613804602e83612870565b915061380f826137a8565b604082019050919050565b60006020820190508181036000830152613833816137f7565b9050919050565b7f496e697469616c697a61626c653a20636f6e7472616374206973206e6f74206960008201527f6e697469616c697a696e67000000000000000000000000000000000000000000602082015250565b6000613896602b83612870565b91506138a18261383a565b604082019050919050565b600060208201905081810360008301526138c581613889565b9050919050565b7f4552433732313a207472616e7366657220746f206e6f6e20455243373231526560008201527f63656976657220696d706c656d656e7465720000000000000000000000000000602082015250565b6000613928603283612870565b9150613933826138cc565b604082019050919050565b600060208201905081810360008301526139578161391b565b9050919050565b7f45524337323155524953746f726167653a2055524920717565727920666f722060008201527f6e6f6e6578697374656e7420746f6b656e000000000000000000000000000000602082015250565b60006139ba603183612870565b91506139c58261395e565b604082019050919050565b600060208201905081810360008301526139e9816139ad565b9050919050565b600081905092915050565b6000613a0682612865565b613a1081856139f0565b9350613a20818560208601612881565b80840191505092915050565b6000613a3882856139fb565b9150613a4482846139fb565b91508190509392505050565b7f4552433732313a206d696e7420746f20746865207a65726f2061646472657373600082015250565b6000613a86602083612870565b9150613a9182613a50565b602082019050919050565b60006020820190508181036000830152613ab581613a79565b9050919050565b7f4552433732313a20746f6b656e20616c7265616479206d696e74656400000000600082015250565b6000613af2601c83612870565b9150613afd82613abc565b602082019050919050565b60006020820190508181036000830152613b2181613ae5565b9050919050565b7f45524337323155524953746f726167653a2055524920736574206f66206e6f6e60008201527f6578697374656e7420746f6b656e000000000000000000000000000000000000602082015250565b6000613b84602e83612870565b9150613b8f82613b28565b604082019050919050565b60006020820190508181036000830152613bb381613b77565b9050919050565b600081519050919050565b600082825260208201905092915050565b6000613be182613bba565b613beb8185613bc5565b9350613bfb818560208601612881565b613c04816128b4565b840191505092915050565b6000608082019050613c24600083018761283b565b613c31602083018661283b565b613c3e60408301856129ef565b8181036060830152613c508184613bd6565b905095945050505050565b600081519050613c6a8161277a565b92915050565b600060208284031215613c8657613c85612744565b5b6000613c9484828501613c5b565b91505092915050565b7f4552433732314d657461646174613a2055524920717565727920666f72206e6f60008201527f6e6578697374656e7420746f6b656e0000000000000000000000000000000000602082015250565b6000613cf9602f83612870565b9150613d0482613c9d565b604082019050919050565b60006020820190508181036000830152613d2881613cec565b9050919050565b6000613d3a82612920565b91507fffffffffffffffffffffffffffffffffffffffffffffffffffffffffffffffff8203613d6c57613d6b613683565b5b600182019050919050565b7f4e487b7100000000000000000000000000000000000000000000000000000000600052601260045260246000fd5b6000613db182612920565b9150613dbc83612920565b925082613dcc57613dcb613d77565b5b828204905092915050565b6000613de282612920565b9150613ded83612920565b925082613dfd57613dfc613d77565b5b828206905092915050565b7f4e487b7100000000000000000000000000000000000000000000000000000000600052603160045260246000fdfea2646970667358221220f197e331c1aa420ef72d7c02a07553d2c8e0149f74d258c678cab2360d34db8564736f6c634300080d0033",
  "linkReferences": {},
  "deployedLinkReferences": {}
}