{
  "_format": "hh-sol-artifact-1",
  "contractName": "Marketplace",
  "sourceName": "contracts/marketplace.sol",
  "abi": [
    {
      "inputs": [
        {
          "internalType": "address",
          "name": "_NFTCollectionImplementation",
          "type": "address"
        }
      ],
      "stateMutability": "payable",
      "type": "constructor"
    },
    {
      "anonymous": false,
      "inputs": [
        {
          "indexed": true,
          "internalType": "address",
          "name": "NFTCollectionAddress",
          "type": "address"
        },
        {
          "indexed": true,
          "internalType": "address",
          "name": "buyer",
          "type": "address"
        },
        {
          "indexed": false,
          "internalType": "address",
          "name": "seller",
          "type": "address"
        },
        {
          "indexed": false,
          "internalType": "uint256",
          "name": "amount",
          "type": "uint256"
        },
        {
          "indexed": true,
          "internalType": "uint256",
          "name": "tokenId",
          "type": "uint256"
        }
      ],
      "name": "AcceptOffer",
      "type": "event"
    },
    {
      "anonymous": false,
      "inputs": [
        {
          "indexed": true,
          "internalType": "address",
          "name": "NFTCollectionAddress",
          "type": "address"
        },
        {
          "indexed": true,
          "internalType": "uint256",
          "name": "tokenId",
          "type": "uint256"
        },
        {
          "indexed": false,
          "internalType": "address",
          "name": "caller",
          "type": "address"
        }
      ],
      "name": "CancelListing",
      "type": "event"
    },
    {
      "anonymous": false,
      "inputs": [
        {
          "indexed": true,
          "internalType": "address",
          "name": "NFTCollectionAddress",
          "type": "address"
        },
        {
          "indexed": true,
          "internalType": "address",
          "name": "bidder",
          "type": "address"
        },
        {
          "indexed": false,
          "internalType": "uint256",
          "name": "amount",
          "type": "uint256"
        },
        {
          "indexed": true,
          "internalType": "uint256",
          "name": "tokenId",
          "type": "uint256"
        }
      ],
      "name": "CancelOffer",
      "type": "event"
    },
    {
      "anonymous": false,
      "inputs": [
        {
          "indexed": false,
          "internalType": "address",
          "name": "NFTCollectionAddress",
          "type": "address"
        }
      ],
      "name": "ExternalNFTCollectionAdded",
      "type": "event"
    },
    {
      "anonymous": false,
      "inputs": [
        {
          "indexed": true,
          "internalType": "address",
          "name": "contractAddr",
          "type": "address"
        },
        {
          "indexed": true,
          "internalType": "address",
          "name": "author",
          "type": "address"
        },
        {
          "indexed": false,
          "internalType": "string",
          "name": "name",
          "type": "string"
        },
        {
          "indexed": false,
          "internalType": "string",
          "name": "symbol",
          "type": "string"
        }
      ],
      "name": "NFTCollectionCreated",
      "type": "event"
    },
    {
      "anonymous": false,
      "inputs": [
        {
          "indexed": true,
          "internalType": "address",
          "name": "NFTCollectionAddress",
          "type": "address"
        },
        {
          "indexed": true,
          "internalType": "address",
          "name": "bidder",
          "type": "address"
        },
        {
          "indexed": false,
          "internalType": "uint256",
          "name": "amount",
          "type": "uint256"
        },
        {
          "indexed": true,
          "internalType": "uint256",
          "name": "tokenId",
          "type": "uint256"
        }
      ],
      "name": "OfferPlaced",
      "type": "event"
    },
    {
      "anonymous": false,
      "inputs": [
        {
          "indexed": true,
          "internalType": "address",
          "name": "previousOwner",
          "type": "address"
        },
        {
          "indexed": true,
          "internalType": "address",
          "name": "newOwner",
          "type": "address"
        }
      ],
      "name": "OwnershipTransferred",
      "type": "event"
    },
    {
      "anonymous": false,
      "inputs": [
        {
          "indexed": true,
          "internalType": "address",
          "name": "NFTCollectionAddress",
          "type": "address"
        },
        {
          "indexed": true,
          "internalType": "uint256",
          "name": "tokenId",
          "type": "uint256"
        },
        {
          "indexed": true,
          "internalType": "address",
          "name": "seller",
          "type": "address"
        },
        {
          "indexed": false,
          "internalType": "uint256",
          "name": "price",
          "type": "uint256"
        }
      ],
      "name": "SetListing",
      "type": "event"
    },
    {
      "anonymous": false,
      "inputs": [
        {
          "indexed": true,
          "internalType": "address",
          "name": "NFTCollectionAddress",
          "type": "address"
        },
        {
          "indexed": true,
          "internalType": "address",
          "name": "buyer",
          "type": "address"
        },
        {
          "indexed": false,
          "internalType": "address",
          "name": "seller",
          "type": "address"
        },
        {
          "indexed": true,
          "internalType": "uint256",
          "name": "tokenId",
          "type": "uint256"
        },
        {
          "indexed": false,
          "internalType": "uint256",
          "name": "price",
          "type": "uint256"
        }
      ],
      "name": "Sold",
      "type": "event"
    },
    {
      "anonymous": false,
      "inputs": [
        {
          "indexed": true,
          "internalType": "address",
          "name": "creator",
          "type": "address"
        }
      ],
      "name": "UnWhitelistCreator",
      "type": "event"
    },
    {
      "anonymous": false,
      "inputs": [
        {
          "indexed": true,
          "internalType": "address",
          "name": "creator",
          "type": "address"
        }
      ],
      "name": "WhitelistCreator",
      "type": "event"
    },
    {
      "inputs": [],
      "name": "NFTCollectionImplementation",
      "outputs": [
        {
          "internalType": "address",
          "name": "",
          "type": "address"
        }
      ],
      "stateMutability": "view",
      "type": "function"
    },
    {
      "inputs": [
        {
          "internalType": "address",
          "name": "NFTCollectionAddress",
          "type": "address"
        },
        {
          "internalType": "uint256",
          "name": "tokenId",
          "type": "uint256"
        }
      ],
      "name": "acceptOffer",
      "outputs": [],
      "stateMutability": "nonpayable",
      "type": "function"
    },
    {
      "inputs": [
        {
          "internalType": "address",
          "name": "creator",
          "type": "address"
        }
      ],
      "name": "addCreatorToWhitelist",
      "outputs": [],
      "stateMutability": "nonpayable",
      "type": "function"
    },
    {
      "inputs": [
        {
          "internalType": "address",
          "name": "externalNFTCollectionAddress",
          "type": "address"
        }
      ],
      "name": "addExternalNFTCollection",
      "outputs": [],
      "stateMutability": "nonpayable",
      "type": "function"
    },
    {
      "inputs": [
        {
          "internalType": "address",
          "name": "NFTCollectionAddress",
          "type": "address"
        },
        {
          "internalType": "uint256",
          "name": "tokenId",
          "type": "uint256"
        }
      ],
      "name": "buy",
      "outputs": [],
      "stateMutability": "payable",
      "type": "function"
    },
    {
      "inputs": [
        {
          "internalType": "address",
          "name": "NFTCollectionAddress",
          "type": "address"
        },
        {
          "internalType": "uint256",
          "name": "tokenId",
          "type": "uint256"
        }
      ],
      "name": "cancelListing",
      "outputs": [],
      "stateMutability": "nonpayable",
      "type": "function"
    },
    {
      "inputs": [
        {
          "internalType": "address",
          "name": "NFTCollectionAddress",
          "type": "address"
        },
        {
          "internalType": "uint256",
          "name": "tokenId",
          "type": "uint256"
        }
      ],
      "name": "cancelOffer",
      "outputs": [],
      "stateMutability": "nonpayable",
      "type": "function"
    },
    {
      "inputs": [
        {
          "internalType": "string",
          "name": "name",
          "type": "string"
        },
        {
          "internalType": "string",
          "name": "symbol",
          "type": "string"
        }
      ],
      "name": "createNFTCollection",
      "outputs": [],
      "stateMutability": "nonpayable",
      "type": "function"
    },
    {
      "inputs": [
        {
          "internalType": "address",
          "name": "NFTCollectionAddress",
          "type": "address"
        },
        {
          "internalType": "uint256",
          "name": "tokenId",
          "type": "uint256"
        }
      ],
      "name": "offer",
      "outputs": [],
      "stateMutability": "payable",
      "type": "function"
    },
    {
      "inputs": [],
      "name": "owner",
      "outputs": [
        {
          "internalType": "address",
          "name": "",
          "type": "address"
        }
      ],
      "stateMutability": "view",
      "type": "function"
    },
    {
      "inputs": [
        {
          "internalType": "address",
          "name": "creator",
          "type": "address"
        }
      ],
      "name": "removeCreatorFromWhitelist",
      "outputs": [],
      "stateMutability": "nonpayable",
      "type": "function"
    },
    {
      "inputs": [],
      "name": "renounceOwnership",
      "outputs": [],
      "stateMutability": "nonpayable",
      "type": "function"
    },
    {
      "inputs": [
        {
          "internalType": "uint256",
          "name": "price",
          "type": "uint256"
        },
        {
          "internalType": "address",
          "name": "NFTCollectionAddress",
          "type": "address"
        },
        {
          "internalType": "uint256",
          "name": "tokenId",
          "type": "uint256"
        }
      ],
      "name": "setListing",
      "outputs": [],
      "stateMutability": "nonpayable",
      "type": "function"
    },
    {
      "inputs": [
        {
          "internalType": "address",
          "name": "newOwner",
          "type": "address"
        }
      ],
      "name": "transferOwnership",
      "outputs": [],
      "stateMutability": "nonpayable",
      "type": "function"
    },
    {
      "inputs": [
        {
          "internalType": "uint256",
          "name": "amount",
          "type": "uint256"
        },
        {
          "internalType": "address payable",
          "name": "destinationAddress",
          "type": "address"
        }
      ],
      "name": "withdraw",
      "outputs": [],
      "stateMutability": "nonpayable",
      "type": "function"
    }
  ],
  "bytecode": "0x6080604052601e6004556064600555607d60065560405162003ad738038062003ad78339818101604052810190620000389190620001e0565b60016000819055506200006062000054620000a860201b60201c565b620000b060201b60201c565b80600360006101000a81548173ffffffffffffffffffffffffffffffffffffffff021916908373ffffffffffffffffffffffffffffffffffffffff1602179055505062000212565b600033905090565b6000600160009054906101000a900473ffffffffffffffffffffffffffffffffffffffff16905081600160006101000a81548173ffffffffffffffffffffffffffffffffffffffff021916908373ffffffffffffffffffffffffffffffffffffffff1602179055508173ffffffffffffffffffffffffffffffffffffffff168173ffffffffffffffffffffffffffffffffffffffff167f8be0079c531659141344cd1fd0a4f28419497f9722a3daafe3b4186f6b6457e060405160405180910390a35050565b600080fd5b600073ffffffffffffffffffffffffffffffffffffffff82169050919050565b6000620001a8826200017b565b9050919050565b620001ba816200019b565b8114620001c657600080fd5b50565b600081519050620001da81620001af565b92915050565b600060208284031215620001f957620001f862000176565b5b60006200020984828501620001c9565b91505092915050565b6138b580620002226000396000f3fe6080604052600436106100e75760003560e01c8063715018a61161008a578063b6ae308111610059578063b6ae308114610294578063c6713692146102bd578063cce7ec13146102e6578063f2fde38b14610302576100e7565b8063715018a6146102005780638da5cb5b14610217578063b1b9e78d14610242578063b2ddee061461026b576100e7565b806336022a56116100c657806336022a561461016957806362fa82851461019257806366223a18146101bb5780636b212960146101e4576100e7565b8062f714ce146100ec578063058a56ac146101155780632a2a29cf1461013e575b600080fd5b3480156100f857600080fd5b50610113600480360381019061010e9190612af6565b61032b565b005b34801561012157600080fd5b5061013c60048036038101906101379190612b74565b6104b2565b005b34801561014a57600080fd5b5061015361084d565b6040516101609190612bc3565b60405180910390f35b34801561017557600080fd5b50610190600480360381019061018b9190612bde565b610873565b005b34801561019e57600080fd5b506101b960048036038101906101b49190612c31565b610b2c565b005b3480156101c757600080fd5b506101e260048036038101906101dd9190612cc3565b610c8f565b005b6101fe60048036038101906101f99190612b74565b610ee1565b005b34801561020c57600080fd5b50610215611343565b005b34801561022357600080fd5b5061022c6113cb565b6040516102399190612bc3565b60405180910390f35b34801561024e57600080fd5b5061026960048036038101906102649190612b74565b6113f5565b005b34801561027757600080fd5b50610292600480360381019061028d9190612b74565b61193a565b005b3480156102a057600080fd5b506102bb60048036038101906102b69190612c31565b611c24565b005b3480156102c957600080fd5b506102e460048036038101906102df9190612c31565b611d35565b005b61030060048036038101906102fb9190612b74565b611e4f565b005b34801561030e57600080fd5b5061032960048036038101906103249190612c31565b61255f565b005b610333612656565b73ffffffffffffffffffffffffffffffffffffffff166103516113cb565b73ffffffffffffffffffffffffffffffffffffffff16146103a7576040517f08c379a000000000000000000000000000000000000000000000000000000000815260040161039e90612da1565b60405180910390fd5b6002600054036103ec576040517f08c379a00000000000000000000000000000000000000000000000000000000081526004016103e390612e0d565b60405180910390fd5b6002600081905550600c5482111561040357600080fd5b47821115610446576040517f08c379a000000000000000000000000000000000000000000000000000000000815260040161043d90612e79565b60405180910390fd5b81600c60008282546104589190612ec8565b925050819055508073ffffffffffffffffffffffffffffffffffffffff166108fc839081150290604051600060405180830381858888f193505050501580156104a5573d6000803e3d6000fd5b5060016000819055505050565b81600260008273ffffffffffffffffffffffffffffffffffffffff1673ffffffffffffffffffffffffffffffffffffffff16815260200190815260200160002060009054906101000a900460ff1661053f576040517f08c379a000000000000000000000000000000000000000000000000000000000815260040161053690612f6e565b60405180910390fd5b600260005403610584576040517f08c379a000000000000000000000000000000000000000000000000000000000815260040161057b90612e0d565b60405180910390fd5b60026000819055506000600860008573ffffffffffffffffffffffffffffffffffffffff1673ffffffffffffffffffffffffffffffffffffffff16815260200190815260200160002060008481526020019081526020016000206040518060400160405290816000820160009054906101000a900473ffffffffffffffffffffffffffffffffffffffff1673ffffffffffffffffffffffffffffffffffffffff1673ffffffffffffffffffffffffffffffffffffffff16815260200160018201548152505090506000816020015111610692576040517f08c379a000000000000000000000000000000000000000000000000000000000815260040161068990612fda565b60405180910390fd5b3373ffffffffffffffffffffffffffffffffffffffff16816000015173ffffffffffffffffffffffffffffffffffffffff1614610704576040517f08c379a00000000000000000000000000000000000000000000000000000000081526004016106fb9061306c565b60405180910390fd5b600860008573ffffffffffffffffffffffffffffffffffffffff1673ffffffffffffffffffffffffffffffffffffffff1681526020019081526020016000206000848152602001908152602001600020600080820160006101000a81549073ffffffffffffffffffffffffffffffffffffffff021916905560018201600090555050806000015173ffffffffffffffffffffffffffffffffffffffff166108fc82602001519081150290604051600060405180830381858888f193505050501580156107d4573d6000803e3d6000fd5b50823373ffffffffffffffffffffffffffffffffffffffff168573ffffffffffffffffffffffffffffffffffffffff167fb699dfcdcc71df1f84bceb5357f84a70128c0f6d297f61aa4f4072e7efd8db028460200151604051610837919061309b565b60405180910390a4506001600081905550505050565b600360009054906101000a900473ffffffffffffffffffffffffffffffffffffffff1681565b818160008290503373ffffffffffffffffffffffffffffffffffffffff168173ffffffffffffffffffffffffffffffffffffffff16636352211e846040518263ffffffff1660e01b81526004016108ca919061309b565b602060405180830381865afa1580156108e7573d6000803e3d6000fd5b505050506040513d601f19601f8201168201806040525081019061090b91906130cb565b73ffffffffffffffffffffffffffffffffffffffff1614610961576040517f08c379a000000000000000000000000000000000000000000000000000000000815260040161095890613144565b60405180910390fd5b84600260008273ffffffffffffffffffffffffffffffffffffffff1673ffffffffffffffffffffffffffffffffffffffff16815260200190815260200160002060009054906101000a900460ff166109ee576040517f08c379a00000000000000000000000000000000000000000000000000000000081526004016109e590612f6e565b60405180910390fd5b60405180604001604052808881526020013373ffffffffffffffffffffffffffffffffffffffff16815250600760008873ffffffffffffffffffffffffffffffffffffffff1673ffffffffffffffffffffffffffffffffffffffff16815260200190815260200160002060008781526020019081526020016000206000820151816000015560208201518160010160006101000a81548173ffffffffffffffffffffffffffffffffffffffff021916908373ffffffffffffffffffffffffffffffffffffffff1602179055509050503373ffffffffffffffffffffffffffffffffffffffff16858773ffffffffffffffffffffffffffffffffffffffff167fcb9d2e00995827870e204b84ebdff47e5a2936fb775425c63151ecb95cf36b3c8a604051610b1b919061309b565b60405180910390a450505050505050565b610b34612656565b73ffffffffffffffffffffffffffffffffffffffff16610b526113cb565b73ffffffffffffffffffffffffffffffffffffffff1614610ba8576040517f08c379a0000000000000000000000000000000000000000000000000000000008152600401610b9f90612da1565b60405180910390fd5b600260005403610bed576040517f08c379a0000000000000000000000000000000000000000000000000000000008152600401610be490612e0d565b60405180910390fd5b60026000819055506001600260008373ffffffffffffffffffffffffffffffffffffffff1673ffffffffffffffffffffffffffffffffffffffff16815260200190815260200160002060006101000a81548160ff0219169083151502179055507f7e000ec272bb80879418f093a360115f42f5d541a80fb3e608fe1e5aa86333af81604051610c7c9190612bc3565b60405180910390a1600160008190555050565b60011515600960003373ffffffffffffffffffffffffffffffffffffffff1673ffffffffffffffffffffffffffffffffffffffff16815260200190815260200160002060009054906101000a900460ff16151514610d22576040517f08c379a0000000000000000000000000000000000000000000000000000000008152600401610d19906131b0565b60405180910390fd5b600260005403610d67576040517f08c379a0000000000000000000000000000000000000000000000000000000008152600401610d5e90612e0d565b60405180910390fd5b60026000819055506000610d9c600360009054906101000a900473ffffffffffffffffffffffffffffffffffffffff1661265e565b90508073ffffffffffffffffffffffffffffffffffffffff16634cd88b76868686866040518563ffffffff1660e01b8152600401610ddd949392919061321d565b600060405180830381600087803b158015610df757600080fd5b505af1158015610e0b573d6000803e3d6000fd5b505050506001600260008373ffffffffffffffffffffffffffffffffffffffff1673ffffffffffffffffffffffffffffffffffffffff16815260200190815260200160002060006101000a81548160ff0219169083151502179055503373ffffffffffffffffffffffffffffffffffffffff168173ffffffffffffffffffffffffffffffffffffffff167f6336eb7794a4aa1212b40b738b357ac2dc7ca906ecf4b034bdedf919b6de26fe87878787604051610eca949392919061321d565b60405180910390a350600160008190555050505050565b81600260008273ffffffffffffffffffffffffffffffffffffffff1673ffffffffffffffffffffffffffffffffffffffff16815260200190815260200160002060009054906101000a900460ff16610f6e576040517f08c379a0000000000000000000000000000000000000000000000000000000008152600401610f6590612f6e565b60405180910390fd5b828260008290503373ffffffffffffffffffffffffffffffffffffffff168173ffffffffffffffffffffffffffffffffffffffff16636352211e846040518263ffffffff1660e01b8152600401610fc5919061309b565b602060405180830381865afa158015610fe2573d6000803e3d6000fd5b505050506040513d601f19601f8201168201806040525081019061100691906130cb565b73ffffffffffffffffffffffffffffffffffffffff160361105c576040517f08c379a0000000000000000000000000000000000000000000000000000000008152600401611053906132a4565b60405180910390fd5b6002600054036110a1576040517f08c379a000000000000000000000000000000000000000000000000000000000815260040161109890612e0d565b60405180910390fd5b60026000819055506000600860008873ffffffffffffffffffffffffffffffffffffffff1673ffffffffffffffffffffffffffffffffffffffff16815260200190815260200160002060008781526020019081526020016000206040518060400160405290816000820160009054906101000a900473ffffffffffffffffffffffffffffffffffffffff1673ffffffffffffffffffffffffffffffffffffffff1673ffffffffffffffffffffffffffffffffffffffff1681526020016001820154815250509050806020015134116111ae576040517f08c379a00000000000000000000000000000000000000000000000000000000081526004016111a590613336565b60405180910390fd5b806000015173ffffffffffffffffffffffffffffffffffffffff166108fc82602001519081150290604051600060405180830381858888f193505050501580156111fc573d6000803e3d6000fd5b5060405180604001604052803373ffffffffffffffffffffffffffffffffffffffff16815260200134815250600860008973ffffffffffffffffffffffffffffffffffffffff1673ffffffffffffffffffffffffffffffffffffffff168152602001908152602001600020600088815260200190815260200160002060008201518160000160006101000a81548173ffffffffffffffffffffffffffffffffffffffff021916908373ffffffffffffffffffffffffffffffffffffffff16021790555060208201518160010155905050853373ffffffffffffffffffffffffffffffffffffffff168873ffffffffffffffffffffffffffffffffffffffff167f9e0c3243d933df21dbf7144ea4f3d1d005a31476d93ef5480ab56eea602d2ee23460405161132a919061309b565b60405180910390a4506001600081905550505050505050565b61134b612656565b73ffffffffffffffffffffffffffffffffffffffff166113696113cb565b73ffffffffffffffffffffffffffffffffffffffff16146113bf576040517f08c379a00000000000000000000000000000000000000000000000000000000081526004016113b690612da1565b60405180910390fd5b6113c96000612732565b565b6000600160009054906101000a900473ffffffffffffffffffffffffffffffffffffffff16905090565b60026000540361143a576040517f08c379a000000000000000000000000000000000000000000000000000000000815260040161143190612e0d565b60405180910390fd5b600260008190555081600260008273ffffffffffffffffffffffffffffffffffffffff1673ffffffffffffffffffffffffffffffffffffffff16815260200190815260200160002060009054906101000a900460ff166114cf576040517f08c379a00000000000000000000000000000000000000000000000000000000081526004016114c690612f6e565b60405180910390fd5b828260008290503373ffffffffffffffffffffffffffffffffffffffff168173ffffffffffffffffffffffffffffffffffffffff16636352211e846040518263ffffffff1660e01b8152600401611526919061309b565b602060405180830381865afa158015611543573d6000803e3d6000fd5b505050506040513d601f19601f8201168201806040525081019061156791906130cb565b73ffffffffffffffffffffffffffffffffffffffff16146115bd576040517f08c379a00000000000000000000000000000000000000000000000000000000081526004016115b490613144565b60405180910390fd5b6000600860008873ffffffffffffffffffffffffffffffffffffffff1673ffffffffffffffffffffffffffffffffffffffff16815260200190815260200160002060008781526020019081526020016000206040518060400160405290816000820160009054906101000a900473ffffffffffffffffffffffffffffffffffffffff1673ffffffffffffffffffffffffffffffffffffffff1673ffffffffffffffffffffffffffffffffffffffff168152602001600182015481525050905060008160200151116116c3576040517f08c379a00000000000000000000000000000000000000000000000000000000081526004016116ba90612fda565b60405180910390fd5b600760008873ffffffffffffffffffffffffffffffffffffffff1673ffffffffffffffffffffffffffffffffffffffff16815260200190815260200160002060008781526020019081526020016000206000808201600090556001820160006101000a81549073ffffffffffffffffffffffffffffffffffffffff02191690555050600860008873ffffffffffffffffffffffffffffffffffffffff1673ffffffffffffffffffffffffffffffffffffffff1681526020019081526020016000206000878152602001908152602001600020600080820160006101000a81549073ffffffffffffffffffffffffffffffffffffffff02191690556001820160009055505060008790508073ffffffffffffffffffffffffffffffffffffffff166342842e0e3384600001518a6040518463ffffffff1660e01b815260040161180d939291906133b5565b600060405180830381600087803b15801561182757600080fd5b505af115801561183b573d6000803e3d6000fd5b5050505061184f8260200151338a8a6127f8565b6001600b60008a73ffffffffffffffffffffffffffffffffffffffff1673ffffffffffffffffffffffffffffffffffffffff168152602001908152602001600020600089815260200190815260200160002060006101000a81548160ff02191690831515021790555086826000015173ffffffffffffffffffffffffffffffffffffffff168973ffffffffffffffffffffffffffffffffffffffff167f167d5806d4c5a5199290b03eea54d6f441da76dce288fce52a6e53e5a1af70973386602001516040516119209291906133ec565b60405180910390a450505050505060016000819055505050565b81600260008273ffffffffffffffffffffffffffffffffffffffff1673ffffffffffffffffffffffffffffffffffffffff16815260200190815260200160002060009054906101000a900460ff166119c7576040517f08c379a00000000000000000000000000000000000000000000000000000000081526004016119be90612f6e565b60405180910390fd5b828260008290503373ffffffffffffffffffffffffffffffffffffffff168173ffffffffffffffffffffffffffffffffffffffff16636352211e846040518263ffffffff1660e01b8152600401611a1e919061309b565b602060405180830381865afa158015611a3b573d6000803e3d6000fd5b505050506040513d601f19601f82011682018060405250810190611a5f91906130cb565b73ffffffffffffffffffffffffffffffffffffffff1614611ab5576040517f08c379a0000000000000000000000000000000000000000000000000000000008152600401611aac90613144565b60405180910390fd5b6000600760008873ffffffffffffffffffffffffffffffffffffffff1673ffffffffffffffffffffffffffffffffffffffff16815260200190815260200160002060008781526020019081526020016000206000015411611b4b576040517f08c379a0000000000000000000000000000000000000000000000000000000008152600401611b4290613461565b60405180910390fd5b600760008773ffffffffffffffffffffffffffffffffffffffff1673ffffffffffffffffffffffffffffffffffffffff16815260200190815260200160002060008681526020019081526020016000206000808201600090556001820160006101000a81549073ffffffffffffffffffffffffffffffffffffffff02191690555050848673ffffffffffffffffffffffffffffffffffffffff167f2c2db9428397de6ac1baf4467a3ee0f1e70507a8a9708e1e52ac0bd86a37640f33604051611c149190612bc3565b60405180910390a3505050505050565b611c2c612656565b73ffffffffffffffffffffffffffffffffffffffff16611c4a6113cb565b73ffffffffffffffffffffffffffffffffffffffff1614611ca0576040517f08c379a0000000000000000000000000000000000000000000000000000000008152600401611c9790612da1565b60405180910390fd5b600960008273ffffffffffffffffffffffffffffffffffffffff1673ffffffffffffffffffffffffffffffffffffffff16815260200190815260200160002060006101000a81549060ff02191690558073ffffffffffffffffffffffffffffffffffffffff167f6471a48e836d8e81fdb0e9fe9f0cce52f3108ee679e92b48f4fbb40caa02df2260405160405180910390a250565b611d3d612656565b73ffffffffffffffffffffffffffffffffffffffff16611d5b6113cb565b73ffffffffffffffffffffffffffffffffffffffff1614611db1576040517f08c379a0000000000000000000000000000000000000000000000000000000008152600401611da890612da1565b60405180910390fd5b6001600960008373ffffffffffffffffffffffffffffffffffffffff1673ffffffffffffffffffffffffffffffffffffffff16815260200190815260200160002060006101000a81548160ff0219169083151502179055508073ffffffffffffffffffffffffffffffffffffffff167f55eed0aed3ec6e015b9ad5e984675fe36c0ce3aebdcb70f467670773f19f7f8d60405160405180910390a250565b81600260008273ffffffffffffffffffffffffffffffffffffffff1673ffffffffffffffffffffffffffffffffffffffff16815260200190815260200160002060009054906101000a900460ff16611edc576040517f08c379a0000000000000000000000000000000000000000000000000000000008152600401611ed390612f6e565b60405180910390fd5b600260005403611f21576040517f08c379a0000000000000000000000000000000000000000000000000000000008152600401611f1890612e0d565b60405180910390fd5b60026000819055506000600760008573ffffffffffffffffffffffffffffffffffffffff1673ffffffffffffffffffffffffffffffffffffffff1681526020019081526020016000206000848152602001908152602001600020604051806040016040529081600082015481526020016001820160009054906101000a900473ffffffffffffffffffffffffffffffffffffffff1673ffffffffffffffffffffffffffffffffffffffff1673ffffffffffffffffffffffffffffffffffffffff16815250509050600084905060008173ffffffffffffffffffffffffffffffffffffffff16636352211e866040518263ffffffff1660e01b8152600401612028919061309b565b602060405180830381865afa158015612045573d6000803e3d6000fd5b505050506040513d601f19601f8201168201806040525081019061206991906130cb565b9050826020015173ffffffffffffffffffffffffffffffffffffffff168173ffffffffffffffffffffffffffffffffffffffff16146120dd576040517f08c379a00000000000000000000000000000000000000000000000000000000081526004016120d4906134f3565b60405180910390fd5b82600001513414612123576040517f08c379a000000000000000000000000000000000000000000000000000000000815260040161211a9061355f565b60405180910390fd5b826020015173ffffffffffffffffffffffffffffffffffffffff163373ffffffffffffffffffffffffffffffffffffffff1603612195576040517f08c379a000000000000000000000000000000000000000000000000000000000815260040161218c906135f1565b60405180910390fd5b60008360000151116121a657600080fd5b600760008773ffffffffffffffffffffffffffffffffffffffff1673ffffffffffffffffffffffffffffffffffffffff16815260200190815260200160002060008681526020019081526020016000206000808201600090556001820160006101000a81549073ffffffffffffffffffffffffffffffffffffffff021916905550506000600860008873ffffffffffffffffffffffffffffffffffffffff1673ffffffffffffffffffffffffffffffffffffffff16815260200190815260200160002060008781526020019081526020016000206040518060400160405290816000820160009054906101000a900473ffffffffffffffffffffffffffffffffffffffff1673ffffffffffffffffffffffffffffffffffffffff1673ffffffffffffffffffffffffffffffffffffffff16815260200160018201548152505090503373ffffffffffffffffffffffffffffffffffffffff16816000015173ffffffffffffffffffffffffffffffffffffffff16036123f057600860008873ffffffffffffffffffffffffffffffffffffffff1673ffffffffffffffffffffffffffffffffffffffff1681526020019081526020016000206000878152602001908152602001600020600080820160006101000a81549073ffffffffffffffffffffffffffffffffffffffff021916905560018201600090555050806000015173ffffffffffffffffffffffffffffffffffffffff166108fc82602001519081150290604051600060405180830381858888f193505050501580156123ee573d6000803e3d6000fd5b505b60008790508073ffffffffffffffffffffffffffffffffffffffff166342842e0e8660200151338a6040518463ffffffff1660e01b815260040161243693929190613611565b600060405180830381600087803b15801561245057600080fd5b505af1158015612464573d6000803e3d6000fd5b5050505061247434848a8a6127f8565b6001600b60008a73ffffffffffffffffffffffffffffffffffffffff1673ffffffffffffffffffffffffffffffffffffffff168152602001908152602001600020600089815260200190815260200160002060006101000a81548160ff021916908315150217905550863373ffffffffffffffffffffffffffffffffffffffff168973ffffffffffffffffffffffffffffffffffffffff167f5764dbcef91eb6f946584f4ea671217c686fa7e858ce4f9f42d08422b86556a988602001518960000151604051612545929190613648565b60405180910390a450505050506001600081905550505050565b612567612656565b73ffffffffffffffffffffffffffffffffffffffff166125856113cb565b73ffffffffffffffffffffffffffffffffffffffff16146125db576040517f08c379a00000000000000000000000000000000000000000000000000000000081526004016125d290612da1565b60405180910390fd5b600073ffffffffffffffffffffffffffffffffffffffff168173ffffffffffffffffffffffffffffffffffffffff160361264a576040517f08c379a0000000000000000000000000000000000000000000000000000000008152600401612641906136e3565b60405180910390fd5b61265381612732565b50565b600033905090565b60006040517f3d602d80600a3d3981f3363d3d373d3d3d363d7300000000000000000000000081528260601b60148201527f5af43d82803e903d91602b57fd5bf3000000000000000000000000000000000060288201526037816000f0915050600073ffffffffffffffffffffffffffffffffffffffff168173ffffffffffffffffffffffffffffffffffffffff160361272d576040517f08c379a00000000000000000000000000000000000000000000000000000000081526004016127249061374f565b60405180910390fd5b919050565b6000600160009054906101000a900473ffffffffffffffffffffffffffffffffffffffff16905081600160006101000a81548173ffffffffffffffffffffffffffffffffffffffff021916908373ffffffffffffffffffffffffffffffffffffffff1602179055508173ffffffffffffffffffffffffffffffffffffffff168173ffffffffffffffffffffffffffffffffffffffff167f8be0079c531659141344cd1fd0a4f28419497f9722a3daafe3b4186f6b6457e060405160405180910390a35050565b600080600080600a60008773ffffffffffffffffffffffffffffffffffffffff1673ffffffffffffffffffffffffffffffffffffffff16815260200190815260200160002060009054906101000a900473ffffffffffffffffffffffffffffffffffffffff169050600b60008773ffffffffffffffffffffffffffffffffffffffff1673ffffffffffffffffffffffffffffffffffffffff168152602001908152602001600020600086815260200190815260200160002060009054906101000a900460ff16156129c2576103e8600454896128d4919061376f565b6128de91906137f8565b93506103e8600554896128f1919061376f565b6128fb91906137f8565b925083838961290a9190612ec8565b6129149190612ec8565b915083600c60008282546129289190613829565b925050819055508073ffffffffffffffffffffffffffffffffffffffff166108fc849081150290604051600060405180830381858888f19350505050158015612975573d6000803e3d6000fd5b508673ffffffffffffffffffffffffffffffffffffffff166108fc839081150290604051600060405180830381858888f193505050501580156129bc573d6000803e3d6000fd5b50612a4e565b6103e8600654896129d3919061376f565b6129dd91906137f8565b935083886129eb9190612ec8565b925083600c60008282546129ff9190613829565b925050819055508073ffffffffffffffffffffffffffffffffffffffff166108fc849081150290604051600060405180830381858888f19350505050158015612a4c573d6000803e3d6000fd5b505b5050505050505050565b600080fd5b600080fd5b6000819050919050565b612a7581612a62565b8114612a8057600080fd5b50565b600081359050612a9281612a6c565b92915050565b600073ffffffffffffffffffffffffffffffffffffffff82169050919050565b6000612ac382612a98565b9050919050565b612ad381612ab8565b8114612ade57600080fd5b50565b600081359050612af081612aca565b92915050565b60008060408385031215612b0d57612b0c612a58565b5b6000612b1b85828601612a83565b9250506020612b2c85828601612ae1565b9150509250929050565b6000612b4182612a98565b9050919050565b612b5181612b36565b8114612b5c57600080fd5b50565b600081359050612b6e81612b48565b92915050565b60008060408385031215612b8b57612b8a612a58565b5b6000612b9985828601612b5f565b9250506020612baa85828601612a83565b9150509250929050565b612bbd81612b36565b82525050565b6000602082019050612bd86000830184612bb4565b92915050565b600080600060608486031215612bf757612bf6612a58565b5b6000612c0586828701612a83565b9350506020612c1686828701612b5f565b9250506040612c2786828701612a83565b9150509250925092565b600060208284031215612c4757612c46612a58565b5b6000612c5584828501612b5f565b91505092915050565b600080fd5b600080fd5b600080fd5b60008083601f840112612c8357612c82612c5e565b5b8235905067ffffffffffffffff811115612ca057612c9f612c63565b5b602083019150836001820283011115612cbc57612cbb612c68565b5b9250929050565b60008060008060408587031215612cdd57612cdc612a58565b5b600085013567ffffffffffffffff811115612cfb57612cfa612a5d565b5b612d0787828801612c6d565b9450945050602085013567ffffffffffffffff811115612d2a57612d29612a5d565b5b612d3687828801612c6d565b925092505092959194509250565b600082825260208201905092915050565b7f4f776e61626c653a2063616c6c6572206973206e6f7420746865206f776e6572600082015250565b6000612d8b602083612d44565b9150612d9682612d55565b602082019050919050565b60006020820190508181036000830152612dba81612d7e565b9050919050565b7f5265656e7472616e637947756172643a207265656e7472616e742063616c6c00600082015250565b6000612df7601f83612d44565b9150612e0282612dc1565b602082019050919050565b60006020820190508181036000830152612e2681612dea565b9050919050565b7f496e73756666696369656e742066756e647320746f2077697468647261770000600082015250565b6000612e63601e83612d44565b9150612e6e82612e2d565b602082019050919050565b60006020820190508181036000830152612e9281612e56565b9050919050565b7f4e487b7100000000000000000000000000000000000000000000000000000000600052601160045260246000fd5b6000612ed382612a62565b9150612ede83612a62565b925082821015612ef157612ef0612e99565b5b828203905092915050565b7f4e465420436f6c6c656374696f6e206861736e2774206265656e20617070726f60008201527f76656420696e20746865206d61726b6574706c61636500000000000000000000602082015250565b6000612f58603683612d44565b9150612f6382612efc565b604082019050919050565b60006020820190508181036000830152612f8781612f4b565b9050919050565b7f4e6f206f66666572206578697374730000000000000000000000000000000000600082015250565b6000612fc4600f83612d44565b9150612fcf82612f8e565b602082019050919050565b60006020820190508181036000830152612ff381612fb7565b9050919050565b7f53656e646572206d757374206861766520706c6163656420746865206f66666560008201527f7200000000000000000000000000000000000000000000000000000000000000602082015250565b6000613056602183612d44565b915061306182612ffa565b604082019050919050565b6000602082019050818103600083015261308581613049565b9050919050565b61309581612a62565b82525050565b60006020820190506130b0600083018461308c565b92915050565b6000815190506130c581612b48565b92915050565b6000602082840312156130e1576130e0612a58565b5b60006130ef848285016130b6565b91505092915050565b7f43616c6c657220646f6573206e6f74206f776e2074686520746f6b656e000000600082015250565b600061312e601d83612d44565b9150613139826130f8565b602082019050919050565b6000602082019050818103600083015261315d81613121565b9050919050565b7f43616c6c6572206d75737420626520612063726561746f720000000000000000600082015250565b600061319a601883612d44565b91506131a582613164565b602082019050919050565b600060208201905081810360008301526131c98161318d565b9050919050565b82818337600083830152505050565b6000601f19601f8301169050919050565b60006131fc8385612d44565b93506132098385846131d0565b613212836131df565b840190509392505050565b600060408201905081810360008301526132388186886131f0565b9050818103602083015261324d8184866131f0565b905095945050505050565b7f43616c6c6572206f776e732074686520746f6b656e0000000000000000000000600082015250565b600061328e601583612d44565b915061329982613258565b602082019050919050565b600060208201905081810360008301526132bd81613281565b9050919050565b7f4f66666572206d75737420626520686967686572207468616e2070726576696f60008201527f7573206f6e650000000000000000000000000000000000000000000000000000602082015250565b6000613320602683612d44565b915061332b826132c4565b604082019050919050565b6000602082019050818103600083015261334f81613313565b9050919050565b6000819050919050565b600061337b61337661337184612a98565b613356565b612a98565b9050919050565b600061338d82613360565b9050919050565b600061339f82613382565b9050919050565b6133af81613394565b82525050565b60006060820190506133ca6000830186612bb4565b6133d760208301856133a6565b6133e4604083018461308c565b949350505050565b60006040820190506134016000830185612bb4565b61340e602083018461308c565b9392505050565b7f4e6f206c697374696e6720657869737473000000000000000000000000000000600082015250565b600061344b601183612d44565b915061345682613415565b602082019050919050565b6000602082019050818103600083015261347a8161343e565b9050919050565b7f4c697374696e672073657474657220697320646966666572656e742066726f6d60008201527f2063757272656e74206f776e6572000000000000000000000000000000000000602082015250565b60006134dd602e83612d44565b91506134e882613481565b604082019050919050565b6000602082019050818103600083015261350c816134d0565b9050919050565b7f496e73756666696369656e742066756e64730000000000000000000000000000600082015250565b6000613549601283612d44565b915061355482613513565b602082019050919050565b600060208201905081810360008301526135788161353c565b9050919050565b7f4275796572206d75737420626520646966666572656e742066726f6d2073656c60008201527f6c65720000000000000000000000000000000000000000000000000000000000602082015250565b60006135db602383612d44565b91506135e68261357f565b604082019050919050565b6000602082019050818103600083015261360a816135ce565b9050919050565b600060608201905061362660008301866133a6565b6136336020830185612bb4565b613640604083018461308c565b949350505050565b600060408201905061365d60008301856133a6565b61366a602083018461308c565b9392505050565b7f4f776e61626c653a206e6577206f776e657220697320746865207a65726f206160008201527f6464726573730000000000000000000000000000000000000000000000000000602082015250565b60006136cd602683612d44565b91506136d882613671565b604082019050919050565b600060208201905081810360008301526136fc816136c0565b9050919050565b7f455243313136373a20637265617465206661696c656400000000000000000000600082015250565b6000613739601683612d44565b915061374482613703565b602082019050919050565b600060208201905081810360008301526137688161372c565b9050919050565b600061377a82612a62565b915061378583612a62565b9250817fffffffffffffffffffffffffffffffffffffffffffffffffffffffffffffffff04831182151516156137be576137bd612e99565b5b828202905092915050565b7f4e487b7100000000000000000000000000000000000000000000000000000000600052601260045260246000fd5b600061380382612a62565b915061380e83612a62565b92508261381e5761381d6137c9565b5b828204905092915050565b600061383482612a62565b915061383f83612a62565b9250827fffffffffffffffffffffffffffffffffffffffffffffffffffffffffffffffff0382111561387457613873612e99565b5b82820190509291505056fea26469706673582212206d21c0f9a2efcb93d4f0a41a0b2199b59daf3bc352953ec1ba1330b0bd28087e64736f6c634300080d0033",
  "linkReferences": {},
  "deployedLinkReferences": {}
}