{
  "_format": "hh-sol-artifact-1",
  "contractName": "Marketplace",
  "sourceName": "contracts/marketplace.sol",
  "abi": [
    {
      "inputs": [
        {
          "internalType": "address",
          "name": "_NFTCollectionImplementation",
          "type": "address"
        }
      ],
      "stateMutability": "payable",
      "type": "constructor"
    },
    {
      "anonymous": false,
      "inputs": [
        {
          "indexed": true,
          "internalType": "address",
          "name": "contractAddr",
          "type": "address"
        },
        {
          "indexed": true,
          "internalType": "address",
          "name": "author",
          "type": "address"
        }
      ],
      "name": "NftContractCreated",
      "type": "event"
    },
    {
      "anonymous": false,
      "inputs": [
        {
          "indexed": true,
          "internalType": "address",
          "name": "previousOwner",
          "type": "address"
        },
        {
          "indexed": true,
          "internalType": "address",
          "name": "newOwner",
          "type": "address"
        }
      ],
      "name": "OwnershipTransferred",
      "type": "event"
    },
    {
      "inputs": [],
      "name": "NFTCollectionImplementation",
      "outputs": [
        {
          "internalType": "address",
          "name": "",
          "type": "address"
        }
      ],
      "stateMutability": "view",
      "type": "function"
    },
    {
      "inputs": [
        {
          "internalType": "uint256",
          "name": "price",
          "type": "uint256"
        },
        {
          "internalType": "address",
          "name": "NFTCollectionAddress",
          "type": "address"
        },
        {
          "internalType": "uint256",
          "name": "tokenId",
          "type": "uint256"
        }
      ],
      "name": "addListing",
      "outputs": [],
      "stateMutability": "nonpayable",
      "type": "function"
    },
    {
      "inputs": [
        {
          "internalType": "address",
          "name": "NFTCollectionAddress",
          "type": "address"
        },
        {
          "internalType": "uint256",
          "name": "tokenId",
          "type": "uint256"
        }
      ],
      "name": "buy",
      "outputs": [],
      "stateMutability": "payable",
      "type": "function"
    },
    {
      "inputs": [
        {
          "internalType": "string",
          "name": "_name",
          "type": "string"
        },
        {
          "internalType": "string",
          "name": "_symbol",
          "type": "string"
        },
        {
          "internalType": "string",
          "name": "_description",
          "type": "string"
        }
      ],
      "name": "createNftContract",
      "outputs": [],
      "stateMutability": "nonpayable",
      "type": "function"
    },
    {
      "inputs": [],
      "name": "getNFTContractAddresses",
      "outputs": [
        {
          "internalType": "address[]",
          "name": "",
          "type": "address[]"
        }
      ],
      "stateMutability": "view",
      "type": "function"
    },
    {
      "inputs": [],
      "name": "owner",
      "outputs": [
        {
          "internalType": "address",
          "name": "",
          "type": "address"
        }
      ],
      "stateMutability": "view",
      "type": "function"
    },
    {
      "inputs": [],
      "name": "renounceOwnership",
      "outputs": [],
      "stateMutability": "nonpayable",
      "type": "function"
    },
    {
      "inputs": [
        {
          "internalType": "address",
          "name": "newOwner",
          "type": "address"
        }
      ],
      "name": "transferOwnership",
      "outputs": [],
      "stateMutability": "nonpayable",
      "type": "function"
    },
    {
      "inputs": [
        {
          "internalType": "uint256",
          "name": "amount",
          "type": "uint256"
        },
        {
          "internalType": "address payable",
          "name": "destinationAddress",
          "type": "address"
        }
      ],
      "name": "withdraw",
      "outputs": [],
      "stateMutability": "nonpayable",
      "type": "function"
    }
  ],
  "bytecode": "0x60806040526040516200199a3803806200199a8339818101604052810190620000299190620001d1565b600160008190555062000051620000456200009960201b60201c565b620000a160201b60201c565b80600360006101000a81548173ffffffffffffffffffffffffffffffffffffffff021916908373ffffffffffffffffffffffffffffffffffffffff1602179055505062000203565b600033905090565b6000600160009054906101000a900473ffffffffffffffffffffffffffffffffffffffff16905081600160006101000a81548173ffffffffffffffffffffffffffffffffffffffff021916908373ffffffffffffffffffffffffffffffffffffffff1602179055508173ffffffffffffffffffffffffffffffffffffffff168173ffffffffffffffffffffffffffffffffffffffff167f8be0079c531659141344cd1fd0a4f28419497f9722a3daafe3b4186f6b6457e060405160405180910390a35050565b600080fd5b600073ffffffffffffffffffffffffffffffffffffffff82169050919050565b600062000199826200016c565b9050919050565b620001ab816200018c565b8114620001b757600080fd5b50565b600081519050620001cb81620001a0565b92915050565b600060208284031215620001ea57620001e962000167565b5b6000620001fa84828501620001ba565b91505092915050565b61178780620002136000396000f3fe6080604052600436106100855760003560e01c8063715018a611610059578063715018a61461013257806380abbe57146101495780638da5cb5b14610172578063cce7ec131461019d578063f2fde38b146101b957610085565b8062f714ce1461008a578063127806ea146100b35780632a2a29cf146100dc5780634bb5226f14610107575b600080fd5b34801561009657600080fd5b506100b160048036038101906100ac9190610e3c565b6101e2565b005b3480156100bf57600080fd5b506100da60048036038101906100d59190610ee1565b610305565b005b3480156100e857600080fd5b506100f16104c4565b6040516100fe9190610fb6565b60405180910390f35b34801561011357600080fd5b5061011c6104ea565b604051610129919061108f565b60405180910390f35b34801561013e57600080fd5b50610147610578565b005b34801561015557600080fd5b50610170600480360381019061016b91906110dd565b610600565b005b34801561017e57600080fd5b5061018761087c565b6040516101949190610fb6565b60405180910390f35b6101b760048036038101906101b29190611130565b6108a6565b005b3480156101c557600080fd5b506101e060048036038101906101db9190611170565b610b05565b005b600560003373ffffffffffffffffffffffffffffffffffffffff1673ffffffffffffffffffffffffffffffffffffffff16815260200190815260200160002054821115610264576040517f08c379a000000000000000000000000000000000000000000000000000000000815260040161025b906111fa565b60405180910390fd5b81600560003373ffffffffffffffffffffffffffffffffffffffff1673ffffffffffffffffffffffffffffffffffffffff16815260200190815260200160002060008282546102b39190611249565b925050819055508073ffffffffffffffffffffffffffffffffffffffff166108fc839081150290604051600060405180830381858888f19350505050158015610300573d6000803e3d6000fd5b505050565b60026000540361034a576040517f08c379a0000000000000000000000000000000000000000000000000000000008152600401610341906112c9565b60405180910390fd5b6002600081905550600061037f600360009054906101000a900473ffffffffffffffffffffffffffffffffffffffff16610bfc565b90508073ffffffffffffffffffffffffffffffffffffffff1663a6487c538888888888886040518763ffffffff1660e01b81526004016103c496959493929190611336565b600060405180830381600087803b1580156103de57600080fd5b505af11580156103f2573d6000803e3d6000fd5b505050506002819080600181540180825580915050600190039060005260206000200160009091909190916101000a81548173ffffffffffffffffffffffffffffffffffffffff021916908373ffffffffffffffffffffffffffffffffffffffff1602179055503373ffffffffffffffffffffffffffffffffffffffff168173ffffffffffffffffffffffffffffffffffffffff167f27bd997932ca47d271a0b4c3fba42e35c3c90bc1e24155b7c11f6bcf3a42b49c60405160405180910390a3506001600081905550505050505050565b600360009054906101000a900473ffffffffffffffffffffffffffffffffffffffff1681565b6060600280548060200260200160405190810160405280929190818152602001828054801561056e57602002820191906000526020600020905b8160009054906101000a900473ffffffffffffffffffffffffffffffffffffffff1673ffffffffffffffffffffffffffffffffffffffff1681526020019060010190808311610524575b5050505050905090565b610580610cd0565b73ffffffffffffffffffffffffffffffffffffffff1661059e61087c565b73ffffffffffffffffffffffffffffffffffffffff16146105f4576040517f08c379a00000000000000000000000000000000000000000000000000000000081526004016105eb906113d4565b60405180910390fd5b6105fe6000610cd8565b565b60008290503373ffffffffffffffffffffffffffffffffffffffff168173ffffffffffffffffffffffffffffffffffffffff16636352211e846040518263ffffffff1660e01b81526004016106559190611403565b602060405180830381865afa158015610672573d6000803e3d6000fd5b505050506040513d601f19601f820116820180604052508101906106969190611433565b73ffffffffffffffffffffffffffffffffffffffff16146106ec576040517f08c379a00000000000000000000000000000000000000000000000000000000081526004016106e3906114ac565b60405180910390fd5b8073ffffffffffffffffffffffffffffffffffffffff1663e985e9c533306040518363ffffffff1660e01b81526004016107279291906114cc565b602060405180830381865afa158015610744573d6000803e3d6000fd5b505050506040513d601f19601f82011682018060405250810190610768919061152d565b6107a7576040517f08c379a000000000000000000000000000000000000000000000000000000000815260040161079e906115a6565b60405180910390fd5b60405180604001604052808581526020013373ffffffffffffffffffffffffffffffffffffffff16815250600460008573ffffffffffffffffffffffffffffffffffffffff1673ffffffffffffffffffffffffffffffffffffffff16815260200190815260200160002060008481526020019081526020016000206000820151816000015560208201518160010160006101000a81548173ffffffffffffffffffffffffffffffffffffffff021916908373ffffffffffffffffffffffffffffffffffffffff16021790555090505050505050565b6000600160009054906101000a900473ffffffffffffffffffffffffffffffffffffffff16905090565b6000600460008473ffffffffffffffffffffffffffffffffffffffff1673ffffffffffffffffffffffffffffffffffffffff1681526020019081526020016000206000838152602001908152602001600020604051806040016040529081600082015481526020016001820160009054906101000a900473ffffffffffffffffffffffffffffffffffffffff1673ffffffffffffffffffffffffffffffffffffffff1673ffffffffffffffffffffffffffffffffffffffff16815250509050806000015134116109ab576040517f08c379a00000000000000000000000000000000000000000000000000000000081526004016109a2906111fa565b60405180910390fd5b600460008473ffffffffffffffffffffffffffffffffffffffff1673ffffffffffffffffffffffffffffffffffffffff16815260200190815260200160002060008381526020019081526020016000206000808201600090556001820160006101000a81549073ffffffffffffffffffffffffffffffffffffffff021916905550503460056000836020015173ffffffffffffffffffffffffffffffffffffffff1673ffffffffffffffffffffffffffffffffffffffff1681526020019081526020016000206000828254610a8091906115c6565b9250508190555060008390508073ffffffffffffffffffffffffffffffffffffffff166342842e0e836020015133866040518463ffffffff1660e01b8152600401610acd9392919061161c565b600060405180830381600087803b158015610ae757600080fd5b505af1158015610afb573d6000803e3d6000fd5b5050505050505050565b610b0d610cd0565b73ffffffffffffffffffffffffffffffffffffffff16610b2b61087c565b73ffffffffffffffffffffffffffffffffffffffff1614610b81576040517f08c379a0000000000000000000000000000000000000000000000000000000008152600401610b78906113d4565b60405180910390fd5b600073ffffffffffffffffffffffffffffffffffffffff168173ffffffffffffffffffffffffffffffffffffffff1603610bf0576040517f08c379a0000000000000000000000000000000000000000000000000000000008152600401610be7906116c5565b60405180910390fd5b610bf981610cd8565b50565b60006040517f3d602d80600a3d3981f3363d3d373d3d3d363d7300000000000000000000000081528260601b60148201527f5af43d82803e903d91602b57fd5bf3000000000000000000000000000000000060288201526037816000f0915050600073ffffffffffffffffffffffffffffffffffffffff168173ffffffffffffffffffffffffffffffffffffffff1603610ccb576040517f08c379a0000000000000000000000000000000000000000000000000000000008152600401610cc290611731565b60405180910390fd5b919050565b600033905090565b6000600160009054906101000a900473ffffffffffffffffffffffffffffffffffffffff16905081600160006101000a81548173ffffffffffffffffffffffffffffffffffffffff021916908373ffffffffffffffffffffffffffffffffffffffff1602179055508173ffffffffffffffffffffffffffffffffffffffff168173ffffffffffffffffffffffffffffffffffffffff167f8be0079c531659141344cd1fd0a4f28419497f9722a3daafe3b4186f6b6457e060405160405180910390a35050565b600080fd5b600080fd5b6000819050919050565b610dbb81610da8565b8114610dc657600080fd5b50565b600081359050610dd881610db2565b92915050565b600073ffffffffffffffffffffffffffffffffffffffff82169050919050565b6000610e0982610dde565b9050919050565b610e1981610dfe565b8114610e2457600080fd5b50565b600081359050610e3681610e10565b92915050565b60008060408385031215610e5357610e52610d9e565b5b6000610e6185828601610dc9565b9250506020610e7285828601610e27565b9150509250929050565b600080fd5b600080fd5b600080fd5b60008083601f840112610ea157610ea0610e7c565b5b8235905067ffffffffffffffff811115610ebe57610ebd610e81565b5b602083019150836001820283011115610eda57610ed9610e86565b5b9250929050565b60008060008060008060608789031215610efe57610efd610d9e565b5b600087013567ffffffffffffffff811115610f1c57610f1b610da3565b5b610f2889828a01610e8b565b9650965050602087013567ffffffffffffffff811115610f4b57610f4a610da3565b5b610f5789828a01610e8b565b9450945050604087013567ffffffffffffffff811115610f7a57610f79610da3565b5b610f8689828a01610e8b565b92509250509295509295509295565b6000610fa082610dde565b9050919050565b610fb081610f95565b82525050565b6000602082019050610fcb6000830184610fa7565b92915050565b600081519050919050565b600082825260208201905092915050565b6000819050602082019050919050565b61100681610f95565b82525050565b60006110188383610ffd565b60208301905092915050565b6000602082019050919050565b600061103c82610fd1565b6110468185610fdc565b935061105183610fed565b8060005b83811015611082578151611069888261100c565b975061107483611024565b925050600181019050611055565b5085935050505092915050565b600060208201905081810360008301526110a98184611031565b905092915050565b6110ba81610f95565b81146110c557600080fd5b50565b6000813590506110d7816110b1565b92915050565b6000806000606084860312156110f6576110f5610d9e565b5b600061110486828701610dc9565b9350506020611115868287016110c8565b925050604061112686828701610dc9565b9150509250925092565b6000806040838503121561114757611146610d9e565b5b6000611155858286016110c8565b925050602061116685828601610dc9565b9150509250929050565b60006020828403121561118657611185610d9e565b5b6000611194848285016110c8565b91505092915050565b600082825260208201905092915050565b7f496e73756666696369656e742066756e64730000000000000000000000000000600082015250565b60006111e460128361119d565b91506111ef826111ae565b602082019050919050565b60006020820190508181036000830152611213816111d7565b9050919050565b7f4e487b7100000000000000000000000000000000000000000000000000000000600052601160045260246000fd5b600061125482610da8565b915061125f83610da8565b9250828210156112725761127161121a565b5b828203905092915050565b7f5265656e7472616e637947756172643a207265656e7472616e742063616c6c00600082015250565b60006112b3601f8361119d565b91506112be8261127d565b602082019050919050565b600060208201905081810360008301526112e2816112a6565b9050919050565b82818337600083830152505050565b6000601f19601f8301169050919050565b6000611315838561119d565b93506113228385846112e9565b61132b836112f8565b840190509392505050565b6000606082019050818103600083015261135181888a611309565b90508181036020830152611366818688611309565b9050818103604083015261137b818486611309565b9050979650505050505050565b7f4f776e61626c653a2063616c6c6572206973206e6f7420746865206f776e6572600082015250565b60006113be60208361119d565b91506113c982611388565b602082019050919050565b600060208201905081810360008301526113ed816113b1565b9050919050565b6113fd81610da8565b82525050565b600060208201905061141860008301846113f4565b92915050565b60008151905061142d816110b1565b92915050565b60006020828403121561144957611448610d9e565b5b60006114578482850161141e565b91505092915050565b7f43616c6c6572206d757374206f776e2074686520746f6b656e00000000000000600082015250565b600061149660198361119d565b91506114a182611460565b602082019050919050565b600060208201905081810360008301526114c581611489565b9050919050565b60006040820190506114e16000830185610fa7565b6114ee6020830184610fa7565b9392505050565b60008115159050919050565b61150a816114f5565b811461151557600080fd5b50565b60008151905061152781611501565b92915050565b60006020828403121561154357611542610d9e565b5b600061155184828501611518565b91505092915050565b7f4e465420436f6c6c656374696f6e206d75737420626520617070726f76656400600082015250565b6000611590601f8361119d565b915061159b8261155a565b602082019050919050565b600060208201905081810360008301526115bf81611583565b9050919050565b60006115d182610da8565b91506115dc83610da8565b9250827fffffffffffffffffffffffffffffffffffffffffffffffffffffffffffffffff038211156116115761161061121a565b5b828201905092915050565b60006060820190506116316000830186610fa7565b61163e6020830185610fa7565b61164b60408301846113f4565b949350505050565b7f4f776e61626c653a206e6577206f776e657220697320746865207a65726f206160008201527f6464726573730000000000000000000000000000000000000000000000000000602082015250565b60006116af60268361119d565b91506116ba82611653565b604082019050919050565b600060208201905081810360008301526116de816116a2565b9050919050565b7f455243313136373a20637265617465206661696c656400000000000000000000600082015250565b600061171b60168361119d565b9150611726826116e5565b602082019050919050565b6000602082019050818103600083015261174a8161170e565b905091905056fea2646970667358221220e326ddac41a13bcdeb74ea5d37be5813279ff2b3ee165de61e1408548514d04864736f6c634300080d0033",
  "linkReferences": {},
  "deployedLinkReferences": {}
}