{
  "_format": "hh-sol-artifact-1",
  "contractName": "Marketplace",
  "sourceName": "contracts/marketplace.sol",
  "abi": [
    {
      "inputs": [
        {
          "internalType": "address",
          "name": "_NFTCollectionImplementation",
          "type": "address"
        }
      ],
      "stateMutability": "payable",
      "type": "constructor"
    },
    {
      "anonymous": false,
      "inputs": [
        {
          "indexed": true,
          "internalType": "address",
          "name": "NFTCollectionAddress",
          "type": "address"
        },
        {
          "indexed": true,
          "internalType": "address",
          "name": "buyer",
          "type": "address"
        },
        {
          "indexed": false,
          "internalType": "address",
          "name": "seller",
          "type": "address"
        },
        {
          "indexed": false,
          "internalType": "uint256",
          "name": "amount",
          "type": "uint256"
        },
        {
          "indexed": true,
          "internalType": "uint256",
          "name": "tokenId",
          "type": "uint256"
        }
      ],
      "name": "AcceptOffer",
      "type": "event"
    },
    {
      "anonymous": false,
      "inputs": [
        {
          "indexed": true,
          "internalType": "address",
          "name": "NFTCollectionAddress",
          "type": "address"
        },
        {
          "indexed": true,
          "internalType": "uint256",
          "name": "tokenId",
          "type": "uint256"
        },
        {
          "indexed": false,
          "internalType": "address",
          "name": "caller",
          "type": "address"
        }
      ],
      "name": "CancelListing",
      "type": "event"
    },
    {
      "anonymous": false,
      "inputs": [
        {
          "indexed": true,
          "internalType": "address",
          "name": "NFTCollectionAddress",
          "type": "address"
        },
        {
          "indexed": true,
          "internalType": "address",
          "name": "bidder",
          "type": "address"
        },
        {
          "indexed": false,
          "internalType": "uint256",
          "name": "amount",
          "type": "uint256"
        },
        {
          "indexed": true,
          "internalType": "uint256",
          "name": "tokenId",
          "type": "uint256"
        }
      ],
      "name": "CancelOffer",
      "type": "event"
    },
    {
      "anonymous": false,
      "inputs": [
        {
          "indexed": true,
          "internalType": "address",
          "name": "contractAddr",
          "type": "address"
        },
        {
          "indexed": true,
          "internalType": "address",
          "name": "author",
          "type": "address"
        },
        {
          "indexed": false,
          "internalType": "string",
          "name": "name",
          "type": "string"
        },
        {
          "indexed": false,
          "internalType": "string",
          "name": "description",
          "type": "string"
        },
        {
          "indexed": false,
          "internalType": "string",
          "name": "symbol",
          "type": "string"
        }
      ],
      "name": "NFTCollectionCreated",
      "type": "event"
    },
    {
      "anonymous": false,
      "inputs": [
        {
          "indexed": true,
          "internalType": "address",
          "name": "NFTCollectionAddress",
          "type": "address"
        },
        {
          "indexed": true,
          "internalType": "address",
          "name": "bidder",
          "type": "address"
        },
        {
          "indexed": false,
          "internalType": "uint256",
          "name": "amount",
          "type": "uint256"
        },
        {
          "indexed": true,
          "internalType": "uint256",
          "name": "tokenId",
          "type": "uint256"
        }
      ],
      "name": "OfferPlaced",
      "type": "event"
    },
    {
      "anonymous": false,
      "inputs": [
        {
          "indexed": true,
          "internalType": "address",
          "name": "previousOwner",
          "type": "address"
        },
        {
          "indexed": true,
          "internalType": "address",
          "name": "newOwner",
          "type": "address"
        }
      ],
      "name": "OwnershipTransferred",
      "type": "event"
    },
    {
      "anonymous": false,
      "inputs": [
        {
          "indexed": true,
          "internalType": "address",
          "name": "NFTCollectionAddress",
          "type": "address"
        },
        {
          "indexed": true,
          "internalType": "uint256",
          "name": "tokenId",
          "type": "uint256"
        },
        {
          "indexed": true,
          "internalType": "address",
          "name": "seller",
          "type": "address"
        },
        {
          "indexed": false,
          "internalType": "uint256",
          "name": "price",
          "type": "uint256"
        }
      ],
      "name": "SetListing",
      "type": "event"
    },
    {
      "anonymous": false,
      "inputs": [
        {
          "indexed": true,
          "internalType": "address",
          "name": "NFTCollectionAddress",
          "type": "address"
        },
        {
          "indexed": true,
          "internalType": "address",
          "name": "buyer",
          "type": "address"
        },
        {
          "indexed": false,
          "internalType": "address",
          "name": "seller",
          "type": "address"
        },
        {
          "indexed": true,
          "internalType": "uint256",
          "name": "tokenId",
          "type": "uint256"
        },
        {
          "indexed": false,
          "internalType": "uint256",
          "name": "price",
          "type": "uint256"
        }
      ],
      "name": "Sold",
      "type": "event"
    },
    {
      "anonymous": false,
      "inputs": [
        {
          "indexed": true,
          "internalType": "address",
          "name": "creator",
          "type": "address"
        }
      ],
      "name": "WhitelistCreator",
      "type": "event"
    },
    {
      "inputs": [],
      "name": "NFTCollectionImplementation",
      "outputs": [
        {
          "internalType": "address",
          "name": "",
          "type": "address"
        }
      ],
      "stateMutability": "view",
      "type": "function"
    },
    {
      "inputs": [
        {
          "internalType": "address",
          "name": "NFTCollectionAddress",
          "type": "address"
        },
        {
          "internalType": "uint256",
          "name": "tokenId",
          "type": "uint256"
        }
      ],
      "name": "acceptOffer",
      "outputs": [],
      "stateMutability": "nonpayable",
      "type": "function"
    },
    {
      "inputs": [
        {
          "internalType": "address",
          "name": "creator",
          "type": "address"
        }
      ],
      "name": "addCreatorToWhitelist",
      "outputs": [],
      "stateMutability": "nonpayable",
      "type": "function"
    },
    {
      "inputs": [
        {
          "internalType": "address",
          "name": "NFTCollectionAddress",
          "type": "address"
        },
        {
          "internalType": "uint256",
          "name": "tokenId",
          "type": "uint256"
        }
      ],
      "name": "buy",
      "outputs": [],
      "stateMutability": "payable",
      "type": "function"
    },
    {
      "inputs": [
        {
          "internalType": "address",
          "name": "NFTCollectionAddress",
          "type": "address"
        },
        {
          "internalType": "uint256",
          "name": "tokenId",
          "type": "uint256"
        }
      ],
      "name": "cancelListing",
      "outputs": [],
      "stateMutability": "nonpayable",
      "type": "function"
    },
    {
      "inputs": [
        {
          "internalType": "address",
          "name": "NFTCollectionAddress",
          "type": "address"
        },
        {
          "internalType": "uint256",
          "name": "tokenId",
          "type": "uint256"
        }
      ],
      "name": "cancelOffer",
      "outputs": [],
      "stateMutability": "nonpayable",
      "type": "function"
    },
    {
      "inputs": [
        {
          "internalType": "string",
          "name": "name",
          "type": "string"
        },
        {
          "internalType": "string",
          "name": "symbol",
          "type": "string"
        },
        {
          "internalType": "string",
          "name": "description",
          "type": "string"
        }
      ],
      "name": "createNftContract",
      "outputs": [],
      "stateMutability": "nonpayable",
      "type": "function"
    },
    {
      "inputs": [
        {
          "internalType": "address",
          "name": "NFTCollectionAddress",
          "type": "address"
        },
        {
          "internalType": "uint256",
          "name": "tokenId",
          "type": "uint256"
        }
      ],
      "name": "offer",
      "outputs": [],
      "stateMutability": "payable",
      "type": "function"
    },
    {
      "inputs": [],
      "name": "owner",
      "outputs": [
        {
          "internalType": "address",
          "name": "",
          "type": "address"
        }
      ],
      "stateMutability": "view",
      "type": "function"
    },
    {
      "inputs": [],
      "name": "renounceOwnership",
      "outputs": [],
      "stateMutability": "nonpayable",
      "type": "function"
    },
    {
      "inputs": [
        {
          "internalType": "uint256",
          "name": "price",
          "type": "uint256"
        },
        {
          "internalType": "address",
          "name": "NFTCollectionAddress",
          "type": "address"
        },
        {
          "internalType": "uint256",
          "name": "tokenId",
          "type": "uint256"
        }
      ],
      "name": "setListing",
      "outputs": [],
      "stateMutability": "nonpayable",
      "type": "function"
    },
    {
      "inputs": [
        {
          "internalType": "address",
          "name": "newOwner",
          "type": "address"
        }
      ],
      "name": "transferOwnership",
      "outputs": [],
      "stateMutability": "nonpayable",
      "type": "function"
    }
  ],
  "bytecode": "0x60806040526040516200307c3803806200307c8339818101604052810190620000299190620001d1565b600160008190555062000051620000456200009960201b60201c565b620000a160201b60201c565b80600360006101000a81548173ffffffffffffffffffffffffffffffffffffffff021916908373ffffffffffffffffffffffffffffffffffffffff1602179055505062000203565b600033905090565b6000600160009054906101000a900473ffffffffffffffffffffffffffffffffffffffff16905081600160006101000a81548173ffffffffffffffffffffffffffffffffffffffff021916908373ffffffffffffffffffffffffffffffffffffffff1602179055508173ffffffffffffffffffffffffffffffffffffffff168173ffffffffffffffffffffffffffffffffffffffff167f8be0079c531659141344cd1fd0a4f28419497f9722a3daafe3b4186f6b6457e060405160405180910390a35050565b600080fd5b600073ffffffffffffffffffffffffffffffffffffffff82169050919050565b600062000199826200016c565b9050919050565b620001ab816200018c565b8114620001b757600080fd5b50565b600081519050620001cb81620001a0565b92915050565b600060208284031215620001ea57620001e962000167565b5b6000620001fa84828501620001ba565b91505092915050565b612e6980620002136000396000f3fe6080604052600436106100a75760003560e01c80638da5cb5b116100645780638da5cb5b14610185578063b1b9e78d146101b0578063b2ddee06146101d9578063c671369214610202578063cce7ec131461022b578063f2fde38b14610247576100a7565b8063058a56ac146100ac578063127806ea146100d55780632a2a29cf146100fe57806336022a56146101295780636b21296014610152578063715018a61461016e575b600080fd5b3480156100b857600080fd5b506100d360048036038101906100ce919061229b565b610270565b005b3480156100e157600080fd5b506100fc60048036038101906100f79190612340565b61057d565b005b34801561010a57600080fd5b506101136107e4565b6040516101209190612403565b60405180910390f35b34801561013557600080fd5b50610150600480360381019061014b919061241e565b61080a565b005b61016c6004803603810190610167919061229b565b610b79565b005b34801561017a57600080fd5b50610183610e9f565b005b34801561019157600080fd5b5061019a610f27565b6040516101a79190612403565b60405180910390f35b3480156101bc57600080fd5b506101d760048036038101906101d2919061229b565b610f51565b005b3480156101e557600080fd5b5061020060048036038101906101fb919061229b565b61151e565b005b34801561020e57600080fd5b5061022960048036038101906102249190612471565b6116e4565b005b6102456004803603810190610240919061229b565b6117fe565b005b34801561025357600080fd5b5061026e60048036038101906102699190612471565b611f64565b005b6002600054036102b5576040517f08c379a00000000000000000000000000000000000000000000000000000000081526004016102ac906124fb565b60405180910390fd5b60026000819055506000600560008473ffffffffffffffffffffffffffffffffffffffff1673ffffffffffffffffffffffffffffffffffffffff16815260200190815260200160002060008381526020019081526020016000206040518060400160405290816000820160009054906101000a900473ffffffffffffffffffffffffffffffffffffffff1673ffffffffffffffffffffffffffffffffffffffff1673ffffffffffffffffffffffffffffffffffffffff168152602001600182015481525050905060008160200151036103c3576040517f08c379a00000000000000000000000000000000000000000000000000000000081526004016103ba9061258d565b60405180910390fd5b3373ffffffffffffffffffffffffffffffffffffffff16816000015173ffffffffffffffffffffffffffffffffffffffff1614610435576040517f08c379a000000000000000000000000000000000000000000000000000000000815260040161042c9061261f565b60405180910390fd5b600560008473ffffffffffffffffffffffffffffffffffffffff1673ffffffffffffffffffffffffffffffffffffffff1681526020019081526020016000206000838152602001908152602001600020600080820160006101000a81549073ffffffffffffffffffffffffffffffffffffffff021916905560018201600090555050806000015173ffffffffffffffffffffffffffffffffffffffff166108fc82602001519081150290604051600060405180830381858888f19350505050158015610505573d6000803e3d6000fd5b50813373ffffffffffffffffffffffffffffffffffffffff168473ffffffffffffffffffffffffffffffffffffffff167fb699dfcdcc71df1f84bceb5357f84a70128c0f6d297f61aa4f4072e7efd8db028460200151604051610568919061264e565b60405180910390a45060016000819055505050565b60011515600660003373ffffffffffffffffffffffffffffffffffffffff1673ffffffffffffffffffffffffffffffffffffffff16815260200190815260200160002060009054906101000a900460ff16151514610610576040517f08c379a0000000000000000000000000000000000000000000000000000000008152600401610607906126b5565b60405180910390fd5b600260005403610655576040517f08c379a000000000000000000000000000000000000000000000000000000000815260040161064c906124fb565b60405180910390fd5b6002600081905550600061068a600360009054906101000a900473ffffffffffffffffffffffffffffffffffffffff1661205b565b90508073ffffffffffffffffffffffffffffffffffffffff1663a6487c538888888888886040518763ffffffff1660e01b81526004016106cf96959493929190612722565b600060405180830381600087803b1580156106e957600080fd5b505af11580156106fd573d6000803e3d6000fd5b505050506002819080600181540180825580915050600190039060005260206000200160009091909190916101000a81548173ffffffffffffffffffffffffffffffffffffffff021916908373ffffffffffffffffffffffffffffffffffffffff1602179055503373ffffffffffffffffffffffffffffffffffffffff168173ffffffffffffffffffffffffffffffffffffffff167f119d512615c757b46fb5dcbfa3ded7c1dcdf1ddf3e668be39ac3b1f5e3b0c5f0898987878b8b6040516107cb96959493929190612722565b60405180910390a3506001600081905550505050505050565b600360009054906101000a900473ffffffffffffffffffffffffffffffffffffffff1681565b818160008290503373ffffffffffffffffffffffffffffffffffffffff168173ffffffffffffffffffffffffffffffffffffffff16636352211e846040518263ffffffff1660e01b8152600401610861919061264e565b602060405180830381865afa15801561087e573d6000803e3d6000fd5b505050506040513d601f19601f820116820180604052508101906108a29190612789565b73ffffffffffffffffffffffffffffffffffffffff16146108f8576040517f08c379a00000000000000000000000000000000000000000000000000000000081526004016108ef90612802565b60405180910390fd5b8484600082905060008173ffffffffffffffffffffffffffffffffffffffff16636352211e846040518263ffffffff1660e01b815260040161093a919061264e565b602060405180830381865afa158015610957573d6000803e3d6000fd5b505050506040513d601f19601f8201168201806040525081019061097b9190612789565b90508173ffffffffffffffffffffffffffffffffffffffff1663e985e9c582306040518363ffffffff1660e01b81526004016109b8929190612822565b602060405180830381865afa1580156109d5573d6000803e3d6000fd5b505050506040513d601f19601f820116820180604052508101906109f99190612883565b610a38576040517f08c379a0000000000000000000000000000000000000000000000000000000008152600401610a2f90612922565b60405180910390fd5b60405180604001604052808b81526020013373ffffffffffffffffffffffffffffffffffffffff16815250600460008b73ffffffffffffffffffffffffffffffffffffffff1673ffffffffffffffffffffffffffffffffffffffff16815260200190815260200160002060008a81526020019081526020016000206000820151816000015560208201518160010160006101000a81548173ffffffffffffffffffffffffffffffffffffffff021916908373ffffffffffffffffffffffffffffffffffffffff1602179055509050503373ffffffffffffffffffffffffffffffffffffffff16888a73ffffffffffffffffffffffffffffffffffffffff167fcb9d2e00995827870e204b84ebdff47e5a2936fb775425c63151ecb95cf36b3c8d604051610b65919061264e565b60405180910390a450505050505050505050565b600260005403610bbe576040517f08c379a0000000000000000000000000000000000000000000000000000000008152600401610bb5906124fb565b60405180910390fd5b600260008190555060003411610c09576040517f08c379a0000000000000000000000000000000000000000000000000000000008152600401610c009061298e565b60405180910390fd5b6000600560008473ffffffffffffffffffffffffffffffffffffffff1673ffffffffffffffffffffffffffffffffffffffff16815260200190815260200160002060008381526020019081526020016000206040518060400160405290816000820160009054906101000a900473ffffffffffffffffffffffffffffffffffffffff1673ffffffffffffffffffffffffffffffffffffffff1673ffffffffffffffffffffffffffffffffffffffff168152602001600182015481525050905080602001513411610d0e576040517f08c379a0000000000000000000000000000000000000000000000000000000008152600401610d0590612a20565b60405180910390fd5b806000015173ffffffffffffffffffffffffffffffffffffffff166108fc82602001519081150290604051600060405180830381858888f19350505050158015610d5c573d6000803e3d6000fd5b5060405180604001604052803373ffffffffffffffffffffffffffffffffffffffff16815260200134815250600560008573ffffffffffffffffffffffffffffffffffffffff1673ffffffffffffffffffffffffffffffffffffffff168152602001908152602001600020600084815260200190815260200160002060008201518160000160006101000a81548173ffffffffffffffffffffffffffffffffffffffff021916908373ffffffffffffffffffffffffffffffffffffffff16021790555060208201518160010155905050813373ffffffffffffffffffffffffffffffffffffffff168473ffffffffffffffffffffffffffffffffffffffff167f9e0c3243d933df21dbf7144ea4f3d1d005a31476d93ef5480ab56eea602d2ee234604051610e8a919061264e565b60405180910390a45060016000819055505050565b610ea761212f565b73ffffffffffffffffffffffffffffffffffffffff16610ec5610f27565b73ffffffffffffffffffffffffffffffffffffffff1614610f1b576040517f08c379a0000000000000000000000000000000000000000000000000000000008152600401610f1290612a8c565b60405180910390fd5b610f256000612137565b565b6000600160009054906101000a900473ffffffffffffffffffffffffffffffffffffffff16905090565b600260005403610f96576040517f08c379a0000000000000000000000000000000000000000000000000000000008152600401610f8d906124fb565b60405180910390fd5b6002600081905550818160008290503373ffffffffffffffffffffffffffffffffffffffff168173ffffffffffffffffffffffffffffffffffffffff16636352211e846040518263ffffffff1660e01b8152600401610ff5919061264e565b602060405180830381865afa158015611012573d6000803e3d6000fd5b505050506040513d601f19601f820116820180604052508101906110369190612789565b73ffffffffffffffffffffffffffffffffffffffff161461108c576040517f08c379a000000000000000000000000000000000000000000000000000000000815260040161108390612802565b60405180910390fd5b8484600082905060008173ffffffffffffffffffffffffffffffffffffffff16636352211e846040518263ffffffff1660e01b81526004016110ce919061264e565b602060405180830381865afa1580156110eb573d6000803e3d6000fd5b505050506040513d601f19601f8201168201806040525081019061110f9190612789565b90508173ffffffffffffffffffffffffffffffffffffffff1663e985e9c582306040518363ffffffff1660e01b815260040161114c929190612822565b602060405180830381865afa158015611169573d6000803e3d6000fd5b505050506040513d601f19601f8201168201806040525081019061118d9190612883565b6111cc576040517f08c379a00000000000000000000000000000000000000000000000000000000081526004016111c390612922565b60405180910390fd5b6000600560008b73ffffffffffffffffffffffffffffffffffffffff1673ffffffffffffffffffffffffffffffffffffffff16815260200190815260200160002060008a81526020019081526020016000206040518060400160405290816000820160009054906101000a900473ffffffffffffffffffffffffffffffffffffffff1673ffffffffffffffffffffffffffffffffffffffff1673ffffffffffffffffffffffffffffffffffffffff168152602001600182015481525050905060008160200151036112d2576040517f08c379a00000000000000000000000000000000000000000000000000000000081526004016112c990612af8565b60405180910390fd5b600460008b73ffffffffffffffffffffffffffffffffffffffff1673ffffffffffffffffffffffffffffffffffffffff16815260200190815260200160002060008a81526020019081526020016000206000808201600090556001820160006101000a81549073ffffffffffffffffffffffffffffffffffffffff02191690555050600560008b73ffffffffffffffffffffffffffffffffffffffff1673ffffffffffffffffffffffffffffffffffffffff16815260200190815260200160002060008a8152602001908152602001600020600080820160006101000a81549073ffffffffffffffffffffffffffffffffffffffff02191690556001820160009055505060008a90508073ffffffffffffffffffffffffffffffffffffffff166342842e0e3384600001518d6040518463ffffffff1660e01b815260040161141c93929190612b77565b600060405180830381600087803b15801561143657600080fd5b505af115801561144a573d6000803e3d6000fd5b505050503373ffffffffffffffffffffffffffffffffffffffff166108fc83602001519081150290604051600060405180830381858888f19350505050158015611498573d6000803e3d6000fd5b5089826000015173ffffffffffffffffffffffffffffffffffffffff168c73ffffffffffffffffffffffffffffffffffffffff167f167d5806d4c5a5199290b03eea54d6f441da76dce288fce52a6e53e5a1af7097338660200151604051611501929190612bae565b60405180910390a450505050505050505060016000819055505050565b818160008290503373ffffffffffffffffffffffffffffffffffffffff168173ffffffffffffffffffffffffffffffffffffffff16636352211e846040518263ffffffff1660e01b8152600401611575919061264e565b602060405180830381865afa158015611592573d6000803e3d6000fd5b505050506040513d601f19601f820116820180604052508101906115b69190612789565b73ffffffffffffffffffffffffffffffffffffffff161461160c576040517f08c379a000000000000000000000000000000000000000000000000000000000815260040161160390612802565b60405180910390fd5b600460008673ffffffffffffffffffffffffffffffffffffffff1673ffffffffffffffffffffffffffffffffffffffff16815260200190815260200160002060008581526020019081526020016000206000808201600090556001820160006101000a81549073ffffffffffffffffffffffffffffffffffffffff02191690555050838573ffffffffffffffffffffffffffffffffffffffff167f2c2db9428397de6ac1baf4467a3ee0f1e70507a8a9708e1e52ac0bd86a37640f336040516116d59190612403565b60405180910390a35050505050565b6116ec61212f565b73ffffffffffffffffffffffffffffffffffffffff1661170a610f27565b73ffffffffffffffffffffffffffffffffffffffff1614611760576040517f08c379a000000000000000000000000000000000000000000000000000000000815260040161175790612a8c565b60405180910390fd5b6001600660008373ffffffffffffffffffffffffffffffffffffffff1673ffffffffffffffffffffffffffffffffffffffff16815260200190815260200160002060006101000a81548160ff0219169083151502179055508073ffffffffffffffffffffffffffffffffffffffff167f55eed0aed3ec6e015b9ad5e984675fe36c0ce3aebdcb70f467670773f19f7f8d60405160405180910390a250565b8181600082905060008173ffffffffffffffffffffffffffffffffffffffff16636352211e846040518263ffffffff1660e01b8152600401611840919061264e565b602060405180830381865afa15801561185d573d6000803e3d6000fd5b505050506040513d601f19601f820116820180604052508101906118819190612789565b90508173ffffffffffffffffffffffffffffffffffffffff1663e985e9c582306040518363ffffffff1660e01b81526004016118be929190612822565b602060405180830381865afa1580156118db573d6000803e3d6000fd5b505050506040513d601f19601f820116820180604052508101906118ff9190612883565b61193e576040517f08c379a000000000000000000000000000000000000000000000000000000000815260040161193590612922565b60405180910390fd5b600260005403611983576040517f08c379a000000000000000000000000000000000000000000000000000000000815260040161197a906124fb565b60405180910390fd5b60026000819055506000600460008873ffffffffffffffffffffffffffffffffffffffff1673ffffffffffffffffffffffffffffffffffffffff1681526020019081526020016000206000878152602001908152602001600020604051806040016040529081600082015481526020016001820160009054906101000a900473ffffffffffffffffffffffffffffffffffffffff1673ffffffffffffffffffffffffffffffffffffffff1673ffffffffffffffffffffffffffffffffffffffff16815250509050600087905060008173ffffffffffffffffffffffffffffffffffffffff16636352211e896040518263ffffffff1660e01b8152600401611a8a919061264e565b602060405180830381865afa158015611aa7573d6000803e3d6000fd5b505050506040513d601f19601f82011682018060405250810190611acb9190612789565b9050826020015173ffffffffffffffffffffffffffffffffffffffff168173ffffffffffffffffffffffffffffffffffffffff1614611b3f576040517f08c379a0000000000000000000000000000000000000000000000000000000008152600401611b3690612c49565b60405180910390fd5b82600001513414611b85576040517f08c379a0000000000000000000000000000000000000000000000000000000008152600401611b7c90612cb5565b60405180910390fd5b826020015173ffffffffffffffffffffffffffffffffffffffff163373ffffffffffffffffffffffffffffffffffffffff1603611bc157600080fd5b6000836000015111611bd257600080fd5b600460008a73ffffffffffffffffffffffffffffffffffffffff1673ffffffffffffffffffffffffffffffffffffffff16815260200190815260200160002060008981526020019081526020016000206000808201600090556001820160006101000a81549073ffffffffffffffffffffffffffffffffffffffff021916905550506000600560008b73ffffffffffffffffffffffffffffffffffffffff1673ffffffffffffffffffffffffffffffffffffffff16815260200190815260200160002060008a81526020019081526020016000206040518060400160405290816000820160009054906101000a900473ffffffffffffffffffffffffffffffffffffffff1673ffffffffffffffffffffffffffffffffffffffff1673ffffffffffffffffffffffffffffffffffffffff16815260200160018201548152505090503373ffffffffffffffffffffffffffffffffffffffff16816000015173ffffffffffffffffffffffffffffffffffffffff1603611e1c57600560008b73ffffffffffffffffffffffffffffffffffffffff1673ffffffffffffffffffffffffffffffffffffffff16815260200190815260200160002060008a8152602001908152602001600020600080820160006101000a81549073ffffffffffffffffffffffffffffffffffffffff021916905560018201600090555050806000015173ffffffffffffffffffffffffffffffffffffffff166108fc82602001519081150290604051600060405180830381858888f19350505050158015611e1a573d6000803e3d6000fd5b505b60008a90508073ffffffffffffffffffffffffffffffffffffffff166342842e0e8660200151338d6040518463ffffffff1660e01b8152600401611e6293929190612cd5565b600060405180830381600087803b158015611e7c57600080fd5b505af1158015611e90573d6000803e3d6000fd5b50505050846020015173ffffffffffffffffffffffffffffffffffffffff166108fc349081150290604051600060405180830381858888f19350505050158015611ede573d6000803e3d6000fd5b50893373ffffffffffffffffffffffffffffffffffffffff168c73ffffffffffffffffffffffffffffffffffffffff167f5764dbcef91eb6f946584f4ea671217c686fa7e858ce4f9f42d08422b86556a988602001518960000151604051611f47929190612d0c565b60405180910390a450505050506001600081905550505050505050565b611f6c61212f565b73ffffffffffffffffffffffffffffffffffffffff16611f8a610f27565b73ffffffffffffffffffffffffffffffffffffffff1614611fe0576040517f08c379a0000000000000000000000000000000000000000000000000000000008152600401611fd790612a8c565b60405180910390fd5b600073ffffffffffffffffffffffffffffffffffffffff168173ffffffffffffffffffffffffffffffffffffffff160361204f576040517f08c379a000000000000000000000000000000000000000000000000000000000815260040161204690612da7565b60405180910390fd5b61205881612137565b50565b60006040517f3d602d80600a3d3981f3363d3d373d3d3d363d7300000000000000000000000081528260601b60148201527f5af43d82803e903d91602b57fd5bf3000000000000000000000000000000000060288201526037816000f0915050600073ffffffffffffffffffffffffffffffffffffffff168173ffffffffffffffffffffffffffffffffffffffff160361212a576040517f08c379a000000000000000000000000000000000000000000000000000000000815260040161212190612e13565b60405180910390fd5b919050565b600033905090565b6000600160009054906101000a900473ffffffffffffffffffffffffffffffffffffffff16905081600160006101000a81548173ffffffffffffffffffffffffffffffffffffffff021916908373ffffffffffffffffffffffffffffffffffffffff1602179055508173ffffffffffffffffffffffffffffffffffffffff168173ffffffffffffffffffffffffffffffffffffffff167f8be0079c531659141344cd1fd0a4f28419497f9722a3daafe3b4186f6b6457e060405160405180910390a35050565b600080fd5b600080fd5b600073ffffffffffffffffffffffffffffffffffffffff82169050919050565b600061223282612207565b9050919050565b61224281612227565b811461224d57600080fd5b50565b60008135905061225f81612239565b92915050565b6000819050919050565b61227881612265565b811461228357600080fd5b50565b6000813590506122958161226f565b92915050565b600080604083850312156122b2576122b16121fd565b5b60006122c085828601612250565b92505060206122d185828601612286565b9150509250929050565b600080fd5b600080fd5b600080fd5b60008083601f840112612300576122ff6122db565b5b8235905067ffffffffffffffff81111561231d5761231c6122e0565b5b602083019150836001820283011115612339576123386122e5565b5b9250929050565b6000806000806000806060878903121561235d5761235c6121fd565b5b600087013567ffffffffffffffff81111561237b5761237a612202565b5b61238789828a016122ea565b9650965050602087013567ffffffffffffffff8111156123aa576123a9612202565b5b6123b689828a016122ea565b9450945050604087013567ffffffffffffffff8111156123d9576123d8612202565b5b6123e589828a016122ea565b92509250509295509295509295565b6123fd81612227565b82525050565b600060208201905061241860008301846123f4565b92915050565b600080600060608486031215612437576124366121fd565b5b600061244586828701612286565b935050602061245686828701612250565b925050604061246786828701612286565b9150509250925092565b600060208284031215612487576124866121fd565b5b600061249584828501612250565b91505092915050565b600082825260208201905092915050565b7f5265656e7472616e637947756172643a207265656e7472616e742063616c6c00600082015250565b60006124e5601f8361249e565b91506124f0826124af565b602082019050919050565b60006020820190508181036000830152612514816124d8565b9050919050565b7f63616e63656c4f666665723a3a4e6f206f6666657220666f722063757272656e60008201527f6379206578697374732e00000000000000000000000000000000000000000000602082015250565b6000612577602a8361249e565b91506125828261251b565b604082019050919050565b600060208201905081810360008301526125a68161256a565b9050919050565b7f63616e63656c4f666665723a3a53656e646572206d757374206861766520706c60008201527f6163656420746865206f666665722e0000000000000000000000000000000000602082015250565b6000612609602f8361249e565b9150612614826125ad565b604082019050919050565b60006020820190508181036000830152612638816125fc565b9050919050565b61264881612265565b82525050565b6000602082019050612663600083018461263f565b92915050565b7f43616c6c6572206d75737420626520612063726561746f720000000000000000600082015250565b600061269f60188361249e565b91506126aa82612669565b602082019050919050565b600060208201905081810360008301526126ce81612692565b9050919050565b82818337600083830152505050565b6000601f19601f8301169050919050565b6000612701838561249e565b935061270e8385846126d5565b612717836126e4565b840190509392505050565b6000606082019050818103600083015261273d81888a6126f5565b905081810360208301526127528186886126f5565b905081810360408301526127678184866126f5565b9050979650505050505050565b60008151905061278381612239565b92915050565b60006020828403121561279f5761279e6121fd565b5b60006127ad84828501612774565b91505092915050565b7f43616c6c657220646f6573206e6f74206f776e2074686520746f6b656e000000600082015250565b60006127ec601d8361249e565b91506127f7826127b6565b602082019050919050565b6000602082019050818103600083015261281b816127df565b9050919050565b600060408201905061283760008301856123f4565b61284460208301846123f4565b9392505050565b60008115159050919050565b6128608161284b565b811461286b57600080fd5b50565b60008151905061287d81612857565b92915050565b600060208284031215612899576128986121fd565b5b60006128a78482850161286e565b91505092915050565b7f546f6b656e206f776e6572206861736e277420617070726f766564207468652060008201527f6d61726b6574706c616365206173206f70657261746f72000000000000000000602082015250565b600061290c60378361249e565b9150612917826128b0565b604082019050919050565b6000602082019050818103600083015261293b816128ff565b9050919050565b7f4f6666657220616d6f756e742063616e6e6f7420626520300000000000000000600082015250565b600061297860188361249e565b915061298382612942565b602082019050919050565b600060208201905081810360008301526129a78161296b565b9050919050565b7f4f66666572206d75737420626520686967686572207468616e2070726576696f60008201527f7573206f6e650000000000000000000000000000000000000000000000000000602082015250565b6000612a0a60268361249e565b9150612a15826129ae565b604082019050919050565b60006020820190508181036000830152612a39816129fd565b9050919050565b7f4f776e61626c653a2063616c6c6572206973206e6f7420746865206f776e6572600082015250565b6000612a7660208361249e565b9150612a8182612a40565b602082019050919050565b60006020820190508181036000830152612aa581612a69565b9050919050565b7f6163636570744f666665723a3a4e6f206f666665722065786973747300000000600082015250565b6000612ae2601c8361249e565b9150612aed82612aac565b602082019050919050565b60006020820190508181036000830152612b1181612ad5565b9050919050565b6000819050919050565b6000612b3d612b38612b3384612207565b612b18565b612207565b9050919050565b6000612b4f82612b22565b9050919050565b6000612b6182612b44565b9050919050565b612b7181612b56565b82525050565b6000606082019050612b8c60008301866123f4565b612b996020830185612b68565b612ba6604083018461263f565b949350505050565b6000604082019050612bc360008301856123f4565b612bd0602083018461263f565b9392505050565b7f4c697374696e672073657474657220697320646966666572656e742066726f6d60008201527f2063757272656e74206f776e6572000000000000000000000000000000000000602082015250565b6000612c33602e8361249e565b9150612c3e82612bd7565b604082019050919050565b60006020820190508181036000830152612c6281612c26565b9050919050565b7f496e73756666696369656e742066756e64730000000000000000000000000000600082015250565b6000612c9f60128361249e565b9150612caa82612c69565b602082019050919050565b60006020820190508181036000830152612cce81612c92565b9050919050565b6000606082019050612cea6000830186612b68565b612cf760208301856123f4565b612d04604083018461263f565b949350505050565b6000604082019050612d216000830185612b68565b612d2e602083018461263f565b9392505050565b7f4f776e61626c653a206e6577206f776e657220697320746865207a65726f206160008201527f6464726573730000000000000000000000000000000000000000000000000000602082015250565b6000612d9160268361249e565b9150612d9c82612d35565b604082019050919050565b60006020820190508181036000830152612dc081612d84565b9050919050565b7f455243313136373a20637265617465206661696c656400000000000000000000600082015250565b6000612dfd60168361249e565b9150612e0882612dc7565b602082019050919050565b60006020820190508181036000830152612e2c81612df0565b905091905056fea2646970667358221220ede771f9163f20c1a4a666bc7d03a084dcb92a1554eaedeffd1905d520dc0a0564736f6c634300080d0033",
  "linkReferences": {},
  "deployedLinkReferences": {}
}