{
  "_format": "hh-sol-artifact-1",
  "contractName": "AirQuake",
  "sourceName": "contracts/airQuakeV1.sol",
  "abi": [
    {
      "inputs": [],
      "stateMutability": "nonpayable",
      "type": "constructor"
    },
    {
      "anonymous": false,
      "inputs": [
        {
          "indexed": true,
          "internalType": "address",
          "name": "owner",
          "type": "address"
        },
        {
          "indexed": true,
          "internalType": "address",
          "name": "approved",
          "type": "address"
        },
        {
          "indexed": true,
          "internalType": "uint256",
          "name": "tokenId",
          "type": "uint256"
        }
      ],
      "name": "Approval",
      "type": "event"
    },
    {
      "anonymous": false,
      "inputs": [
        {
          "indexed": true,
          "internalType": "address",
          "name": "owner",
          "type": "address"
        },
        {
          "indexed": true,
          "internalType": "address",
          "name": "operator",
          "type": "address"
        },
        {
          "indexed": false,
          "internalType": "bool",
          "name": "approved",
          "type": "bool"
        }
      ],
      "name": "ApprovalForAll",
      "type": "event"
    },
    {
      "anonymous": false,
      "inputs": [
        {
          "indexed": true,
          "internalType": "address",
          "name": "previousOwner",
          "type": "address"
        },
        {
          "indexed": true,
          "internalType": "address",
          "name": "newOwner",
          "type": "address"
        }
      ],
      "name": "OwnershipTransferred",
      "type": "event"
    },
    {
      "anonymous": false,
      "inputs": [
        {
          "indexed": true,
          "internalType": "address",
          "name": "from",
          "type": "address"
        },
        {
          "indexed": true,
          "internalType": "address",
          "name": "to",
          "type": "address"
        },
        {
          "indexed": true,
          "internalType": "uint256",
          "name": "tokenId",
          "type": "uint256"
        }
      ],
      "name": "Transfer",
      "type": "event"
    },
    {
      "inputs": [
        {
          "internalType": "address",
          "name": "to",
          "type": "address"
        },
        {
          "internalType": "uint256",
          "name": "tokenId",
          "type": "uint256"
        }
      ],
      "name": "approve",
      "outputs": [],
      "stateMutability": "nonpayable",
      "type": "function"
    },
    {
      "inputs": [
        {
          "internalType": "address",
          "name": "owner",
          "type": "address"
        }
      ],
      "name": "balanceOf",
      "outputs": [
        {
          "internalType": "uint256",
          "name": "",
          "type": "uint256"
        }
      ],
      "stateMutability": "view",
      "type": "function"
    },
    {
      "inputs": [
        {
          "internalType": "string",
          "name": "tokenURI",
          "type": "string"
        }
      ],
      "name": "createToken",
      "outputs": [
        {
          "internalType": "uint256",
          "name": "",
          "type": "uint256"
        }
      ],
      "stateMutability": "nonpayable",
      "type": "function"
    },
    {
      "inputs": [
        {
          "internalType": "uint256",
          "name": "tokenId",
          "type": "uint256"
        }
      ],
      "name": "getApproved",
      "outputs": [
        {
          "internalType": "address",
          "name": "",
          "type": "address"
        }
      ],
      "stateMutability": "view",
      "type": "function"
    },
    {
      "inputs": [
        {
          "internalType": "address",
          "name": "owner",
          "type": "address"
        },
        {
          "internalType": "address",
          "name": "operator",
          "type": "address"
        }
      ],
      "name": "isApprovedForAll",
      "outputs": [
        {
          "internalType": "bool",
          "name": "",
          "type": "bool"
        }
      ],
      "stateMutability": "view",
      "type": "function"
    },
    {
      "inputs": [],
      "name": "name",
      "outputs": [
        {
          "internalType": "string",
          "name": "",
          "type": "string"
        }
      ],
      "stateMutability": "view",
      "type": "function"
    },
    {
      "inputs": [],
      "name": "owner",
      "outputs": [
        {
          "internalType": "address",
          "name": "",
          "type": "address"
        }
      ],
      "stateMutability": "view",
      "type": "function"
    },
    {
      "inputs": [
        {
          "internalType": "uint256",
          "name": "tokenId",
          "type": "uint256"
        }
      ],
      "name": "ownerOf",
      "outputs": [
        {
          "internalType": "address",
          "name": "",
          "type": "address"
        }
      ],
      "stateMutability": "view",
      "type": "function"
    },
    {
      "inputs": [],
      "name": "renounceOwnership",
      "outputs": [],
      "stateMutability": "nonpayable",
      "type": "function"
    },
    {
      "inputs": [
        {
          "internalType": "address",
          "name": "from",
          "type": "address"
        },
        {
          "internalType": "address",
          "name": "to",
          "type": "address"
        },
        {
          "internalType": "uint256",
          "name": "tokenId",
          "type": "uint256"
        }
      ],
      "name": "safeTransferFrom",
      "outputs": [],
      "stateMutability": "nonpayable",
      "type": "function"
    },
    {
      "inputs": [
        {
          "internalType": "address",
          "name": "from",
          "type": "address"
        },
        {
          "internalType": "address",
          "name": "to",
          "type": "address"
        },
        {
          "internalType": "uint256",
          "name": "tokenId",
          "type": "uint256"
        },
        {
          "internalType": "bytes",
          "name": "_data",
          "type": "bytes"
        }
      ],
      "name": "safeTransferFrom",
      "outputs": [],
      "stateMutability": "nonpayable",
      "type": "function"
    },
    {
      "inputs": [
        {
          "internalType": "address",
          "name": "operator",
          "type": "address"
        },
        {
          "internalType": "bool",
          "name": "approved",
          "type": "bool"
        }
      ],
      "name": "setApprovalForAll",
      "outputs": [],
      "stateMutability": "nonpayable",
      "type": "function"
    },
    {
      "inputs": [
        {
          "internalType": "bytes4",
          "name": "interfaceId",
          "type": "bytes4"
        }
      ],
      "name": "supportsInterface",
      "outputs": [
        {
          "internalType": "bool",
          "name": "",
          "type": "bool"
        }
      ],
      "stateMutability": "view",
      "type": "function"
    },
    {
      "inputs": [],
      "name": "symbol",
      "outputs": [
        {
          "internalType": "string",
          "name": "",
          "type": "string"
        }
      ],
      "stateMutability": "view",
      "type": "function"
    },
    {
      "inputs": [
        {
          "internalType": "uint256",
          "name": "tokenId",
          "type": "uint256"
        }
      ],
      "name": "tokenURI",
      "outputs": [
        {
          "internalType": "string",
          "name": "",
          "type": "string"
        }
      ],
      "stateMutability": "view",
      "type": "function"
    },
    {
      "inputs": [
        {
          "internalType": "address",
          "name": "from",
          "type": "address"
        },
        {
          "internalType": "address",
          "name": "to",
          "type": "address"
        },
        {
          "internalType": "uint256",
          "name": "tokenId",
          "type": "uint256"
        }
      ],
      "name": "transferFrom",
      "outputs": [],
      "stateMutability": "nonpayable",
      "type": "function"
    },
    {
      "inputs": [
        {
          "internalType": "address",
          "name": "newOwner",
          "type": "address"
        }
      ],
      "name": "transferOwnership",
      "outputs": [],
      "stateMutability": "nonpayable",
      "type": "function"
    }
  ],
  "bytecode": "0x60806040523480156200001157600080fd5b506040518060400160405280600881526020017f4169725175616b650000000000000000000000000000000000000000000000008152506040518060400160405280600381526020017f41514b0000000000000000000000000000000000000000000000000000000000815250816000908051906020019062000096929190620001a6565b508060019080519060200190620000af929190620001a6565b505050620000d2620000c6620000d860201b60201c565b620000e060201b60201c565b620002ba565b600033905090565b6000600760009054906101000a900473ffffffffffffffffffffffffffffffffffffffff16905081600760006101000a81548173ffffffffffffffffffffffffffffffffffffffff021916908373ffffffffffffffffffffffffffffffffffffffff1602179055508173ffffffffffffffffffffffffffffffffffffffff168173ffffffffffffffffffffffffffffffffffffffff167f8be0079c531659141344cd1fd0a4f28419497f9722a3daafe3b4186f6b6457e060405160405180910390a35050565b828054620001b49062000285565b90600052602060002090601f016020900481019282620001d8576000855562000224565b82601f10620001f357805160ff191683800117855562000224565b8280016001018555821562000224579182015b828111156200022357825182559160200191906001019062000206565b5b50905062000233919062000237565b5090565b5b808211156200025257600081600090555060010162000238565b5090565b7f4e487b7100000000000000000000000000000000000000000000000000000000600052602260045260246000fd5b600060028204905060018216806200029e57607f821691505b602082108103620002b457620002b362000256565b5b50919050565b612f7580620002ca6000396000f3fe608060405234801561001057600080fd5b506004361061010b5760003560e01c806370a08231116100a2578063a22cb46511610071578063a22cb465146102b8578063b88d4fde146102d4578063c87b56dd146102f0578063e985e9c514610320578063f2fde38b146103505761010b565b806370a0823114610242578063715018a6146102725780638da5cb5b1461027c57806395d89b411461029a5761010b565b806323b872dd116100de57806323b872dd146101aa57806342842e0e146101c657806345576f94146101e25780636352211e146102125761010b565b806301ffc9a71461011057806306fdde0314610140578063081812fc1461015e578063095ea7b31461018e575b600080fd5b61012a60048036038101906101259190611bee565b61036c565b6040516101379190611c36565b60405180910390f35b61014861044e565b6040516101559190611cea565b60405180910390f35b61017860048036038101906101739190611d42565b6104e0565b6040516101859190611db0565b60405180910390f35b6101a860048036038101906101a39190611df7565b610565565b005b6101c460048036038101906101bf9190611e37565b61067c565b005b6101e060048036038101906101db9190611e37565b6106dc565b005b6101fc60048036038101906101f79190611fbf565b6106fc565b6040516102099190612017565b60405180910390f35b61022c60048036038101906102279190611d42565b610733565b6040516102399190611db0565b60405180910390f35b61025c60048036038101906102579190612032565b6107e4565b6040516102699190612017565b60405180910390f35b61027a61089b565b005b610284610923565b6040516102919190611db0565b60405180910390f35b6102a261094d565b6040516102af9190611cea565b60405180910390f35b6102d260048036038101906102cd919061208b565b6109df565b005b6102ee60048036038101906102e9919061216c565b6109f5565b005b61030a60048036038101906103059190611d42565b610a57565b6040516103179190611cea565b60405180910390f35b61033a600480360381019061033591906121ef565b610ba8565b6040516103479190611c36565b60405180910390f35b61036a60048036038101906103659190612032565b610c3c565b005b60007f80ac58cd000000000000000000000000000000000000000000000000000000007bffffffffffffffffffffffffffffffffffffffffffffffffffffffff1916827bffffffffffffffffffffffffffffffffffffffffffffffffffffffff1916148061043757507f5b5e139f000000000000000000000000000000000000000000000000000000007bffffffffffffffffffffffffffffffffffffffffffffffffffffffff1916827bffffffffffffffffffffffffffffffffffffffffffffffffffffffff1916145b80610447575061044682610d33565b5b9050919050565b60606000805461045d9061225e565b80601f01602080910402602001604051908101604052809291908181526020018280546104899061225e565b80156104d65780601f106104ab576101008083540402835291602001916104d6565b820191906000526020600020905b8154815290600101906020018083116104b957829003601f168201915b5050505050905090565b60006104eb82610d9d565b61052a576040517f08c379a000000000000000000000000000000000000000000000000000000000815260040161052190612301565b60405180910390fd5b6004600083815260200190815260200160002060009054906101000a900473ffffffffffffffffffffffffffffffffffffffff169050919050565b600061057082610733565b90508073ffffffffffffffffffffffffffffffffffffffff168373ffffffffffffffffffffffffffffffffffffffff16036105e0576040517f08c379a00000000000000000000000000000000000000000000000000000000081526004016105d790612393565b60405180910390fd5b8073ffffffffffffffffffffffffffffffffffffffff166105ff610e09565b73ffffffffffffffffffffffffffffffffffffffff16148061062e575061062d81610628610e09565b610ba8565b5b61066d576040517f08c379a000000000000000000000000000000000000000000000000000000000815260040161066490612425565b60405180910390fd5b6106778383610e11565b505050565b61068d610687610e09565b82610eca565b6106cc576040517f08c379a00000000000000000000000000000000000000000000000000000000081526004016106c3906124b7565b60405180910390fd5b6106d7838383610fa8565b505050565b6106f7838383604051806020016040528060008152506109f5565b505050565b6000610708600861120e565b60006107146008611224565b90506107203382611232565b61072a818461140b565b80915050919050565b6000806002600084815260200190815260200160002060009054906101000a900473ffffffffffffffffffffffffffffffffffffffff169050600073ffffffffffffffffffffffffffffffffffffffff168173ffffffffffffffffffffffffffffffffffffffff16036107db576040517f08c379a00000000000000000000000000000000000000000000000000000000081526004016107d290612549565b60405180910390fd5b80915050919050565b60008073ffffffffffffffffffffffffffffffffffffffff168273ffffffffffffffffffffffffffffffffffffffff1603610854576040517f08c379a000000000000000000000000000000000000000000000000000000000815260040161084b906125db565b60405180910390fd5b600360008373ffffffffffffffffffffffffffffffffffffffff1673ffffffffffffffffffffffffffffffffffffffff168152602001908152602001600020549050919050565b6108a3610e09565b73ffffffffffffffffffffffffffffffffffffffff166108c1610923565b73ffffffffffffffffffffffffffffffffffffffff1614610917576040517f08c379a000000000000000000000000000000000000000000000000000000000815260040161090e90612647565b60405180910390fd5b610921600061147f565b565b6000600760009054906101000a900473ffffffffffffffffffffffffffffffffffffffff16905090565b60606001805461095c9061225e565b80601f01602080910402602001604051908101604052809291908181526020018280546109889061225e565b80156109d55780601f106109aa576101008083540402835291602001916109d5565b820191906000526020600020905b8154815290600101906020018083116109b857829003601f168201915b5050505050905090565b6109f16109ea610e09565b8383611545565b5050565b610a06610a00610e09565b83610eca565b610a45576040517f08c379a0000000000000000000000000000000000000000000000000000000008152600401610a3c906124b7565b60405180910390fd5b610a51848484846116b1565b50505050565b6060610a6282610d9d565b610aa1576040517f08c379a0000000000000000000000000000000000000000000000000000000008152600401610a98906126d9565b60405180910390fd5b6000600660008481526020019081526020016000208054610ac19061225e565b80601f0160208091040260200160405190810160405280929190818152602001828054610aed9061225e565b8015610b3a5780601f10610b0f57610100808354040283529160200191610b3a565b820191906000526020600020905b815481529060010190602001808311610b1d57829003601f168201915b505050505090506000610b4b61170d565b90506000815103610b60578192505050610ba3565b600082511115610b95578082604051602001610b7d929190612735565b60405160208183030381529060405292505050610ba3565b610b9e84611724565b925050505b919050565b6000600560008473ffffffffffffffffffffffffffffffffffffffff1673ffffffffffffffffffffffffffffffffffffffff16815260200190815260200160002060008373ffffffffffffffffffffffffffffffffffffffff1673ffffffffffffffffffffffffffffffffffffffff16815260200190815260200160002060009054906101000a900460ff16905092915050565b610c44610e09565b73ffffffffffffffffffffffffffffffffffffffff16610c62610923565b73ffffffffffffffffffffffffffffffffffffffff1614610cb8576040517f08c379a0000000000000000000000000000000000000000000000000000000008152600401610caf90612647565b60405180910390fd5b600073ffffffffffffffffffffffffffffffffffffffff168173ffffffffffffffffffffffffffffffffffffffff1603610d27576040517f08c379a0000000000000000000000000000000000000000000000000000000008152600401610d1e906127cb565b60405180910390fd5b610d308161147f565b50565b60007f01ffc9a7000000000000000000000000000000000000000000000000000000007bffffffffffffffffffffffffffffffffffffffffffffffffffffffff1916827bffffffffffffffffffffffffffffffffffffffffffffffffffffffff1916149050919050565b60008073ffffffffffffffffffffffffffffffffffffffff166002600084815260200190815260200160002060009054906101000a900473ffffffffffffffffffffffffffffffffffffffff1673ffffffffffffffffffffffffffffffffffffffff1614159050919050565b600033905090565b816004600083815260200190815260200160002060006101000a81548173ffffffffffffffffffffffffffffffffffffffff021916908373ffffffffffffffffffffffffffffffffffffffff160217905550808273ffffffffffffffffffffffffffffffffffffffff16610e8483610733565b73ffffffffffffffffffffffffffffffffffffffff167f8c5be1e5ebec7d5bd14f71427d1e84f3dd0314c0f7b2291e5b200ac8c7c3b92560405160405180910390a45050565b6000610ed582610d9d565b610f14576040517f08c379a0000000000000000000000000000000000000000000000000000000008152600401610f0b9061285d565b60405180910390fd5b6000610f1f83610733565b90508073ffffffffffffffffffffffffffffffffffffffff168473ffffffffffffffffffffffffffffffffffffffff161480610f8e57508373ffffffffffffffffffffffffffffffffffffffff16610f76846104e0565b73ffffffffffffffffffffffffffffffffffffffff16145b80610f9f5750610f9e8185610ba8565b5b91505092915050565b8273ffffffffffffffffffffffffffffffffffffffff16610fc882610733565b73ffffffffffffffffffffffffffffffffffffffff161461101e576040517f08c379a0000000000000000000000000000000000000000000000000000000008152600401611015906128ef565b60405180910390fd5b600073ffffffffffffffffffffffffffffffffffffffff168273ffffffffffffffffffffffffffffffffffffffff160361108d576040517f08c379a000000000000000000000000000000000000000000000000000000000815260040161108490612981565b60405180910390fd5b6110988383836117cb565b6110a3600082610e11565b6001600360008573ffffffffffffffffffffffffffffffffffffffff1673ffffffffffffffffffffffffffffffffffffffff16815260200190815260200160002060008282546110f391906129d0565b925050819055506001600360008473ffffffffffffffffffffffffffffffffffffffff1673ffffffffffffffffffffffffffffffffffffffff168152602001908152602001600020600082825461114a9190612a04565b92505081905550816002600083815260200190815260200160002060006101000a81548173ffffffffffffffffffffffffffffffffffffffff021916908373ffffffffffffffffffffffffffffffffffffffff160217905550808273ffffffffffffffffffffffffffffffffffffffff168473ffffffffffffffffffffffffffffffffffffffff167fddf252ad1be2c89b69c2b068fc378daa952ba7f163c4a11628f55a4df523b3ef60405160405180910390a46112098383836117d0565b505050565b6001816000016000828254019250508190555050565b600081600001549050919050565b600073ffffffffffffffffffffffffffffffffffffffff168273ffffffffffffffffffffffffffffffffffffffff16036112a1576040517f08c379a000000000000000000000000000000000000000000000000000000000815260040161129890612aa6565b60405180910390fd5b6112aa81610d9d565b156112ea576040517f08c379a00000000000000000000000000000000000000000000000000000000081526004016112e190612b12565b60405180910390fd5b6112f6600083836117cb565b6001600360008473ffffffffffffffffffffffffffffffffffffffff1673ffffffffffffffffffffffffffffffffffffffff16815260200190815260200160002060008282546113469190612a04565b92505081905550816002600083815260200190815260200160002060006101000a81548173ffffffffffffffffffffffffffffffffffffffff021916908373ffffffffffffffffffffffffffffffffffffffff160217905550808273ffffffffffffffffffffffffffffffffffffffff16600073ffffffffffffffffffffffffffffffffffffffff167fddf252ad1be2c89b69c2b068fc378daa952ba7f163c4a11628f55a4df523b3ef60405160405180910390a4611407600083836117d0565b5050565b61141482610d9d565b611453576040517f08c379a000000000000000000000000000000000000000000000000000000000815260040161144a90612ba4565b60405180910390fd5b8060066000848152602001908152602001600020908051906020019061147a929190611adf565b505050565b6000600760009054906101000a900473ffffffffffffffffffffffffffffffffffffffff16905081600760006101000a81548173ffffffffffffffffffffffffffffffffffffffff021916908373ffffffffffffffffffffffffffffffffffffffff1602179055508173ffffffffffffffffffffffffffffffffffffffff168173ffffffffffffffffffffffffffffffffffffffff167f8be0079c531659141344cd1fd0a4f28419497f9722a3daafe3b4186f6b6457e060405160405180910390a35050565b8173ffffffffffffffffffffffffffffffffffffffff168373ffffffffffffffffffffffffffffffffffffffff16036115b3576040517f08c379a00000000000000000000000000000000000000000000000000000000081526004016115aa90612c10565b60405180910390fd5b80600560008573ffffffffffffffffffffffffffffffffffffffff1673ffffffffffffffffffffffffffffffffffffffff16815260200190815260200160002060008473ffffffffffffffffffffffffffffffffffffffff1673ffffffffffffffffffffffffffffffffffffffff16815260200190815260200160002060006101000a81548160ff0219169083151502179055508173ffffffffffffffffffffffffffffffffffffffff168373ffffffffffffffffffffffffffffffffffffffff167f17307eab39ab6107e8899845ad3d59bd9653f200f220920489ca2b5937696c31836040516116a49190611c36565b60405180910390a3505050565b6116bc848484610fa8565b6116c8848484846117d5565b611707576040517f08c379a00000000000000000000000000000000000000000000000000000000081526004016116fe90612ca2565b60405180910390fd5b50505050565b606060405180602001604052806000815250905090565b606061172f82610d9d565b61176e576040517f08c379a000000000000000000000000000000000000000000000000000000000815260040161176590612d34565b60405180910390fd5b600061177861170d565b9050600081511161179857604051806020016040528060008152506117c3565b806117a28461195c565b6040516020016117b3929190612735565b6040516020818303038152906040525b915050919050565b505050565b505050565b60006117f68473ffffffffffffffffffffffffffffffffffffffff16611abc565b1561194f578373ffffffffffffffffffffffffffffffffffffffff1663150b7a0261181f610e09565b8786866040518563ffffffff1660e01b81526004016118419493929190612da9565b6020604051808303816000875af192505050801561187d57506040513d601f19601f8201168201806040525081019061187a9190612e0a565b60015b6118ff573d80600081146118ad576040519150601f19603f3d011682016040523d82523d6000602084013e6118b2565b606091505b5060008151036118f7576040517f08c379a00000000000000000000000000000000000000000000000000000000081526004016118ee90612ca2565b60405180910390fd5b805181602001fd5b63150b7a0260e01b7bffffffffffffffffffffffffffffffffffffffffffffffffffffffff1916817bffffffffffffffffffffffffffffffffffffffffffffffffffffffff191614915050611954565b600190505b949350505050565b6060600082036119a3576040518060400160405280600181526020017f30000000000000000000000000000000000000000000000000000000000000008152509050611ab7565b600082905060005b600082146119d55780806119be90612e37565b915050600a826119ce9190612eae565b91506119ab565b60008167ffffffffffffffff8111156119f1576119f0611e94565b5b6040519080825280601f01601f191660200182016040528015611a235781602001600182028036833780820191505090505b5090505b60008514611ab057600182611a3c91906129d0565b9150600a85611a4b9190612edf565b6030611a579190612a04565b60f81b818381518110611a6d57611a6c612f10565b5b60200101907effffffffffffffffffffffffffffffffffffffffffffffffffffffffffffff1916908160001a905350600a85611aa99190612eae565b9450611a27565b8093505050505b919050565b6000808273ffffffffffffffffffffffffffffffffffffffff163b119050919050565b828054611aeb9061225e565b90600052602060002090601f016020900481019282611b0d5760008555611b54565b82601f10611b2657805160ff1916838001178555611b54565b82800160010185558215611b54579182015b82811115611b53578251825591602001919060010190611b38565b5b509050611b619190611b65565b5090565b5b80821115611b7e576000816000905550600101611b66565b5090565b6000604051905090565b600080fd5b600080fd5b60007fffffffff0000000000000000000000000000000000000000000000000000000082169050919050565b611bcb81611b96565b8114611bd657600080fd5b50565b600081359050611be881611bc2565b92915050565b600060208284031215611c0457611c03611b8c565b5b6000611c1284828501611bd9565b91505092915050565b60008115159050919050565b611c3081611c1b565b82525050565b6000602082019050611c4b6000830184611c27565b92915050565b600081519050919050565b600082825260208201905092915050565b60005b83811015611c8b578082015181840152602081019050611c70565b83811115611c9a576000848401525b50505050565b6000601f19601f8301169050919050565b6000611cbc82611c51565b611cc68185611c5c565b9350611cd6818560208601611c6d565b611cdf81611ca0565b840191505092915050565b60006020820190508181036000830152611d048184611cb1565b905092915050565b6000819050919050565b611d1f81611d0c565b8114611d2a57600080fd5b50565b600081359050611d3c81611d16565b92915050565b600060208284031215611d5857611d57611b8c565b5b6000611d6684828501611d2d565b91505092915050565b600073ffffffffffffffffffffffffffffffffffffffff82169050919050565b6000611d9a82611d6f565b9050919050565b611daa81611d8f565b82525050565b6000602082019050611dc56000830184611da1565b92915050565b611dd481611d8f565b8114611ddf57600080fd5b50565b600081359050611df181611dcb565b92915050565b60008060408385031215611e0e57611e0d611b8c565b5b6000611e1c85828601611de2565b9250506020611e2d85828601611d2d565b9150509250929050565b600080600060608486031215611e5057611e4f611b8c565b5b6000611e5e86828701611de2565b9350506020611e6f86828701611de2565b9250506040611e8086828701611d2d565b9150509250925092565b600080fd5b600080fd5b7f4e487b7100000000000000000000000000000000000000000000000000000000600052604160045260246000fd5b611ecc82611ca0565b810181811067ffffffffffffffff82111715611eeb57611eea611e94565b5b80604052505050565b6000611efe611b82565b9050611f0a8282611ec3565b919050565b600067ffffffffffffffff821115611f2a57611f29611e94565b5b611f3382611ca0565b9050602081019050919050565b82818337600083830152505050565b6000611f62611f5d84611f0f565b611ef4565b905082815260208101848484011115611f7e57611f7d611e8f565b5b611f89848285611f40565b509392505050565b600082601f830112611fa657611fa5611e8a565b5b8135611fb6848260208601611f4f565b91505092915050565b600060208284031215611fd557611fd4611b8c565b5b600082013567ffffffffffffffff811115611ff357611ff2611b91565b5b611fff84828501611f91565b91505092915050565b61201181611d0c565b82525050565b600060208201905061202c6000830184612008565b92915050565b60006020828403121561204857612047611b8c565b5b600061205684828501611de2565b91505092915050565b61206881611c1b565b811461207357600080fd5b50565b6000813590506120858161205f565b92915050565b600080604083850312156120a2576120a1611b8c565b5b60006120b085828601611de2565b92505060206120c185828601612076565b9150509250929050565b600067ffffffffffffffff8211156120e6576120e5611e94565b5b6120ef82611ca0565b9050602081019050919050565b600061210f61210a846120cb565b611ef4565b90508281526020810184848401111561212b5761212a611e8f565b5b612136848285611f40565b509392505050565b600082601f83011261215357612152611e8a565b5b81356121638482602086016120fc565b91505092915050565b6000806000806080858703121561218657612185611b8c565b5b600061219487828801611de2565b94505060206121a587828801611de2565b93505060406121b687828801611d2d565b925050606085013567ffffffffffffffff8111156121d7576121d6611b91565b5b6121e38782880161213e565b91505092959194509250565b6000806040838503121561220657612205611b8c565b5b600061221485828601611de2565b925050602061222585828601611de2565b9150509250929050565b7f4e487b7100000000000000000000000000000000000000000000000000000000600052602260045260246000fd5b6000600282049050600182168061227657607f821691505b6020821081036122895761228861222f565b5b50919050565b7f4552433732313a20617070726f76656420717565727920666f72206e6f6e657860008201527f697374656e7420746f6b656e0000000000000000000000000000000000000000602082015250565b60006122eb602c83611c5c565b91506122f68261228f565b604082019050919050565b6000602082019050818103600083015261231a816122de565b9050919050565b7f4552433732313a20617070726f76616c20746f2063757272656e74206f776e6560008201527f7200000000000000000000000000000000000000000000000000000000000000602082015250565b600061237d602183611c5c565b915061238882612321565b604082019050919050565b600060208201905081810360008301526123ac81612370565b9050919050565b7f4552433732313a20617070726f76652063616c6c6572206973206e6f74206f7760008201527f6e6572206e6f7220617070726f76656420666f7220616c6c0000000000000000602082015250565b600061240f603883611c5c565b915061241a826123b3565b604082019050919050565b6000602082019050818103600083015261243e81612402565b9050919050565b7f4552433732313a207472616e736665722063616c6c6572206973206e6f74206f60008201527f776e6572206e6f7220617070726f766564000000000000000000000000000000602082015250565b60006124a1603183611c5c565b91506124ac82612445565b604082019050919050565b600060208201905081810360008301526124d081612494565b9050919050565b7f4552433732313a206f776e657220717565727920666f72206e6f6e657869737460008201527f656e7420746f6b656e0000000000000000000000000000000000000000000000602082015250565b6000612533602983611c5c565b915061253e826124d7565b604082019050919050565b6000602082019050818103600083015261256281612526565b9050919050565b7f4552433732313a2062616c616e636520717565727920666f7220746865207a6560008201527f726f206164647265737300000000000000000000000000000000000000000000602082015250565b60006125c5602a83611c5c565b91506125d082612569565b604082019050919050565b600060208201905081810360008301526125f4816125b8565b9050919050565b7f4f776e61626c653a2063616c6c6572206973206e6f7420746865206f776e6572600082015250565b6000612631602083611c5c565b915061263c826125fb565b602082019050919050565b6000602082019050818103600083015261266081612624565b9050919050565b7f45524337323155524953746f726167653a2055524920717565727920666f722060008201527f6e6f6e6578697374656e7420746f6b656e000000000000000000000000000000602082015250565b60006126c3603183611c5c565b91506126ce82612667565b604082019050919050565b600060208201905081810360008301526126f2816126b6565b9050919050565b600081905092915050565b600061270f82611c51565b61271981856126f9565b9350612729818560208601611c6d565b80840191505092915050565b60006127418285612704565b915061274d8284612704565b91508190509392505050565b7f4f776e61626c653a206e6577206f776e657220697320746865207a65726f206160008201527f6464726573730000000000000000000000000000000000000000000000000000602082015250565b60006127b5602683611c5c565b91506127c082612759565b604082019050919050565b600060208201905081810360008301526127e4816127a8565b9050919050565b7f4552433732313a206f70657261746f7220717565727920666f72206e6f6e657860008201527f697374656e7420746f6b656e0000000000000000000000000000000000000000602082015250565b6000612847602c83611c5c565b9150612852826127eb565b604082019050919050565b600060208201905081810360008301526128768161283a565b9050919050565b7f4552433732313a207472616e736665722066726f6d20696e636f72726563742060008201527f6f776e6572000000000000000000000000000000000000000000000000000000602082015250565b60006128d9602583611c5c565b91506128e48261287d565b604082019050919050565b60006020820190508181036000830152612908816128cc565b9050919050565b7f4552433732313a207472616e7366657220746f20746865207a65726f2061646460008201527f7265737300000000000000000000000000000000000000000000000000000000602082015250565b600061296b602483611c5c565b91506129768261290f565b604082019050919050565b6000602082019050818103600083015261299a8161295e565b9050919050565b7f4e487b7100000000000000000000000000000000000000000000000000000000600052601160045260246000fd5b60006129db82611d0c565b91506129e683611d0c565b9250828210156129f9576129f86129a1565b5b828203905092915050565b6000612a0f82611d0c565b9150612a1a83611d0c565b9250827fffffffffffffffffffffffffffffffffffffffffffffffffffffffffffffffff03821115612a4f57612a4e6129a1565b5b828201905092915050565b7f4552433732313a206d696e7420746f20746865207a65726f2061646472657373600082015250565b6000612a90602083611c5c565b9150612a9b82612a5a565b602082019050919050565b60006020820190508181036000830152612abf81612a83565b9050919050565b7f4552433732313a20746f6b656e20616c7265616479206d696e74656400000000600082015250565b6000612afc601c83611c5c565b9150612b0782612ac6565b602082019050919050565b60006020820190508181036000830152612b2b81612aef565b9050919050565b7f45524337323155524953746f726167653a2055524920736574206f66206e6f6e60008201527f6578697374656e7420746f6b656e000000000000000000000000000000000000602082015250565b6000612b8e602e83611c5c565b9150612b9982612b32565b604082019050919050565b60006020820190508181036000830152612bbd81612b81565b9050919050565b7f4552433732313a20617070726f766520746f2063616c6c657200000000000000600082015250565b6000612bfa601983611c5c565b9150612c0582612bc4565b602082019050919050565b60006020820190508181036000830152612c2981612bed565b9050919050565b7f4552433732313a207472616e7366657220746f206e6f6e20455243373231526560008201527f63656976657220696d706c656d656e7465720000000000000000000000000000602082015250565b6000612c8c603283611c5c565b9150612c9782612c30565b604082019050919050565b60006020820190508181036000830152612cbb81612c7f565b9050919050565b7f4552433732314d657461646174613a2055524920717565727920666f72206e6f60008201527f6e6578697374656e7420746f6b656e0000000000000000000000000000000000602082015250565b6000612d1e602f83611c5c565b9150612d2982612cc2565b604082019050919050565b60006020820190508181036000830152612d4d81612d11565b9050919050565b600081519050919050565b600082825260208201905092915050565b6000612d7b82612d54565b612d858185612d5f565b9350612d95818560208601611c6d565b612d9e81611ca0565b840191505092915050565b6000608082019050612dbe6000830187611da1565b612dcb6020830186611da1565b612dd86040830185612008565b8181036060830152612dea8184612d70565b905095945050505050565b600081519050612e0481611bc2565b92915050565b600060208284031215612e2057612e1f611b8c565b5b6000612e2e84828501612df5565b91505092915050565b6000612e4282611d0c565b91507fffffffffffffffffffffffffffffffffffffffffffffffffffffffffffffffff8203612e7457612e736129a1565b5b600182019050919050565b7f4e487b7100000000000000000000000000000000000000000000000000000000600052601260045260246000fd5b6000612eb982611d0c565b9150612ec483611d0c565b925082612ed457612ed3612e7f565b5b828204905092915050565b6000612eea82611d0c565b9150612ef583611d0c565b925082612f0557612f04612e7f565b5b828206905092915050565b7f4e487b7100000000000000000000000000000000000000000000000000000000600052603260045260246000fdfea2646970667358221220c1219d0f66262d44edde6c1a299b8e53c43e58e1d500539316784b020c5cc93064736f6c634300080d0033",
  "linkReferences": {},
  "deployedLinkReferences": {}
}